{
	"Build on Base/game.sol": {
		"GuessGame": {
			"abi": [
				{
					"inputs": [
						{
							"internalType": "uint256",
							"name": "",
							"type": "uint256"
						}
					],
					"name": "allPlayers",
					"outputs": [
						{
							"internalType": "address",
							"name": "user",
							"type": "address"
						},
						{
							"internalType": "uint256",
							"name": "guessCount",
							"type": "uint256"
						},
						{
							"internalType": "uint256",
							"name": "amountWon",
							"type": "uint256"
						}
					],
					"stateMutability": "view",
					"type": "function"
				},
				{
					"inputs": [],
					"name": "generateNum",
					"outputs": [],
					"stateMutability": "nonpayable",
					"type": "function"
				},
				{
					"inputs": [],
					"name": "generatedNum",
					"outputs": [
						{
							"internalType": "uint256",
							"name": "",
							"type": "uint256"
						}
					],
					"stateMutability": "view",
					"type": "function"
				},
				{
					"inputs": [
						{
							"internalType": "uint256",
							"name": "num",
							"type": "uint256"
						}
					],
					"name": "play",
					"outputs": [],
					"stateMutability": "nonpayable",
					"type": "function"
				},
				{
					"inputs": [
						{
							"internalType": "address",
							"name": "",
							"type": "address"
						}
					],
					"name": "usersInfo",
					"outputs": [
						{
							"internalType": "address",
							"name": "user",
							"type": "address"
						},
						{
							"internalType": "uint256",
							"name": "guessCount",
							"type": "uint256"
						},
						{
							"internalType": "uint256",
							"name": "amountWon",
							"type": "uint256"
						}
					],
					"stateMutability": "view",
					"type": "function"
				}
			],
			"devdoc": {
				"kind": "dev",
				"methods": {},
				"version": 1
			},
			"evm": {
				"assembly": "    /* \"Build on Base/game.sol\":238:1141  contract GuessGame{... */\n  mstore(0x40, 0x80)\n  callvalue\n  dup1\n  iszero\n  tag_1\n  jumpi\n  revert(0x00, 0x00)\ntag_1:\n  pop\n  dataSize(sub_0)\n  dup1\n  dataOffset(sub_0)\n  0x00\n  codecopy\n  0x00\n  return\nstop\n\nsub_0: assembly {\n        /* \"Build on Base/game.sol\":238:1141  contract GuessGame{... */\n      mstore(0x40, 0x80)\n      callvalue\n      dup1\n      iszero\n      tag_1\n      jumpi\n      revert(0x00, 0x00)\n    tag_1:\n      pop\n      jumpi(tag_2, lt(calldatasize, 0x04))\n      shr(0xe0, calldataload(0x00))\n      dup1\n      0x0544ce5e\n      eq\n      tag_3\n      jumpi\n      dup1\n      0x5d0eaaaf\n      eq\n      tag_4\n      jumpi\n      dup1\n      0x6898f82b\n      eq\n      tag_5\n      jumpi\n      dup1\n      0x85b7df02\n      eq\n      tag_6\n      jumpi\n      dup1\n      0xeea760b3\n      eq\n      tag_7\n      jumpi\n    tag_2:\n      revert(0x00, 0x00)\n        /* \"Build on Base/game.sol\":603:627  User[] public allPlayers */\n    tag_3:\n      tag_8\n      0x04\n      dup1\n      calldatasize\n      sub\n      dup2\n      add\n      swap1\n      tag_9\n      swap2\n      swap1\n      tag_10\n      jump\t// in\n    tag_9:\n      tag_11\n      jump\t// in\n    tag_8:\n      mload(0x40)\n      tag_12\n      swap4\n      swap3\n      swap2\n      swap1\n      tag_13\n      jump\t// in\n    tag_12:\n      mload(0x40)\n      dup1\n      swap2\n      sub\n      swap1\n      return\n        /* \"Build on Base/game.sol\":520:561  mapping(address => User) public usersInfo */\n    tag_4:\n      tag_14\n      0x04\n      dup1\n      calldatasize\n      sub\n      dup2\n      add\n      swap1\n      tag_15\n      swap2\n      swap1\n      tag_16\n      jump\t// in\n    tag_15:\n      tag_17\n      jump\t// in\n    tag_14:\n      mload(0x40)\n      tag_18\n      swap4\n      swap3\n      swap2\n      swap1\n      tag_13\n      jump\t// in\n    tag_18:\n      mload(0x40)\n      dup1\n      swap2\n      sub\n      swap1\n      return\n        /* \"Build on Base/game.sol\":834:1138  function play(uint num) public{... */\n    tag_5:\n      tag_19\n      0x04\n      dup1\n      calldatasize\n      sub\n      dup2\n      add\n      swap1\n      tag_20\n      swap2\n      swap1\n      tag_10\n      jump\t// in\n    tag_20:\n      tag_21\n      jump\t// in\n    tag_19:\n      stop\n        /* \"Build on Base/game.sol\":288:312  uint public generatedNum */\n    tag_6:\n      tag_22\n      tag_23\n      jump\t// in\n    tag_22:\n      mload(0x40)\n      tag_24\n      swap2\n      swap1\n      tag_25\n      jump\t// in\n    tag_24:\n      mload(0x40)\n      dup1\n      swap2\n      sub\n      swap1\n      return\n        /* \"Build on Base/game.sol\":636:822  function generateNum() public{... */\n    tag_7:\n      tag_26\n      tag_27\n      jump\t// in\n    tag_26:\n      stop\n        /* \"Build on Base/game.sol\":603:627  User[] public allPlayers */\n    tag_11:\n      0x02\n      dup2\n      dup2\n      sload\n      dup2\n      lt\n      tag_28\n      jumpi\n      0x00\n      dup1\n      revert\n    tag_28:\n      swap1\n      0x00\n      mstore\n      keccak256(0x00, 0x20)\n      swap1\n      0x03\n      mul\n      add\n      0x00\n      swap2\n      pop\n      swap1\n      pop\n      dup1\n      0x00\n      add\n      0x00\n      swap1\n      sload\n      swap1\n      0x0100\n      exp\n      swap1\n      div\n      0xffffffffffffffffffffffffffffffffffffffff\n      and\n      swap1\n      dup1\n      0x01\n      add\n      sload\n      swap1\n      dup1\n      0x02\n      add\n      sload\n      swap1\n      pop\n      dup4\n      jump\t// out\n        /* \"Build on Base/game.sol\":520:561  mapping(address => User) public usersInfo */\n    tag_17:\n      mstore(0x20, 0x01)\n      dup1\n      0x00\n      mstore\n      keccak256(0x00, 0x40)\n      0x00\n      swap2\n      pop\n      swap1\n      pop\n      dup1\n      0x00\n      add\n      0x00\n      swap1\n      sload\n      swap1\n      0x0100\n      exp\n      swap1\n      div\n      0xffffffffffffffffffffffffffffffffffffffff\n      and\n      swap1\n      dup1\n      0x01\n      add\n      sload\n      swap1\n      dup1\n      0x02\n      add\n      sload\n      swap1\n      pop\n      dup4\n      jump\t// out\n        /* \"Build on Base/game.sol\":834:1138  function play(uint num) public{... */\n    tag_21:\n        /* \"Build on Base/game.sol\":904:914  msg.sender */\n      caller\n        /* \"Build on Base/game.sol\":875:884  usersInfo */\n      0x01\n        /* \"Build on Base/game.sol\":875:896  usersInfo[msg.sender] */\n      0x00\n        /* \"Build on Base/game.sol\":885:895  msg.sender */\n      caller\n        /* \"Build on Base/game.sol\":875:896  usersInfo[msg.sender] */\n      0xffffffffffffffffffffffffffffffffffffffff\n      and\n      0xffffffffffffffffffffffffffffffffffffffff\n      and\n      dup2\n      mstore\n      0x20\n      add\n      swap1\n      dup2\n      mstore\n      0x20\n      add\n      0x00\n      keccak256\n        /* \"Build on Base/game.sol\":875:901  usersInfo[msg.sender].user */\n      0x00\n      add\n      0x00\n        /* \"Build on Base/game.sol\":875:914  usersInfo[msg.sender].user = msg.sender */\n      0x0100\n      exp\n      dup2\n      sload\n      dup2\n      0xffffffffffffffffffffffffffffffffffffffff\n      mul\n      not\n      and\n      swap1\n      dup4\n      0xffffffffffffffffffffffffffffffffffffffff\n      and\n      mul\n      or\n      swap1\n      sstore\n      pop\n        /* \"Build on Base/game.sol\":959:960  1 */\n      0x01\n        /* \"Build on Base/game.sol\":923:932  usersInfo */\n      dup1\n        /* \"Build on Base/game.sol\":923:944  usersInfo[msg.sender] */\n      0x00\n        /* \"Build on Base/game.sol\":933:943  msg.sender */\n      caller\n        /* \"Build on Base/game.sol\":923:944  usersInfo[msg.sender] */\n      0xffffffffffffffffffffffffffffffffffffffff\n      and\n      0xffffffffffffffffffffffffffffffffffffffff\n      and\n      dup2\n      mstore\n      0x20\n      add\n      swap1\n      dup2\n      mstore\n      0x20\n      add\n      0x00\n      keccak256\n        /* \"Build on Base/game.sol\":923:955  usersInfo[msg.sender].guessCount */\n      0x01\n      add\n      0x00\n        /* \"Build on Base/game.sol\":923:960  usersInfo[msg.sender].guessCount += 1 */\n      dup3\n      dup3\n      sload\n      tag_31\n      swap2\n      swap1\n      tag_32\n      jump\t// in\n    tag_31:\n      swap3\n      pop\n      pop\n      dup2\n      swap1\n      sstore\n      pop\n        /* \"Build on Base/game.sol\":990:1002  generatedNum */\n      sload(0x00)\n        /* \"Build on Base/game.sol\":983:986  num */\n      dup2\n        /* \"Build on Base/game.sol\":983:1002  num == generatedNum */\n      eq\n        /* \"Build on Base/game.sol\":975:1031  require(num == generatedNum, \"You made the wrong guess\") */\n      tag_33\n      jumpi\n      mload(0x40)\n      0x08c379a000000000000000000000000000000000000000000000000000000000\n      dup2\n      mstore\n      0x04\n      add\n      tag_34\n      swap1\n      tag_35\n      jump\t// in\n    tag_34:\n      mload(0x40)\n      dup1\n      swap2\n      sub\n      swap1\n      revert\n    tag_33:\n        /* \"Build on Base/game.sol\":1074:1075  1 */\n      0x01\n        /* \"Build on Base/game.sol\":1039:1048  usersInfo */\n      dup1\n        /* \"Build on Base/game.sol\":1039:1060  usersInfo[msg.sender] */\n      0x00\n        /* \"Build on Base/game.sol\":1049:1059  msg.sender */\n      caller\n        /* \"Build on Base/game.sol\":1039:1060  usersInfo[msg.sender] */\n      0xffffffffffffffffffffffffffffffffffffffff\n      and\n      0xffffffffffffffffffffffffffffffffffffffff\n      and\n      dup2\n      mstore\n      0x20\n      add\n      swap1\n      dup2\n      mstore\n      0x20\n      add\n      0x00\n      keccak256\n        /* \"Build on Base/game.sol\":1039:1070  usersInfo[msg.sender].amountWon */\n      0x02\n      add\n      0x00\n        /* \"Build on Base/game.sol\":1039:1075  usersInfo[msg.sender].amountWon += 1 */\n      dup3\n      dup3\n      sload\n      tag_36\n      swap2\n      swap1\n      tag_32\n      jump\t// in\n    tag_36:\n      swap3\n      pop\n      pop\n      dup2\n      swap1\n      sstore\n      pop\n        /* \"Build on Base/game.sol\":1084:1094  allPlayers */\n      0x02\n        /* \"Build on Base/game.sol\":1100:1109  usersInfo */\n      0x01\n        /* \"Build on Base/game.sol\":1100:1121  usersInfo[msg.sender] */\n      0x00\n        /* \"Build on Base/game.sol\":1110:1120  msg.sender */\n      caller\n        /* \"Build on Base/game.sol\":1100:1121  usersInfo[msg.sender] */\n      0xffffffffffffffffffffffffffffffffffffffff\n      and\n      0xffffffffffffffffffffffffffffffffffffffff\n      and\n      dup2\n      mstore\n      0x20\n      add\n      swap1\n      dup2\n      mstore\n      0x20\n      add\n      0x00\n      keccak256\n        /* \"Build on Base/game.sol\":1084:1122  allPlayers.push(usersInfo[msg.sender]) */\n      swap1\n      dup1\n      0x01\n      dup2\n      sload\n      add\n      dup1\n      dup3\n      sstore\n      dup1\n      swap2\n      pop\n      pop\n      0x01\n      swap1\n      sub\n      swap1\n      0x00\n      mstore\n      keccak256(0x00, 0x20)\n      swap1\n      0x03\n      mul\n      add\n      0x00\n      swap1\n      swap2\n      swap1\n      swap2\n      swap1\n      swap2\n      pop\n      0x00\n      dup3\n      add\n      0x00\n      swap1\n      sload\n      swap1\n      0x0100\n      exp\n      swap1\n      div\n      0xffffffffffffffffffffffffffffffffffffffff\n      and\n      dup2\n      0x00\n      add\n      exp(0x0100, 0x00)\n      dup2\n      sload\n      dup2\n      0xffffffffffffffffffffffffffffffffffffffff\n      mul\n      not\n      and\n      swap1\n      dup4\n      0xffffffffffffffffffffffffffffffffffffffff\n      and\n      mul\n      or\n      swap1\n      sstore\n      pop\n      0x01\n      dup3\n      add\n      sload\n      dup2\n      0x01\n      add\n      sstore\n      0x02\n      dup3\n      add\n      sload\n      dup2\n      0x02\n      add\n      sstore\n      pop\n      pop\n        /* \"Build on Base/game.sol\":834:1138  function play(uint num) public{... */\n      pop\n      jump\t// out\n        /* \"Build on Base/game.sol\":288:312  uint public generatedNum */\n    tag_23:\n      sload(0x00)\n      dup2\n      jump\t// out\n        /* \"Build on Base/game.sol\":636:822  function generateNum() public{... */\n    tag_27:\n        /* \"Build on Base/game.sol\":676:690  uint randomNum */\n      0x00\n        /* \"Build on Base/game.sol\":725:740  block.timestamp */\n      timestamp\n        /* \"Build on Base/game.sol\":741:757  block.prevrandao */\n      prevrandao\n        /* \"Build on Base/game.sol\":758:768  msg.sender */\n      caller\n        /* \"Build on Base/game.sol\":708:769  abi.encodePacked(block.timestamp,block.prevrandao,msg.sender) */\n      add(0x20, mload(0x40))\n      tag_39\n      swap4\n      swap3\n      swap2\n      swap1\n      tag_40\n      jump\t// in\n    tag_39:\n      mload(0x40)\n      0x20\n      dup2\n      dup4\n      sub\n      sub\n      dup2\n      mstore\n      swap1\n      0x40\n      mstore\n        /* \"Build on Base/game.sol\":698:770  keccak256(abi.encodePacked(block.timestamp,block.prevrandao,msg.sender)) */\n      dup1\n      mload\n      swap1\n      0x20\n      add\n      keccak256\n        /* \"Build on Base/game.sol\":693:771  uint(keccak256(abi.encodePacked(block.timestamp,block.prevrandao,msg.sender))) */\n      0x00\n      shr\n        /* \"Build on Base/game.sol\":676:771  uint randomNum = uint(keccak256(abi.encodePacked(block.timestamp,block.prevrandao,msg.sender))) */\n      swap1\n      pop\n        /* \"Build on Base/game.sol\":810:813  100 */\n      0x64\n        /* \"Build on Base/game.sol\":798:807  randomNum */\n      dup2\n        /* \"Build on Base/game.sol\":798:813  randomNum % 100 */\n      tag_41\n      swap2\n      swap1\n      tag_42\n      jump\t// in\n    tag_41:\n        /* \"Build on Base/game.sol\":782:794  generatedNum */\n      0x00\n        /* \"Build on Base/game.sol\":782:814  generatedNum = (randomNum % 100) */\n      dup2\n      swap1\n      sstore\n      pop\n        /* \"Build on Base/game.sol\":665:822  {... */\n      pop\n        /* \"Build on Base/game.sol\":636:822  function generateNum() public{... */\n      jump\t// out\n        /* \"#utility.yul\":88:205   */\n    tag_44:\n        /* \"#utility.yul\":197:198   */\n      0x00\n        /* \"#utility.yul\":194:195   */\n      0x00\n        /* \"#utility.yul\":187:199   */\n      revert\n        /* \"#utility.yul\":334:411   */\n    tag_46:\n        /* \"#utility.yul\":371:378   */\n      0x00\n        /* \"#utility.yul\":400:405   */\n      dup2\n        /* \"#utility.yul\":389:405   */\n      swap1\n      pop\n        /* \"#utility.yul\":334:411   */\n      swap2\n      swap1\n      pop\n      jump\t// out\n        /* \"#utility.yul\":417:539   */\n    tag_47:\n        /* \"#utility.yul\":490:514   */\n      tag_72\n        /* \"#utility.yul\":508:513   */\n      dup2\n        /* \"#utility.yul\":490:514   */\n      tag_46\n      jump\t// in\n    tag_72:\n        /* \"#utility.yul\":483:488   */\n      dup2\n        /* \"#utility.yul\":480:515   */\n      eq\n        /* \"#utility.yul\":470:533   */\n      tag_73\n      jumpi\n        /* \"#utility.yul\":529:530   */\n      0x00\n        /* \"#utility.yul\":526:527   */\n      0x00\n        /* \"#utility.yul\":519:531   */\n      revert\n        /* \"#utility.yul\":470:533   */\n    tag_73:\n        /* \"#utility.yul\":417:539   */\n      pop\n      jump\t// out\n        /* \"#utility.yul\":545:684   */\n    tag_48:\n        /* \"#utility.yul\":591:596   */\n      0x00\n        /* \"#utility.yul\":629:635   */\n      dup2\n        /* \"#utility.yul\":616:636   */\n      calldataload\n        /* \"#utility.yul\":607:636   */\n      swap1\n      pop\n        /* \"#utility.yul\":645:678   */\n      tag_75\n        /* \"#utility.yul\":672:677   */\n      dup2\n        /* \"#utility.yul\":645:678   */\n      tag_47\n      jump\t// in\n    tag_75:\n        /* \"#utility.yul\":545:684   */\n      swap3\n      swap2\n      pop\n      pop\n      jump\t// out\n        /* \"#utility.yul\":690:1019   */\n    tag_10:\n        /* \"#utility.yul\":749:755   */\n      0x00\n        /* \"#utility.yul\":798:800   */\n      0x20\n        /* \"#utility.yul\":786:795   */\n      dup3\n        /* \"#utility.yul\":777:784   */\n      dup5\n        /* \"#utility.yul\":773:796   */\n      sub\n        /* \"#utility.yul\":769:801   */\n      slt\n        /* \"#utility.yul\":766:885   */\n      iszero\n      tag_77\n      jumpi\n        /* \"#utility.yul\":804:883   */\n      tag_78\n      tag_44\n      jump\t// in\n    tag_78:\n        /* \"#utility.yul\":766:885   */\n    tag_77:\n        /* \"#utility.yul\":924:925   */\n      0x00\n        /* \"#utility.yul\":949:1002   */\n      tag_79\n        /* \"#utility.yul\":994:1001   */\n      dup5\n        /* \"#utility.yul\":985:991   */\n      dup3\n        /* \"#utility.yul\":974:983   */\n      dup6\n        /* \"#utility.yul\":970:992   */\n      add\n        /* \"#utility.yul\":949:1002   */\n      tag_48\n      jump\t// in\n    tag_79:\n        /* \"#utility.yul\":939:1002   */\n      swap2\n      pop\n        /* \"#utility.yul\":895:1012   */\n      pop\n        /* \"#utility.yul\":690:1019   */\n      swap3\n      swap2\n      pop\n      pop\n      jump\t// out\n        /* \"#utility.yul\":1025:1151   */\n    tag_49:\n        /* \"#utility.yul\":1062:1069   */\n      0x00\n        /* \"#utility.yul\":1102:1144   */\n      0xffffffffffffffffffffffffffffffffffffffff\n        /* \"#utility.yul\":1095:1100   */\n      dup3\n        /* \"#utility.yul\":1091:1145   */\n      and\n        /* \"#utility.yul\":1080:1145   */\n      swap1\n      pop\n        /* \"#utility.yul\":1025:1151   */\n      swap2\n      swap1\n      pop\n      jump\t// out\n        /* \"#utility.yul\":1157:1253   */\n    tag_50:\n        /* \"#utility.yul\":1194:1201   */\n      0x00\n        /* \"#utility.yul\":1223:1247   */\n      tag_82\n        /* \"#utility.yul\":1241:1246   */\n      dup3\n        /* \"#utility.yul\":1223:1247   */\n      tag_49\n      jump\t// in\n    tag_82:\n        /* \"#utility.yul\":1212:1247   */\n      swap1\n      pop\n        /* \"#utility.yul\":1157:1253   */\n      swap2\n      swap1\n      pop\n      jump\t// out\n        /* \"#utility.yul\":1259:1377   */\n    tag_51:\n        /* \"#utility.yul\":1346:1370   */\n      tag_84\n        /* \"#utility.yul\":1364:1369   */\n      dup2\n        /* \"#utility.yul\":1346:1370   */\n      tag_50\n      jump\t// in\n    tag_84:\n        /* \"#utility.yul\":1341:1344   */\n      dup3\n        /* \"#utility.yul\":1334:1371   */\n      mstore\n        /* \"#utility.yul\":1259:1377   */\n      pop\n      pop\n      jump\t// out\n        /* \"#utility.yul\":1383:1501   */\n    tag_52:\n        /* \"#utility.yul\":1470:1494   */\n      tag_86\n        /* \"#utility.yul\":1488:1493   */\n      dup2\n        /* \"#utility.yul\":1470:1494   */\n      tag_46\n      jump\t// in\n    tag_86:\n        /* \"#utility.yul\":1465:1468   */\n      dup3\n        /* \"#utility.yul\":1458:1495   */\n      mstore\n        /* \"#utility.yul\":1383:1501   */\n      pop\n      pop\n      jump\t// out\n        /* \"#utility.yul\":1507:1949   */\n    tag_13:\n        /* \"#utility.yul\":1656:1660   */\n      0x00\n        /* \"#utility.yul\":1694:1696   */\n      0x60\n        /* \"#utility.yul\":1683:1692   */\n      dup3\n        /* \"#utility.yul\":1679:1697   */\n      add\n        /* \"#utility.yul\":1671:1697   */\n      swap1\n      pop\n        /* \"#utility.yul\":1707:1778   */\n      tag_88\n        /* \"#utility.yul\":1775:1776   */\n      0x00\n        /* \"#utility.yul\":1764:1773   */\n      dup4\n        /* \"#utility.yul\":1760:1777   */\n      add\n        /* \"#utility.yul\":1751:1757   */\n      dup7\n        /* \"#utility.yul\":1707:1778   */\n      tag_51\n      jump\t// in\n    tag_88:\n        /* \"#utility.yul\":1788:1860   */\n      tag_89\n        /* \"#utility.yul\":1856:1858   */\n      0x20\n        /* \"#utility.yul\":1845:1854   */\n      dup4\n        /* \"#utility.yul\":1841:1859   */\n      add\n        /* \"#utility.yul\":1832:1838   */\n      dup6\n        /* \"#utility.yul\":1788:1860   */\n      tag_52\n      jump\t// in\n    tag_89:\n        /* \"#utility.yul\":1870:1942   */\n      tag_90\n        /* \"#utility.yul\":1938:1940   */\n      0x40\n        /* \"#utility.yul\":1927:1936   */\n      dup4\n        /* \"#utility.yul\":1923:1941   */\n      add\n        /* \"#utility.yul\":1914:1920   */\n      dup5\n        /* \"#utility.yul\":1870:1942   */\n      tag_52\n      jump\t// in\n    tag_90:\n        /* \"#utility.yul\":1507:1949   */\n      swap5\n      swap4\n      pop\n      pop\n      pop\n      pop\n      jump\t// out\n        /* \"#utility.yul\":1955:2077   */\n    tag_53:\n        /* \"#utility.yul\":2028:2052   */\n      tag_92\n        /* \"#utility.yul\":2046:2051   */\n      dup2\n        /* \"#utility.yul\":2028:2052   */\n      tag_50\n      jump\t// in\n    tag_92:\n        /* \"#utility.yul\":2021:2026   */\n      dup2\n        /* \"#utility.yul\":2018:2053   */\n      eq\n        /* \"#utility.yul\":2008:2071   */\n      tag_93\n      jumpi\n        /* \"#utility.yul\":2067:2068   */\n      0x00\n        /* \"#utility.yul\":2064:2065   */\n      0x00\n        /* \"#utility.yul\":2057:2069   */\n      revert\n        /* \"#utility.yul\":2008:2071   */\n    tag_93:\n        /* \"#utility.yul\":1955:2077   */\n      pop\n      jump\t// out\n        /* \"#utility.yul\":2083:2222   */\n    tag_54:\n        /* \"#utility.yul\":2129:2134   */\n      0x00\n        /* \"#utility.yul\":2167:2173   */\n      dup2\n        /* \"#utility.yul\":2154:2174   */\n      calldataload\n        /* \"#utility.yul\":2145:2174   */\n      swap1\n      pop\n        /* \"#utility.yul\":2183:2216   */\n      tag_95\n        /* \"#utility.yul\":2210:2215   */\n      dup2\n        /* \"#utility.yul\":2183:2216   */\n      tag_53\n      jump\t// in\n    tag_95:\n        /* \"#utility.yul\":2083:2222   */\n      swap3\n      swap2\n      pop\n      pop\n      jump\t// out\n        /* \"#utility.yul\":2228:2557   */\n    tag_16:\n        /* \"#utility.yul\":2287:2293   */\n      0x00\n        /* \"#utility.yul\":2336:2338   */\n      0x20\n        /* \"#utility.yul\":2324:2333   */\n      dup3\n        /* \"#utility.yul\":2315:2322   */\n      dup5\n        /* \"#utility.yul\":2311:2334   */\n      sub\n        /* \"#utility.yul\":2307:2339   */\n      slt\n        /* \"#utility.yul\":2304:2423   */\n      iszero\n      tag_97\n      jumpi\n        /* \"#utility.yul\":2342:2421   */\n      tag_98\n      tag_44\n      jump\t// in\n    tag_98:\n        /* \"#utility.yul\":2304:2423   */\n    tag_97:\n        /* \"#utility.yul\":2462:2463   */\n      0x00\n        /* \"#utility.yul\":2487:2540   */\n      tag_99\n        /* \"#utility.yul\":2532:2539   */\n      dup5\n        /* \"#utility.yul\":2523:2529   */\n      dup3\n        /* \"#utility.yul\":2512:2521   */\n      dup6\n        /* \"#utility.yul\":2508:2530   */\n      add\n        /* \"#utility.yul\":2487:2540   */\n      tag_54\n      jump\t// in\n    tag_99:\n        /* \"#utility.yul\":2477:2540   */\n      swap2\n      pop\n        /* \"#utility.yul\":2433:2550   */\n      pop\n        /* \"#utility.yul\":2228:2557   */\n      swap3\n      swap2\n      pop\n      pop\n      jump\t// out\n        /* \"#utility.yul\":2563:2785   */\n    tag_25:\n        /* \"#utility.yul\":2656:2660   */\n      0x00\n        /* \"#utility.yul\":2694:2696   */\n      0x20\n        /* \"#utility.yul\":2683:2692   */\n      dup3\n        /* \"#utility.yul\":2679:2697   */\n      add\n        /* \"#utility.yul\":2671:2697   */\n      swap1\n      pop\n        /* \"#utility.yul\":2707:2778   */\n      tag_101\n        /* \"#utility.yul\":2775:2776   */\n      0x00\n        /* \"#utility.yul\":2764:2773   */\n      dup4\n        /* \"#utility.yul\":2760:2777   */\n      add\n        /* \"#utility.yul\":2751:2757   */\n      dup5\n        /* \"#utility.yul\":2707:2778   */\n      tag_52\n      jump\t// in\n    tag_101:\n        /* \"#utility.yul\":2563:2785   */\n      swap3\n      swap2\n      pop\n      pop\n      jump\t// out\n        /* \"#utility.yul\":2791:2971   */\n    tag_55:\n        /* \"#utility.yul\":2839:2916   */\n      0x4e487b7100000000000000000000000000000000000000000000000000000000\n        /* \"#utility.yul\":2836:2837   */\n      0x00\n        /* \"#utility.yul\":2829:2917   */\n      mstore\n        /* \"#utility.yul\":2936:2940   */\n      0x11\n        /* \"#utility.yul\":2933:2934   */\n      0x04\n        /* \"#utility.yul\":2926:2941   */\n      mstore\n        /* \"#utility.yul\":2960:2964   */\n      0x24\n        /* \"#utility.yul\":2957:2958   */\n      0x00\n        /* \"#utility.yul\":2950:2965   */\n      revert\n        /* \"#utility.yul\":2977:3168   */\n    tag_32:\n        /* \"#utility.yul\":3017:3020   */\n      0x00\n        /* \"#utility.yul\":3036:3056   */\n      tag_104\n        /* \"#utility.yul\":3054:3055   */\n      dup3\n        /* \"#utility.yul\":3036:3056   */\n      tag_46\n      jump\t// in\n    tag_104:\n        /* \"#utility.yul\":3031:3056   */\n      swap2\n      pop\n        /* \"#utility.yul\":3070:3090   */\n      tag_105\n        /* \"#utility.yul\":3088:3089   */\n      dup4\n        /* \"#utility.yul\":3070:3090   */\n      tag_46\n      jump\t// in\n    tag_105:\n        /* \"#utility.yul\":3065:3090   */\n      swap3\n      pop\n        /* \"#utility.yul\":3113:3114   */\n      dup3\n        /* \"#utility.yul\":3110:3111   */\n      dup3\n        /* \"#utility.yul\":3106:3115   */\n      add\n        /* \"#utility.yul\":3099:3115   */\n      swap1\n      pop\n        /* \"#utility.yul\":3134:3137   */\n      dup1\n        /* \"#utility.yul\":3131:3132   */\n      dup3\n        /* \"#utility.yul\":3128:3138   */\n      gt\n        /* \"#utility.yul\":3125:3161   */\n      iszero\n      tag_106\n      jumpi\n        /* \"#utility.yul\":3141:3159   */\n      tag_107\n      tag_55\n      jump\t// in\n    tag_107:\n        /* \"#utility.yul\":3125:3161   */\n    tag_106:\n        /* \"#utility.yul\":2977:3168   */\n      swap3\n      swap2\n      pop\n      pop\n      jump\t// out\n        /* \"#utility.yul\":3174:3343   */\n    tag_56:\n        /* \"#utility.yul\":3258:3269   */\n      0x00\n        /* \"#utility.yul\":3292:3298   */\n      dup3\n        /* \"#utility.yul\":3287:3290   */\n      dup3\n        /* \"#utility.yul\":3280:3299   */\n      mstore\n        /* \"#utility.yul\":3332:3336   */\n      0x20\n        /* \"#utility.yul\":3327:3330   */\n      dup3\n        /* \"#utility.yul\":3323:3337   */\n      add\n        /* \"#utility.yul\":3308:3337   */\n      swap1\n      pop\n        /* \"#utility.yul\":3174:3343   */\n      swap3\n      swap2\n      pop\n      pop\n      jump\t// out\n        /* \"#utility.yul\":3349:3523   */\n    tag_57:\n        /* \"#utility.yul\":3489:3515   */\n      0x596f75206d616465207468652077726f6e672067756573730000000000000000\n        /* \"#utility.yul\":3485:3486   */\n      0x00\n        /* \"#utility.yul\":3477:3483   */\n      dup3\n        /* \"#utility.yul\":3473:3487   */\n      add\n        /* \"#utility.yul\":3466:3516   */\n      mstore\n        /* \"#utility.yul\":3349:3523   */\n      pop\n      jump\t// out\n        /* \"#utility.yul\":3529:3895   */\n    tag_58:\n        /* \"#utility.yul\":3671:3674   */\n      0x00\n        /* \"#utility.yul\":3692:3759   */\n      tag_111\n        /* \"#utility.yul\":3756:3758   */\n      0x18\n        /* \"#utility.yul\":3751:3754   */\n      dup4\n        /* \"#utility.yul\":3692:3759   */\n      tag_56\n      jump\t// in\n    tag_111:\n        /* \"#utility.yul\":3685:3759   */\n      swap2\n      pop\n        /* \"#utility.yul\":3768:3861   */\n      tag_112\n        /* \"#utility.yul\":3857:3860   */\n      dup3\n        /* \"#utility.yul\":3768:3861   */\n      tag_57\n      jump\t// in\n    tag_112:\n        /* \"#utility.yul\":3886:3888   */\n      0x20\n        /* \"#utility.yul\":3881:3884   */\n      dup3\n        /* \"#utility.yul\":3877:3889   */\n      add\n        /* \"#utility.yul\":3870:3889   */\n      swap1\n      pop\n        /* \"#utility.yul\":3529:3895   */\n      swap2\n      swap1\n      pop\n      jump\t// out\n        /* \"#utility.yul\":3901:4320   */\n    tag_35:\n        /* \"#utility.yul\":4067:4071   */\n      0x00\n        /* \"#utility.yul\":4105:4107   */\n      0x20\n        /* \"#utility.yul\":4094:4103   */\n      dup3\n        /* \"#utility.yul\":4090:4108   */\n      add\n        /* \"#utility.yul\":4082:4108   */\n      swap1\n      pop\n        /* \"#utility.yul\":4154:4163   */\n      dup2\n        /* \"#utility.yul\":4148:4152   */\n      dup2\n        /* \"#utility.yul\":4144:4164   */\n      sub\n        /* \"#utility.yul\":4140:4141   */\n      0x00\n        /* \"#utility.yul\":4129:4138   */\n      dup4\n        /* \"#utility.yul\":4125:4142   */\n      add\n        /* \"#utility.yul\":4118:4165   */\n      mstore\n        /* \"#utility.yul\":4182:4313   */\n      tag_114\n        /* \"#utility.yul\":4308:4312   */\n      dup2\n        /* \"#utility.yul\":4182:4313   */\n      tag_58\n      jump\t// in\n    tag_114:\n        /* \"#utility.yul\":4174:4313   */\n      swap1\n      pop\n        /* \"#utility.yul\":3901:4320   */\n      swap2\n      swap1\n      pop\n      jump\t// out\n        /* \"#utility.yul\":4326:4405   */\n    tag_59:\n        /* \"#utility.yul\":4365:4372   */\n      0x00\n        /* \"#utility.yul\":4394:4399   */\n      dup2\n        /* \"#utility.yul\":4383:4399   */\n      swap1\n      pop\n        /* \"#utility.yul\":4326:4405   */\n      swap2\n      swap1\n      pop\n      jump\t// out\n        /* \"#utility.yul\":4411:4568   */\n    tag_60:\n        /* \"#utility.yul\":4516:4561   */\n      tag_117\n        /* \"#utility.yul\":4536:4560   */\n      tag_118\n        /* \"#utility.yul\":4554:4559   */\n      dup3\n        /* \"#utility.yul\":4536:4560   */\n      tag_46\n      jump\t// in\n    tag_118:\n        /* \"#utility.yul\":4516:4561   */\n      tag_59\n      jump\t// in\n    tag_117:\n        /* \"#utility.yul\":4511:4514   */\n      dup3\n        /* \"#utility.yul\":4504:4562   */\n      mstore\n        /* \"#utility.yul\":4411:4568   */\n      pop\n      pop\n      jump\t// out\n        /* \"#utility.yul\":4574:4668   */\n    tag_61:\n        /* \"#utility.yul\":4607:4615   */\n      0x00\n        /* \"#utility.yul\":4655:4660   */\n      dup2\n        /* \"#utility.yul\":4651:4653   */\n      0x60\n        /* \"#utility.yul\":4647:4661   */\n      shl\n        /* \"#utility.yul\":4626:4661   */\n      swap1\n      pop\n        /* \"#utility.yul\":4574:4668   */\n      swap2\n      swap1\n      pop\n      jump\t// out\n        /* \"#utility.yul\":4674:4768   */\n    tag_62:\n        /* \"#utility.yul\":4713:4720   */\n      0x00\n        /* \"#utility.yul\":4742:4762   */\n      tag_121\n        /* \"#utility.yul\":4756:4761   */\n      dup3\n        /* \"#utility.yul\":4742:4762   */\n      tag_61\n      jump\t// in\n    tag_121:\n        /* \"#utility.yul\":4731:4762   */\n      swap1\n      pop\n        /* \"#utility.yul\":4674:4768   */\n      swap2\n      swap1\n      pop\n      jump\t// out\n        /* \"#utility.yul\":4774:4874   */\n    tag_63:\n        /* \"#utility.yul\":4813:4820   */\n      0x00\n        /* \"#utility.yul\":4842:4868   */\n      tag_123\n        /* \"#utility.yul\":4862:4867   */\n      dup3\n        /* \"#utility.yul\":4842:4868   */\n      tag_62\n      jump\t// in\n    tag_123:\n        /* \"#utility.yul\":4831:4868   */\n      swap1\n      pop\n        /* \"#utility.yul\":4774:4874   */\n      swap2\n      swap1\n      pop\n      jump\t// out\n        /* \"#utility.yul\":4880:5037   */\n    tag_64:\n        /* \"#utility.yul\":4985:5030   */\n      tag_125\n        /* \"#utility.yul\":5005:5029   */\n      tag_126\n        /* \"#utility.yul\":5023:5028   */\n      dup3\n        /* \"#utility.yul\":5005:5029   */\n      tag_50\n      jump\t// in\n    tag_126:\n        /* \"#utility.yul\":4985:5030   */\n      tag_63\n      jump\t// in\n    tag_125:\n        /* \"#utility.yul\":4980:4983   */\n      dup3\n        /* \"#utility.yul\":4973:5031   */\n      mstore\n        /* \"#utility.yul\":4880:5037   */\n      pop\n      pop\n      jump\t// out\n        /* \"#utility.yul\":5043:5581   */\n    tag_40:\n        /* \"#utility.yul\":5211:5214   */\n      0x00\n        /* \"#utility.yul\":5226:5301   */\n      tag_128\n        /* \"#utility.yul\":5297:5300   */\n      dup3\n        /* \"#utility.yul\":5288:5294   */\n      dup7\n        /* \"#utility.yul\":5226:5301   */\n      tag_60\n      jump\t// in\n    tag_128:\n        /* \"#utility.yul\":5326:5328   */\n      0x20\n        /* \"#utility.yul\":5321:5324   */\n      dup3\n        /* \"#utility.yul\":5317:5329   */\n      add\n        /* \"#utility.yul\":5310:5329   */\n      swap2\n      pop\n        /* \"#utility.yul\":5339:5414   */\n      tag_129\n        /* \"#utility.yul\":5410:5413   */\n      dup3\n        /* \"#utility.yul\":5401:5407   */\n      dup6\n        /* \"#utility.yul\":5339:5414   */\n      tag_60\n      jump\t// in\n    tag_129:\n        /* \"#utility.yul\":5439:5441   */\n      0x20\n        /* \"#utility.yul\":5434:5437   */\n      dup3\n        /* \"#utility.yul\":5430:5442   */\n      add\n        /* \"#utility.yul\":5423:5442   */\n      swap2\n      pop\n        /* \"#utility.yul\":5452:5527   */\n      tag_130\n        /* \"#utility.yul\":5523:5526   */\n      dup3\n        /* \"#utility.yul\":5514:5520   */\n      dup5\n        /* \"#utility.yul\":5452:5527   */\n      tag_64\n      jump\t// in\n    tag_130:\n        /* \"#utility.yul\":5552:5554   */\n      0x14\n        /* \"#utility.yul\":5547:5550   */\n      dup3\n        /* \"#utility.yul\":5543:5555   */\n      add\n        /* \"#utility.yul\":5536:5555   */\n      swap2\n      pop\n        /* \"#utility.yul\":5572:5575   */\n      dup2\n        /* \"#utility.yul\":5565:5575   */\n      swap1\n      pop\n        /* \"#utility.yul\":5043:5581   */\n      swap5\n      swap4\n      pop\n      pop\n      pop\n      pop\n      jump\t// out\n        /* \"#utility.yul\":5587:5767   */\n    tag_65:\n        /* \"#utility.yul\":5635:5712   */\n      0x4e487b7100000000000000000000000000000000000000000000000000000000\n        /* \"#utility.yul\":5632:5633   */\n      0x00\n        /* \"#utility.yul\":5625:5713   */\n      mstore\n        /* \"#utility.yul\":5732:5736   */\n      0x12\n        /* \"#utility.yul\":5729:5730   */\n      0x04\n        /* \"#utility.yul\":5722:5737   */\n      mstore\n        /* \"#utility.yul\":5756:5760   */\n      0x24\n        /* \"#utility.yul\":5753:5754   */\n      0x00\n        /* \"#utility.yul\":5746:5761   */\n      revert\n        /* \"#utility.yul\":5773:5949   */\n    tag_42:\n        /* \"#utility.yul\":5805:5806   */\n      0x00\n        /* \"#utility.yul\":5822:5842   */\n      tag_133\n        /* \"#utility.yul\":5840:5841   */\n      dup3\n        /* \"#utility.yul\":5822:5842   */\n      tag_46\n      jump\t// in\n    tag_133:\n        /* \"#utility.yul\":5817:5842   */\n      swap2\n      pop\n        /* \"#utility.yul\":5856:5876   */\n      tag_134\n        /* \"#utility.yul\":5874:5875   */\n      dup4\n        /* \"#utility.yul\":5856:5876   */\n      tag_46\n      jump\t// in\n    tag_134:\n        /* \"#utility.yul\":5851:5876   */\n      swap3\n      pop\n        /* \"#utility.yul\":5895:5896   */\n      dup3\n        /* \"#utility.yul\":5885:5920   */\n      tag_135\n      jumpi\n        /* \"#utility.yul\":5900:5918   */\n      tag_136\n      tag_65\n      jump\t// in\n    tag_136:\n        /* \"#utility.yul\":5885:5920   */\n    tag_135:\n        /* \"#utility.yul\":5941:5942   */\n      dup3\n        /* \"#utility.yul\":5938:5939   */\n      dup3\n        /* \"#utility.yul\":5934:5943   */\n      mod\n        /* \"#utility.yul\":5929:5943   */\n      swap1\n      pop\n        /* \"#utility.yul\":5773:5949   */\n      swap3\n      swap2\n      pop\n      pop\n      jump\t// out\n\n    auxdata: 0xa26469706673582212201e1be0036aeebd0d0cc2e69d5bbd5452c0dc7416b475ab29eb706fb11399525164736f6c634300081e0033\n}\n",
				"bytecode": {
					"linkReferences": {},
					"object": "6080604052348015600e575f5ffd5b506107908061001c5f395ff3fe608060405234801561000f575f5ffd5b5060043610610055575f3560e01c80630544ce5e146100595780635d0eaaaf1461008b5780636898f82b146100bd57806385b7df02146100d9578063eea760b3146100f7575b5f5ffd5b610073600480360381019061006e9190610468565b610101565b604051610082939291906104e1565b60405180910390f35b6100a560048036038101906100a09190610540565b610155565b6040516100b4939291906104e1565b60405180910390f35b6100d760048036038101906100d29190610468565b61019a565b005b6100e16103e7565b6040516100ee919061056b565b60405180910390f35b6100ff6103ec565b005b60028181548110610110575f80fd5b905f5260205f2090600302015f91509050805f015f9054906101000a900473ffffffffffffffffffffffffffffffffffffffff16908060010154908060020154905083565b6001602052805f5260405f205f91509050805f015f9054906101000a900473ffffffffffffffffffffffffffffffffffffffff16908060010154908060020154905083565b3360015f3373ffffffffffffffffffffffffffffffffffffffff1673ffffffffffffffffffffffffffffffffffffffff1681526020019081526020015f205f015f6101000a81548173ffffffffffffffffffffffffffffffffffffffff021916908373ffffffffffffffffffffffffffffffffffffffff1602179055506001805f3373ffffffffffffffffffffffffffffffffffffffff1673ffffffffffffffffffffffffffffffffffffffff1681526020019081526020015f206001015f82825461026691906105b1565b925050819055505f5481146102b0576040517f08c379a00000000000000000000000000000000000000000000000000000000081526004016102a79061063e565b60405180910390fd5b6001805f3373ffffffffffffffffffffffffffffffffffffffff1673ffffffffffffffffffffffffffffffffffffffff1681526020019081526020015f206002015f8282546102ff91906105b1565b92505081905550600260015f3373ffffffffffffffffffffffffffffffffffffffff1673ffffffffffffffffffffffffffffffffffffffff1681526020019081526020015f20908060018154018082558091505060019003905f5260205f2090600302015f909190919091505f82015f9054906101000a900473ffffffffffffffffffffffffffffffffffffffff16815f015f6101000a81548173ffffffffffffffffffffffffffffffffffffffff021916908373ffffffffffffffffffffffffffffffffffffffff1602179055506001820154816001015560028201548160020155505050565b5f5481565b5f424433604051602001610402939291906106c1565b604051602081830303815290604052805190602001205f1c9050606481610429919061072a565b5f8190555050565b5f5ffd5b5f819050919050565b61044781610435565b8114610451575f5ffd5b50565b5f813590506104628161043e565b92915050565b5f6020828403121561047d5761047c610431565b5b5f61048a84828501610454565b91505092915050565b5f73ffffffffffffffffffffffffffffffffffffffff82169050919050565b5f6104bc82610493565b9050919050565b6104cc816104b2565b82525050565b6104db81610435565b82525050565b5f6060820190506104f45f8301866104c3565b61050160208301856104d2565b61050e60408301846104d2565b949350505050565b61051f816104b2565b8114610529575f5ffd5b50565b5f8135905061053a81610516565b92915050565b5f6020828403121561055557610554610431565b5b5f6105628482850161052c565b91505092915050565b5f60208201905061057e5f8301846104d2565b92915050565b7f4e487b71000000000000000000000000000000000000000000000000000000005f52601160045260245ffd5b5f6105bb82610435565b91506105c683610435565b92508282019050808211156105de576105dd610584565b5b92915050565b5f82825260208201905092915050565b7f596f75206d616465207468652077726f6e6720677565737300000000000000005f82015250565b5f6106286018836105e4565b9150610633826105f4565b602082019050919050565b5f6020820190508181035f8301526106558161061c565b9050919050565b5f819050919050565b61067661067182610435565b61065c565b82525050565b5f8160601b9050919050565b5f6106928261067c565b9050919050565b5f6106a382610688565b9050919050565b6106bb6106b6826104b2565b610699565b82525050565b5f6106cc8286610665565b6020820191506106dc8285610665565b6020820191506106ec82846106aa565b601482019150819050949350505050565b7f4e487b71000000000000000000000000000000000000000000000000000000005f52601260045260245ffd5b5f61073482610435565b915061073f83610435565b92508261074f5761074e6106fd565b5b82820690509291505056fea26469706673582212201e1be0036aeebd0d0cc2e69d5bbd5452c0dc7416b475ab29eb706fb11399525164736f6c634300081e0033",
					"opcodes": "PUSH1 0x80 PUSH1 0x40 MSTORE CALLVALUE DUP1 ISZERO PUSH1 0xE JUMPI PUSH0 PUSH0 REVERT JUMPDEST POP PUSH2 0x790 DUP1 PUSH2 0x1C PUSH0 CODECOPY PUSH0 RETURN INVALID PUSH1 0x80 PUSH1 0x40 MSTORE CALLVALUE DUP1 ISZERO PUSH2 0xF JUMPI PUSH0 PUSH0 REVERT JUMPDEST POP PUSH1 0x4 CALLDATASIZE LT PUSH2 0x55 JUMPI PUSH0 CALLDATALOAD PUSH1 0xE0 SHR DUP1 PUSH4 0x544CE5E EQ PUSH2 0x59 JUMPI DUP1 PUSH4 0x5D0EAAAF EQ PUSH2 0x8B JUMPI DUP1 PUSH4 0x6898F82B EQ PUSH2 0xBD JUMPI DUP1 PUSH4 0x85B7DF02 EQ PUSH2 0xD9 JUMPI DUP1 PUSH4 0xEEA760B3 EQ PUSH2 0xF7 JUMPI JUMPDEST PUSH0 PUSH0 REVERT JUMPDEST PUSH2 0x73 PUSH1 0x4 DUP1 CALLDATASIZE SUB DUP2 ADD SWAP1 PUSH2 0x6E SWAP2 SWAP1 PUSH2 0x468 JUMP JUMPDEST PUSH2 0x101 JUMP JUMPDEST PUSH1 0x40 MLOAD PUSH2 0x82 SWAP4 SWAP3 SWAP2 SWAP1 PUSH2 0x4E1 JUMP JUMPDEST PUSH1 0x40 MLOAD DUP1 SWAP2 SUB SWAP1 RETURN JUMPDEST PUSH2 0xA5 PUSH1 0x4 DUP1 CALLDATASIZE SUB DUP2 ADD SWAP1 PUSH2 0xA0 SWAP2 SWAP1 PUSH2 0x540 JUMP JUMPDEST PUSH2 0x155 JUMP JUMPDEST PUSH1 0x40 MLOAD PUSH2 0xB4 SWAP4 SWAP3 SWAP2 SWAP1 PUSH2 0x4E1 JUMP JUMPDEST PUSH1 0x40 MLOAD DUP1 SWAP2 SUB SWAP1 RETURN JUMPDEST PUSH2 0xD7 PUSH1 0x4 DUP1 CALLDATASIZE SUB DUP2 ADD SWAP1 PUSH2 0xD2 SWAP2 SWAP1 PUSH2 0x468 JUMP JUMPDEST PUSH2 0x19A JUMP JUMPDEST STOP JUMPDEST PUSH2 0xE1 PUSH2 0x3E7 JUMP JUMPDEST PUSH1 0x40 MLOAD PUSH2 0xEE SWAP2 SWAP1 PUSH2 0x56B JUMP JUMPDEST PUSH1 0x40 MLOAD DUP1 SWAP2 SUB SWAP1 RETURN JUMPDEST PUSH2 0xFF PUSH2 0x3EC JUMP JUMPDEST STOP JUMPDEST PUSH1 0x2 DUP2 DUP2 SLOAD DUP2 LT PUSH2 0x110 JUMPI PUSH0 DUP1 REVERT JUMPDEST SWAP1 PUSH0 MSTORE PUSH1 0x20 PUSH0 KECCAK256 SWAP1 PUSH1 0x3 MUL ADD PUSH0 SWAP2 POP SWAP1 POP DUP1 PUSH0 ADD PUSH0 SWAP1 SLOAD SWAP1 PUSH2 0x100 EXP SWAP1 DIV PUSH20 0xFFFFFFFFFFFFFFFFFFFFFFFFFFFFFFFFFFFFFFFF AND SWAP1 DUP1 PUSH1 0x1 ADD SLOAD SWAP1 DUP1 PUSH1 0x2 ADD SLOAD SWAP1 POP DUP4 JUMP JUMPDEST PUSH1 0x1 PUSH1 0x20 MSTORE DUP1 PUSH0 MSTORE PUSH1 0x40 PUSH0 KECCAK256 PUSH0 SWAP2 POP SWAP1 POP DUP1 PUSH0 ADD PUSH0 SWAP1 SLOAD SWAP1 PUSH2 0x100 EXP SWAP1 DIV PUSH20 0xFFFFFFFFFFFFFFFFFFFFFFFFFFFFFFFFFFFFFFFF AND SWAP1 DUP1 PUSH1 0x1 ADD SLOAD SWAP1 DUP1 PUSH1 0x2 ADD SLOAD SWAP1 POP DUP4 JUMP JUMPDEST CALLER PUSH1 0x1 PUSH0 CALLER PUSH20 0xFFFFFFFFFFFFFFFFFFFFFFFFFFFFFFFFFFFFFFFF AND PUSH20 0xFFFFFFFFFFFFFFFFFFFFFFFFFFFFFFFFFFFFFFFF AND DUP2 MSTORE PUSH1 0x20 ADD SWAP1 DUP2 MSTORE PUSH1 0x20 ADD PUSH0 KECCAK256 PUSH0 ADD PUSH0 PUSH2 0x100 EXP DUP2 SLOAD DUP2 PUSH20 0xFFFFFFFFFFFFFFFFFFFFFFFFFFFFFFFFFFFFFFFF MUL NOT AND SWAP1 DUP4 PUSH20 0xFFFFFFFFFFFFFFFFFFFFFFFFFFFFFFFFFFFFFFFF AND MUL OR SWAP1 SSTORE POP PUSH1 0x1 DUP1 PUSH0 CALLER PUSH20 0xFFFFFFFFFFFFFFFFFFFFFFFFFFFFFFFFFFFFFFFF AND PUSH20 0xFFFFFFFFFFFFFFFFFFFFFFFFFFFFFFFFFFFFFFFF AND DUP2 MSTORE PUSH1 0x20 ADD SWAP1 DUP2 MSTORE PUSH1 0x20 ADD PUSH0 KECCAK256 PUSH1 0x1 ADD PUSH0 DUP3 DUP3 SLOAD PUSH2 0x266 SWAP2 SWAP1 PUSH2 0x5B1 JUMP JUMPDEST SWAP3 POP POP DUP2 SWAP1 SSTORE POP PUSH0 SLOAD DUP2 EQ PUSH2 0x2B0 JUMPI PUSH1 0x40 MLOAD PUSH32 0x8C379A000000000000000000000000000000000000000000000000000000000 DUP2 MSTORE PUSH1 0x4 ADD PUSH2 0x2A7 SWAP1 PUSH2 0x63E JUMP JUMPDEST PUSH1 0x40 MLOAD DUP1 SWAP2 SUB SWAP1 REVERT JUMPDEST PUSH1 0x1 DUP1 PUSH0 CALLER PUSH20 0xFFFFFFFFFFFFFFFFFFFFFFFFFFFFFFFFFFFFFFFF AND PUSH20 0xFFFFFFFFFFFFFFFFFFFFFFFFFFFFFFFFFFFFFFFF AND DUP2 MSTORE PUSH1 0x20 ADD SWAP1 DUP2 MSTORE PUSH1 0x20 ADD PUSH0 KECCAK256 PUSH1 0x2 ADD PUSH0 DUP3 DUP3 SLOAD PUSH2 0x2FF SWAP2 SWAP1 PUSH2 0x5B1 JUMP JUMPDEST SWAP3 POP POP DUP2 SWAP1 SSTORE POP PUSH1 0x2 PUSH1 0x1 PUSH0 CALLER PUSH20 0xFFFFFFFFFFFFFFFFFFFFFFFFFFFFFFFFFFFFFFFF AND PUSH20 0xFFFFFFFFFFFFFFFFFFFFFFFFFFFFFFFFFFFFFFFF AND DUP2 MSTORE PUSH1 0x20 ADD SWAP1 DUP2 MSTORE PUSH1 0x20 ADD PUSH0 KECCAK256 SWAP1 DUP1 PUSH1 0x1 DUP2 SLOAD ADD DUP1 DUP3 SSTORE DUP1 SWAP2 POP POP PUSH1 0x1 SWAP1 SUB SWAP1 PUSH0 MSTORE PUSH1 0x20 PUSH0 KECCAK256 SWAP1 PUSH1 0x3 MUL ADD PUSH0 SWAP1 SWAP2 SWAP1 SWAP2 SWAP1 SWAP2 POP PUSH0 DUP3 ADD PUSH0 SWAP1 SLOAD SWAP1 PUSH2 0x100 EXP SWAP1 DIV PUSH20 0xFFFFFFFFFFFFFFFFFFFFFFFFFFFFFFFFFFFFFFFF AND DUP2 PUSH0 ADD PUSH0 PUSH2 0x100 EXP DUP2 SLOAD DUP2 PUSH20 0xFFFFFFFFFFFFFFFFFFFFFFFFFFFFFFFFFFFFFFFF MUL NOT AND SWAP1 DUP4 PUSH20 0xFFFFFFFFFFFFFFFFFFFFFFFFFFFFFFFFFFFFFFFF AND MUL OR SWAP1 SSTORE POP PUSH1 0x1 DUP3 ADD SLOAD DUP2 PUSH1 0x1 ADD SSTORE PUSH1 0x2 DUP3 ADD SLOAD DUP2 PUSH1 0x2 ADD SSTORE POP POP POP JUMP JUMPDEST PUSH0 SLOAD DUP2 JUMP JUMPDEST PUSH0 TIMESTAMP PREVRANDAO CALLER PUSH1 0x40 MLOAD PUSH1 0x20 ADD PUSH2 0x402 SWAP4 SWAP3 SWAP2 SWAP1 PUSH2 0x6C1 JUMP JUMPDEST PUSH1 0x40 MLOAD PUSH1 0x20 DUP2 DUP4 SUB SUB DUP2 MSTORE SWAP1 PUSH1 0x40 MSTORE DUP1 MLOAD SWAP1 PUSH1 0x20 ADD KECCAK256 PUSH0 SHR SWAP1 POP PUSH1 0x64 DUP2 PUSH2 0x429 SWAP2 SWAP1 PUSH2 0x72A JUMP JUMPDEST PUSH0 DUP2 SWAP1 SSTORE POP POP JUMP JUMPDEST PUSH0 PUSH0 REVERT JUMPDEST PUSH0 DUP2 SWAP1 POP SWAP2 SWAP1 POP JUMP JUMPDEST PUSH2 0x447 DUP2 PUSH2 0x435 JUMP JUMPDEST DUP2 EQ PUSH2 0x451 JUMPI PUSH0 PUSH0 REVERT JUMPDEST POP JUMP JUMPDEST PUSH0 DUP2 CALLDATALOAD SWAP1 POP PUSH2 0x462 DUP2 PUSH2 0x43E JUMP JUMPDEST SWAP3 SWAP2 POP POP JUMP JUMPDEST PUSH0 PUSH1 0x20 DUP3 DUP5 SUB SLT ISZERO PUSH2 0x47D JUMPI PUSH2 0x47C PUSH2 0x431 JUMP JUMPDEST JUMPDEST PUSH0 PUSH2 0x48A DUP5 DUP3 DUP6 ADD PUSH2 0x454 JUMP JUMPDEST SWAP2 POP POP SWAP3 SWAP2 POP POP JUMP JUMPDEST PUSH0 PUSH20 0xFFFFFFFFFFFFFFFFFFFFFFFFFFFFFFFFFFFFFFFF DUP3 AND SWAP1 POP SWAP2 SWAP1 POP JUMP JUMPDEST PUSH0 PUSH2 0x4BC DUP3 PUSH2 0x493 JUMP JUMPDEST SWAP1 POP SWAP2 SWAP1 POP JUMP JUMPDEST PUSH2 0x4CC DUP2 PUSH2 0x4B2 JUMP JUMPDEST DUP3 MSTORE POP POP JUMP JUMPDEST PUSH2 0x4DB DUP2 PUSH2 0x435 JUMP JUMPDEST DUP3 MSTORE POP POP JUMP JUMPDEST PUSH0 PUSH1 0x60 DUP3 ADD SWAP1 POP PUSH2 0x4F4 PUSH0 DUP4 ADD DUP7 PUSH2 0x4C3 JUMP JUMPDEST PUSH2 0x501 PUSH1 0x20 DUP4 ADD DUP6 PUSH2 0x4D2 JUMP JUMPDEST PUSH2 0x50E PUSH1 0x40 DUP4 ADD DUP5 PUSH2 0x4D2 JUMP JUMPDEST SWAP5 SWAP4 POP POP POP POP JUMP JUMPDEST PUSH2 0x51F DUP2 PUSH2 0x4B2 JUMP JUMPDEST DUP2 EQ PUSH2 0x529 JUMPI PUSH0 PUSH0 REVERT JUMPDEST POP JUMP JUMPDEST PUSH0 DUP2 CALLDATALOAD SWAP1 POP PUSH2 0x53A DUP2 PUSH2 0x516 JUMP JUMPDEST SWAP3 SWAP2 POP POP JUMP JUMPDEST PUSH0 PUSH1 0x20 DUP3 DUP5 SUB SLT ISZERO PUSH2 0x555 JUMPI PUSH2 0x554 PUSH2 0x431 JUMP JUMPDEST JUMPDEST PUSH0 PUSH2 0x562 DUP5 DUP3 DUP6 ADD PUSH2 0x52C JUMP JUMPDEST SWAP2 POP POP SWAP3 SWAP2 POP POP JUMP JUMPDEST PUSH0 PUSH1 0x20 DUP3 ADD SWAP1 POP PUSH2 0x57E PUSH0 DUP4 ADD DUP5 PUSH2 0x4D2 JUMP JUMPDEST SWAP3 SWAP2 POP POP JUMP JUMPDEST PUSH32 0x4E487B7100000000000000000000000000000000000000000000000000000000 PUSH0 MSTORE PUSH1 0x11 PUSH1 0x4 MSTORE PUSH1 0x24 PUSH0 REVERT JUMPDEST PUSH0 PUSH2 0x5BB DUP3 PUSH2 0x435 JUMP JUMPDEST SWAP2 POP PUSH2 0x5C6 DUP4 PUSH2 0x435 JUMP JUMPDEST SWAP3 POP DUP3 DUP3 ADD SWAP1 POP DUP1 DUP3 GT ISZERO PUSH2 0x5DE JUMPI PUSH2 0x5DD PUSH2 0x584 JUMP JUMPDEST JUMPDEST SWAP3 SWAP2 POP POP JUMP JUMPDEST PUSH0 DUP3 DUP3 MSTORE PUSH1 0x20 DUP3 ADD SWAP1 POP SWAP3 SWAP2 POP POP JUMP JUMPDEST PUSH32 0x596F75206D616465207468652077726F6E672067756573730000000000000000 PUSH0 DUP3 ADD MSTORE POP JUMP JUMPDEST PUSH0 PUSH2 0x628 PUSH1 0x18 DUP4 PUSH2 0x5E4 JUMP JUMPDEST SWAP2 POP PUSH2 0x633 DUP3 PUSH2 0x5F4 JUMP JUMPDEST PUSH1 0x20 DUP3 ADD SWAP1 POP SWAP2 SWAP1 POP JUMP JUMPDEST PUSH0 PUSH1 0x20 DUP3 ADD SWAP1 POP DUP2 DUP2 SUB PUSH0 DUP4 ADD MSTORE PUSH2 0x655 DUP2 PUSH2 0x61C JUMP JUMPDEST SWAP1 POP SWAP2 SWAP1 POP JUMP JUMPDEST PUSH0 DUP2 SWAP1 POP SWAP2 SWAP1 POP JUMP JUMPDEST PUSH2 0x676 PUSH2 0x671 DUP3 PUSH2 0x435 JUMP JUMPDEST PUSH2 0x65C JUMP JUMPDEST DUP3 MSTORE POP POP JUMP JUMPDEST PUSH0 DUP2 PUSH1 0x60 SHL SWAP1 POP SWAP2 SWAP1 POP JUMP JUMPDEST PUSH0 PUSH2 0x692 DUP3 PUSH2 0x67C JUMP JUMPDEST SWAP1 POP SWAP2 SWAP1 POP JUMP JUMPDEST PUSH0 PUSH2 0x6A3 DUP3 PUSH2 0x688 JUMP JUMPDEST SWAP1 POP SWAP2 SWAP1 POP JUMP JUMPDEST PUSH2 0x6BB PUSH2 0x6B6 DUP3 PUSH2 0x4B2 JUMP JUMPDEST PUSH2 0x699 JUMP JUMPDEST DUP3 MSTORE POP POP JUMP JUMPDEST PUSH0 PUSH2 0x6CC DUP3 DUP7 PUSH2 0x665 JUMP JUMPDEST PUSH1 0x20 DUP3 ADD SWAP2 POP PUSH2 0x6DC DUP3 DUP6 PUSH2 0x665 JUMP JUMPDEST PUSH1 0x20 DUP3 ADD SWAP2 POP PUSH2 0x6EC DUP3 DUP5 PUSH2 0x6AA JUMP JUMPDEST PUSH1 0x14 DUP3 ADD SWAP2 POP DUP2 SWAP1 POP SWAP5 SWAP4 POP POP POP POP JUMP JUMPDEST PUSH32 0x4E487B7100000000000000000000000000000000000000000000000000000000 PUSH0 MSTORE PUSH1 0x12 PUSH1 0x4 MSTORE PUSH1 0x24 PUSH0 REVERT JUMPDEST PUSH0 PUSH2 0x734 DUP3 PUSH2 0x435 JUMP JUMPDEST SWAP2 POP PUSH2 0x73F DUP4 PUSH2 0x435 JUMP JUMPDEST SWAP3 POP DUP3 PUSH2 0x74F JUMPI PUSH2 0x74E PUSH2 0x6FD JUMP JUMPDEST JUMPDEST DUP3 DUP3 MOD SWAP1 POP SWAP3 SWAP2 POP POP JUMP INVALID LOG2 PUSH5 0x6970667358 0x22 SLT KECCAK256 0x1E SHL RJUMP 0x36A RETURNCONTRACT 0xBD 0xD 0xC 0xC2 DUPN 0x9D JUMPDEST 0xBD SLOAD MSTORE 0xC0 0xDC PUSH21 0x16B475AB29EB706FB11399525164736F6C63430008 0x1E STOP CALLER "
				},
				"gasEstimates": {
					"creation": {
						"codeDepositCost": "387200",
						"executionCost": "422",
						"totalCost": "387622"
					},
					"external": {
						"allPlayers(uint256)": "infinite",
						"generateNum()": "infinite",
						"generatedNum()": "2468",
						"play(uint256)": "infinite",
						"usersInfo(address)": "infinite"
					}
				},
				"methodIdentifiers": {
					"allPlayers(uint256)": "0544ce5e",
					"generateNum()": "eea760b3",
					"generatedNum()": "85b7df02",
					"play(uint256)": "6898f82b",
					"usersInfo(address)": "5d0eaaaf"
				}
			},
			"storageLayout": {
				"storage": [
					{
						"astId": 3,
						"contract": "Build on Base/game.sol:GuessGame",
						"label": "generatedNum",
						"offset": 0,
						"slot": "0",
						"type": "t_uint256"
					},
					{
						"astId": 15,
						"contract": "Build on Base/game.sol:GuessGame",
						"label": "usersInfo",
						"offset": 0,
						"slot": "1",
						"type": "t_mapping(t_address,t_struct(User)10_storage)"
					},
					{
						"astId": 19,
						"contract": "Build on Base/game.sol:GuessGame",
						"label": "allPlayers",
						"offset": 0,
						"slot": "2",
						"type": "t_array(t_struct(User)10_storage)dyn_storage"
					}
				],
				"types": {
					"t_address": {
						"encoding": "inplace",
						"label": "address",
						"numberOfBytes": "20"
					},
					"t_array(t_struct(User)10_storage)dyn_storage": {
						"base": "t_struct(User)10_storage",
						"encoding": "dynamic_array",
						"label": "struct GuessGame.User[]",
						"numberOfBytes": "32"
					},
					"t_mapping(t_address,t_struct(User)10_storage)": {
						"encoding": "mapping",
						"key": "t_address",
						"label": "mapping(address => struct GuessGame.User)",
						"numberOfBytes": "32",
						"value": "t_struct(User)10_storage"
					},
					"t_struct(User)10_storage": {
						"encoding": "inplace",
						"label": "struct GuessGame.User",
						"members": [
							{
								"astId": 5,
								"contract": "Build on Base/game.sol:GuessGame",
								"label": "user",
								"offset": 0,
								"slot": "0",
								"type": "t_address"
							},
							{
								"astId": 7,
								"contract": "Build on Base/game.sol:GuessGame",
								"label": "guessCount",
								"offset": 0,
								"slot": "1",
								"type": "t_uint256"
							},
							{
								"astId": 9,
								"contract": "Build on Base/game.sol:GuessGame",
								"label": "amountWon",
								"offset": 0,
								"slot": "2",
								"type": "t_uint256"
							}
						],
						"numberOfBytes": "96"
					},
					"t_uint256": {
						"encoding": "inplace",
						"label": "uint256",
						"numberOfBytes": "32"
					}
				}
			},
			"userdoc": {
				"kind": "user",
				"methods": {},
				"version": 1
			}
		}
	}
}