{
	"DeVoting/vote.sol": {
		"Voting": {
			"abi": [
				{
					"inputs": [
						{
							"internalType": "uint256",
							"name": "x",
							"type": "uint256"
						}
					],
					"name": "cast",
					"outputs": [],
					"stateMutability": "nonpayable",
					"type": "function"
				},
				{
					"inputs": [],
					"name": "check",
					"outputs": [
						{
							"internalType": "bool",
							"name": "",
							"type": "bool"
						}
					],
					"stateMutability": "view",
					"type": "function"
				},
				{
					"inputs": [],
					"name": "getVoteCount",
					"outputs": [
						{
							"internalType": "uint256",
							"name": "",
							"type": "uint256"
						},
						{
							"internalType": "uint256",
							"name": "",
							"type": "uint256"
						},
						{
							"internalType": "uint256",
							"name": "",
							"type": "uint256"
						},
						{
							"internalType": "uint256",
							"name": "",
							"type": "uint256"
						}
					],
					"stateMutability": "view",
					"type": "function"
				},
				{
					"inputs": [
						{
							"internalType": "address",
							"name": "",
							"type": "address"
						}
					],
					"name": "hasVoted",
					"outputs": [
						{
							"internalType": "bool",
							"name": "",
							"type": "bool"
						}
					],
					"stateMutability": "view",
					"type": "function"
				},
				{
					"inputs": [],
					"name": "optA",
					"outputs": [
						{
							"internalType": "uint256",
							"name": "",
							"type": "uint256"
						}
					],
					"stateMutability": "view",
					"type": "function"
				},
				{
					"inputs": [],
					"name": "optB",
					"outputs": [
						{
							"internalType": "uint256",
							"name": "",
							"type": "uint256"
						}
					],
					"stateMutability": "view",
					"type": "function"
				},
				{
					"inputs": [],
					"name": "optC",
					"outputs": [
						{
							"internalType": "uint256",
							"name": "",
							"type": "uint256"
						}
					],
					"stateMutability": "view",
					"type": "function"
				},
				{
					"inputs": [],
					"name": "total",
					"outputs": [
						{
							"internalType": "uint256",
							"name": "",
							"type": "uint256"
						}
					],
					"stateMutability": "view",
					"type": "function"
				},
				{
					"inputs": [
						{
							"internalType": "uint256",
							"name": "",
							"type": "uint256"
						}
					],
					"name": "voters",
					"outputs": [
						{
							"internalType": "address",
							"name": "voter",
							"type": "address"
						},
						{
							"internalType": "enum Voting.Options",
							"name": "choice",
							"type": "uint8"
						}
					],
					"stateMutability": "view",
					"type": "function"
				}
			],
			"devdoc": {
				"kind": "dev",
				"methods": {},
				"version": 1
			},
			"evm": {
				"assembly": "    /* \"DeVoting/vote.sol\":57:1025  contract Voting {... */\n  mstore(0x40, 0x80)\n  callvalue\n  dup1\n  iszero\n  tag_1\n  jumpi\n  revert(0x00, 0x00)\ntag_1:\n  pop\n  dataSize(sub_0)\n  dup1\n  dataOffset(sub_0)\n  0x00\n  codecopy\n  0x00\n  return\nstop\n\nsub_0: assembly {\n        /* \"DeVoting/vote.sol\":57:1025  contract Voting {... */\n      mstore(0x40, 0x80)\n      callvalue\n      dup1\n      iszero\n      tag_1\n      jumpi\n      revert(0x00, 0x00)\n    tag_1:\n      pop\n      jumpi(tag_2, lt(calldatasize, 0x04))\n      shr(0xe0, calldataload(0x00))\n      dup1\n      0xa577cb2e\n      gt\n      tag_12\n      jumpi\n      dup1\n      0xa577cb2e\n      eq\n      tag_7\n      jumpi\n      dup1\n      0xcc2fa6ea\n      eq\n      tag_8\n      jumpi\n      dup1\n      0xda58c7d9\n      eq\n      tag_9\n      jumpi\n      dup1\n      0xe7b3387c\n      eq\n      tag_10\n      jumpi\n      dup1\n      0xeb5993f3\n      eq\n      tag_11\n      jumpi\n      jump(tag_2)\n    tag_12:\n      dup1\n      0x09eef43e\n      eq\n      tag_3\n      jumpi\n      dup1\n      0x2ddbd13a\n      eq\n      tag_4\n      jumpi\n      dup1\n      0x738198b4\n      eq\n      tag_5\n      jumpi\n      dup1\n      0x919840ad\n      eq\n      tag_6\n      jumpi\n    tag_2:\n      revert(0x00, 0x00)\n        /* \"DeVoting/vote.sol\":227:267  mapping(address => bool) public hasVoted */\n    tag_3:\n      tag_13\n      0x04\n      dup1\n      calldatasize\n      sub\n      dup2\n      add\n      swap1\n      tag_14\n      swap2\n      swap1\n      tag_15\n      jump\t// in\n    tag_14:\n      tag_16\n      jump\t// in\n    tag_13:\n      mload(0x40)\n      tag_17\n      swap2\n      swap1\n      tag_18\n      jump\t// in\n    tag_17:\n      mload(0x40)\n      dup1\n      swap2\n      sub\n      swap1\n      return\n        /* \"DeVoting/vote.sol\":145:162  uint public total */\n    tag_4:\n      tag_19\n      tag_20\n      jump\t// in\n    tag_19:\n      mload(0x40)\n      tag_21\n      swap2\n      swap1\n      tag_22\n      jump\t// in\n    tag_21:\n      mload(0x40)\n      dup1\n      swap2\n      sub\n      swap1\n      return\n        /* \"DeVoting/vote.sol\":377:790  function cast(uint x) public {... */\n    tag_5:\n      tag_23\n      0x04\n      dup1\n      calldatasize\n      sub\n      dup2\n      add\n      swap1\n      tag_24\n      swap2\n      swap1\n      tag_25\n      jump\t// in\n    tag_24:\n      tag_26\n      jump\t// in\n    tag_23:\n      stop\n        /* \"DeVoting/vote.sol\":920:1023  function check() public view returns (bool){... */\n    tag_6:\n      tag_27\n      tag_28\n      jump\t// in\n    tag_27:\n      mload(0x40)\n      tag_29\n      swap2\n      swap1\n      tag_18\n      jump\t// in\n    tag_29:\n      mload(0x40)\n      dup1\n      swap2\n      sub\n      swap1\n      return\n        /* \"DeVoting/vote.sol\":123:139  uint public optC */\n    tag_7:\n      tag_30\n      tag_31\n      jump\t// in\n    tag_30:\n      mload(0x40)\n      tag_32\n      swap2\n      swap1\n      tag_22\n      jump\t// in\n    tag_32:\n      mload(0x40)\n      dup1\n      swap2\n      sub\n      swap1\n      return\n        /* \"DeVoting/vote.sol\":79:95  uint public optA */\n    tag_8:\n      tag_33\n      tag_34\n      jump\t// in\n    tag_33:\n      mload(0x40)\n      tag_35\n      swap2\n      swap1\n      tag_22\n      jump\t// in\n    tag_35:\n      mload(0x40)\n      dup1\n      swap2\n      sub\n      swap1\n      return\n        /* \"DeVoting/vote.sol\":348:370  Voters[] public voters */\n    tag_9:\n      tag_36\n      0x04\n      dup1\n      calldatasize\n      sub\n      dup2\n      add\n      swap1\n      tag_37\n      swap2\n      swap1\n      tag_25\n      jump\t// in\n    tag_37:\n      tag_38\n      jump\t// in\n    tag_36:\n      mload(0x40)\n      tag_39\n      swap3\n      swap2\n      swap1\n      tag_40\n      jump\t// in\n    tag_39:\n      mload(0x40)\n      dup1\n      swap2\n      sub\n      swap1\n      return\n        /* \"DeVoting/vote.sol\":796:914  function getVoteCount() public view returns (uint, uint, uint, uint) {... */\n    tag_10:\n      tag_41\n      tag_42\n      jump\t// in\n    tag_41:\n      mload(0x40)\n      tag_43\n      swap5\n      swap4\n      swap3\n      swap2\n      swap1\n      tag_44\n      jump\t// in\n    tag_43:\n      mload(0x40)\n      dup1\n      swap2\n      sub\n      swap1\n      return\n        /* \"DeVoting/vote.sol\":101:117  uint public optB */\n    tag_11:\n      tag_45\n      tag_46\n      jump\t// in\n    tag_45:\n      mload(0x40)\n      tag_47\n      swap2\n      swap1\n      tag_22\n      jump\t// in\n    tag_47:\n      mload(0x40)\n      dup1\n      swap2\n      sub\n      swap1\n      return\n        /* \"DeVoting/vote.sol\":227:267  mapping(address => bool) public hasVoted */\n    tag_16:\n      mstore(0x20, 0x04)\n      dup1\n      0x00\n      mstore\n      keccak256(0x00, 0x40)\n      0x00\n      swap2\n      pop\n      sload\n      swap1\n      0x0100\n      exp\n      swap1\n      div\n      0xff\n      and\n      dup2\n      jump\t// out\n        /* \"DeVoting/vote.sol\":145:162  uint public total */\n    tag_20:\n      sload(0x03)\n      dup2\n      jump\t// out\n        /* \"DeVoting/vote.sol\":377:790  function cast(uint x) public {... */\n    tag_26:\n        /* \"DeVoting/vote.sol\":434:443  Options.C */\n      0x02\n        /* \"DeVoting/vote.sol\":429:444  uint(Options.C) */\n      dup1\n      dup2\n      gt\n      iszero\n      tag_49\n      jumpi\n      tag_50\n      tag_51\n      jump\t// in\n    tag_50:\n    tag_49:\n        /* \"DeVoting/vote.sol\":424:425  x */\n      dup2\n        /* \"DeVoting/vote.sol\":424:444  x <= uint(Options.C) */\n      gt\n      iszero\n        /* \"DeVoting/vote.sol\":416:463  require(x <= uint(Options.C), \"Invalid option\") */\n      tag_52\n      jumpi\n      mload(0x40)\n      0x08c379a000000000000000000000000000000000000000000000000000000000\n      dup2\n      mstore\n      0x04\n      add\n      tag_53\n      swap1\n      tag_54\n      jump\t// in\n    tag_53:\n      mload(0x40)\n      dup1\n      swap2\n      sub\n      swap1\n      revert\n    tag_52:\n        /* \"DeVoting/vote.sol\":474:488  Options choice */\n      0x00\n        /* \"DeVoting/vote.sol\":499:500  x */\n      dup2\n        /* \"DeVoting/vote.sol\":491:501  Options(x) */\n      0x02\n      dup2\n      gt\n      iszero\n      tag_55\n      jumpi\n      tag_56\n      tag_51\n      jump\t// in\n    tag_56:\n    tag_55:\n        /* \"DeVoting/vote.sol\":474:501  Options choice = Options(x) */\n      swap1\n      pop\n        /* \"DeVoting/vote.sol\":542:543  0 */\n      0x00\n        /* \"DeVoting/vote.sol\":534:544  Options(0) */\n      0x02\n      dup2\n      gt\n      iszero\n      tag_57\n      jumpi\n      tag_58\n      tag_51\n      jump\t// in\n    tag_58:\n    tag_57:\n        /* \"DeVoting/vote.sol\":524:544  choice == Options(0) */\n      0x02\n      dup2\n      gt\n      iszero\n      tag_59\n      jumpi\n      tag_60\n      tag_51\n      jump\t// in\n    tag_60:\n    tag_59:\n        /* \"DeVoting/vote.sol\":524:530  choice */\n      dup2\n        /* \"DeVoting/vote.sol\":524:544  choice == Options(0) */\n      0x02\n      dup2\n      gt\n      iszero\n      tag_61\n      jumpi\n      tag_62\n      tag_51\n      jump\t// in\n    tag_62:\n    tag_61:\n      sub\n        /* \"DeVoting/vote.sol\":520:712  if (choice == Options(0)) {... */\n      tag_63\n      jumpi\n        /* \"DeVoting/vote.sol\":568:569  1 */\n      0x01\n        /* \"DeVoting/vote.sol\":560:564  optA */\n      0x00\n      0x00\n        /* \"DeVoting/vote.sol\":560:569  optA += 1 */\n      dup3\n      dup3\n      sload\n      tag_64\n      swap2\n      swap1\n      tag_65\n      jump\t// in\n    tag_64:\n      swap3\n      pop\n      pop\n      dup2\n      swap1\n      sstore\n      pop\n        /* \"DeVoting/vote.sol\":520:712  if (choice == Options(0)) {... */\n      jump(tag_66)\n    tag_63:\n        /* \"DeVoting/vote.sol\":608:609  1 */\n      0x01\n        /* \"DeVoting/vote.sol\":600:610  Options(1) */\n      0x02\n      dup2\n      gt\n      iszero\n      tag_67\n      jumpi\n      tag_68\n      tag_51\n      jump\t// in\n    tag_68:\n    tag_67:\n        /* \"DeVoting/vote.sol\":590:610  choice == Options(1) */\n      0x02\n      dup2\n      gt\n      iszero\n      tag_69\n      jumpi\n      tag_70\n      tag_51\n      jump\t// in\n    tag_70:\n    tag_69:\n        /* \"DeVoting/vote.sol\":590:596  choice */\n      dup2\n        /* \"DeVoting/vote.sol\":590:610  choice == Options(1) */\n      0x02\n      dup2\n      gt\n      iszero\n      tag_71\n      jumpi\n      tag_72\n      tag_51\n      jump\t// in\n    tag_72:\n    tag_71:\n      sub\n        /* \"DeVoting/vote.sol\":586:712  if (choice == Options(1)) {... */\n      tag_73\n      jumpi\n        /* \"DeVoting/vote.sol\":634:635  1 */\n      0x01\n        /* \"DeVoting/vote.sol\":626:630  optB */\n      dup1\n      0x00\n        /* \"DeVoting/vote.sol\":626:635  optB += 1 */\n      dup3\n      dup3\n      sload\n      tag_74\n      swap2\n      swap1\n      tag_65\n      jump\t// in\n    tag_74:\n      swap3\n      pop\n      pop\n      dup2\n      swap1\n      sstore\n      pop\n        /* \"DeVoting/vote.sol\":586:712  if (choice == Options(1)) {... */\n      jump(tag_75)\n    tag_73:\n        /* \"DeVoting/vote.sol\":674:675  2 */\n      0x02\n        /* \"DeVoting/vote.sol\":666:676  Options(2) */\n      dup1\n      dup2\n      gt\n      iszero\n      tag_76\n      jumpi\n      tag_77\n      tag_51\n      jump\t// in\n    tag_77:\n    tag_76:\n        /* \"DeVoting/vote.sol\":656:676  choice == Options(2) */\n      0x02\n      dup2\n      gt\n      iszero\n      tag_78\n      jumpi\n      tag_79\n      tag_51\n      jump\t// in\n    tag_79:\n    tag_78:\n        /* \"DeVoting/vote.sol\":656:662  choice */\n      dup2\n        /* \"DeVoting/vote.sol\":656:676  choice == Options(2) */\n      0x02\n      dup2\n      gt\n      iszero\n      tag_80\n      jumpi\n      tag_81\n      tag_51\n      jump\t// in\n    tag_81:\n    tag_80:\n      sub\n        /* \"DeVoting/vote.sol\":652:712  if (choice == Options(2)) {... */\n      tag_82\n      jumpi\n        /* \"DeVoting/vote.sol\":700:701  1 */\n      0x01\n        /* \"DeVoting/vote.sol\":692:696  optC */\n      0x02\n      0x00\n        /* \"DeVoting/vote.sol\":692:701  optC += 1 */\n      dup3\n      dup3\n      sload\n      tag_83\n      swap2\n      swap1\n      tag_65\n      jump\t// in\n    tag_83:\n      swap3\n      pop\n      pop\n      dup2\n      swap1\n      sstore\n      pop\n        /* \"DeVoting/vote.sol\":652:712  if (choice == Options(2)) {... */\n    tag_82:\n        /* \"DeVoting/vote.sol\":586:712  if (choice == Options(1)) {... */\n    tag_75:\n        /* \"DeVoting/vote.sol\":520:712  if (choice == Options(0)) {... */\n    tag_66:\n        /* \"DeVoting/vote.sol\":753:757  true */\n      0x01\n        /* \"DeVoting/vote.sol\":730:738  hasVoted */\n      0x04\n        /* \"DeVoting/vote.sol\":730:750  hasVoted[msg.sender] */\n      0x00\n        /* \"DeVoting/vote.sol\":739:749  msg.sender */\n      caller\n        /* \"DeVoting/vote.sol\":730:750  hasVoted[msg.sender] */\n      0xffffffffffffffffffffffffffffffffffffffff\n      and\n      0xffffffffffffffffffffffffffffffffffffffff\n      and\n      dup2\n      mstore\n      0x20\n      add\n      swap1\n      dup2\n      mstore\n      0x20\n      add\n      0x00\n      keccak256\n      0x00\n        /* \"DeVoting/vote.sol\":730:757  hasVoted[msg.sender] = true */\n      0x0100\n      exp\n      dup2\n      sload\n      dup2\n      0xff\n      mul\n      not\n      and\n      swap1\n      dup4\n      iszero\n      iszero\n      mul\n      or\n      swap1\n      sstore\n      pop\n        /* \"DeVoting/vote.sol\":776:781  total */\n      0x03\n      0x00\n        /* \"DeVoting/vote.sol\":776:783  total++ */\n      dup2\n      sload\n      dup1\n      swap3\n      swap2\n      swap1\n      tag_84\n      swap1\n      tag_85\n      jump\t// in\n    tag_84:\n      swap2\n      swap1\n      pop\n      sstore\n      pop\n        /* \"DeVoting/vote.sol\":406:790  {... */\n      pop\n        /* \"DeVoting/vote.sol\":377:790  function cast(uint x) public {... */\n      pop\n      jump\t// out\n        /* \"DeVoting/vote.sol\":920:1023  function check() public view returns (bool){... */\n    tag_28:\n        /* \"DeVoting/vote.sol\":958:962  bool */\n      0x00\n        /* \"DeVoting/vote.sol\":991:999  hasVoted */\n      0x04\n        /* \"DeVoting/vote.sol\":991:1011  hasVoted[msg.sender] */\n      0x00\n        /* \"DeVoting/vote.sol\":1000:1010  msg.sender */\n      caller\n        /* \"DeVoting/vote.sol\":991:1011  hasVoted[msg.sender] */\n      0xffffffffffffffffffffffffffffffffffffffff\n      and\n      0xffffffffffffffffffffffffffffffffffffffff\n      and\n      dup2\n      mstore\n      0x20\n      add\n      swap1\n      dup2\n      mstore\n      0x20\n      add\n      0x00\n      keccak256\n      0x00\n      swap1\n      sload\n      swap1\n      0x0100\n      exp\n      swap1\n      div\n      0xff\n      and\n        /* \"DeVoting/vote.sol\":984:1011  return hasVoted[msg.sender] */\n      swap1\n      pop\n        /* \"DeVoting/vote.sol\":920:1023  function check() public view returns (bool){... */\n      swap1\n      jump\t// out\n        /* \"DeVoting/vote.sol\":123:139  uint public optC */\n    tag_31:\n      sload(0x02)\n      dup2\n      jump\t// out\n        /* \"DeVoting/vote.sol\":79:95  uint public optA */\n    tag_34:\n      sload(0x00)\n      dup2\n      jump\t// out\n        /* \"DeVoting/vote.sol\":348:370  Voters[] public voters */\n    tag_38:\n      0x05\n      dup2\n      dup2\n      sload\n      dup2\n      lt\n      tag_87\n      jumpi\n      0x00\n      dup1\n      revert\n    tag_87:\n      swap1\n      0x00\n      mstore\n      keccak256(0x00, 0x20)\n      add\n      0x00\n      swap2\n      pop\n      swap1\n      pop\n      dup1\n      0x00\n      add\n      0x00\n      swap1\n      sload\n      swap1\n      0x0100\n      exp\n      swap1\n      div\n      0xffffffffffffffffffffffffffffffffffffffff\n      and\n      swap1\n      dup1\n      0x00\n      add\n      0x14\n      swap1\n      sload\n      swap1\n      0x0100\n      exp\n      swap1\n      div\n      0xff\n      and\n      swap1\n      pop\n      dup3\n      jump\t// out\n        /* \"DeVoting/vote.sol\":796:914  function getVoteCount() public view returns (uint, uint, uint, uint) {... */\n    tag_42:\n        /* \"DeVoting/vote.sol\":841:845  uint */\n      0x00\n        /* \"DeVoting/vote.sol\":847:851  uint */\n      0x00\n        /* \"DeVoting/vote.sol\":853:857  uint */\n      0x00\n        /* \"DeVoting/vote.sol\":859:863  uint */\n      0x00\n        /* \"DeVoting/vote.sol\":883:887  optA */\n      sload(0x00)\n        /* \"DeVoting/vote.sol\":889:893  optB */\n      sload(0x01)\n        /* \"DeVoting/vote.sol\":895:899  optC */\n      sload(0x02)\n        /* \"DeVoting/vote.sol\":901:906  total */\n      sload(0x03)\n        /* \"DeVoting/vote.sol\":875:907  return (optA, optB, optC, total) */\n      swap4\n      pop\n      swap4\n      pop\n      swap4\n      pop\n      swap4\n      pop\n        /* \"DeVoting/vote.sol\":796:914  function getVoteCount() public view returns (uint, uint, uint, uint) {... */\n      swap1\n      swap2\n      swap3\n      swap4\n      jump\t// out\n        /* \"DeVoting/vote.sol\":101:117  uint public optB */\n    tag_46:\n      sload(0x01)\n      dup2\n      jump\t// out\n        /* \"#utility.yul\":88:205   */\n    tag_91:\n        /* \"#utility.yul\":197:198   */\n      0x00\n        /* \"#utility.yul\":194:195   */\n      0x00\n        /* \"#utility.yul\":187:199   */\n      revert\n        /* \"#utility.yul\":334:460   */\n    tag_93:\n        /* \"#utility.yul\":371:378   */\n      0x00\n        /* \"#utility.yul\":411:453   */\n      0xffffffffffffffffffffffffffffffffffffffff\n        /* \"#utility.yul\":404:409   */\n      dup3\n        /* \"#utility.yul\":400:454   */\n      and\n        /* \"#utility.yul\":389:454   */\n      swap1\n      pop\n        /* \"#utility.yul\":334:460   */\n      swap2\n      swap1\n      pop\n      jump\t// out\n        /* \"#utility.yul\":466:562   */\n    tag_94:\n        /* \"#utility.yul\":503:510   */\n      0x00\n        /* \"#utility.yul\":532:556   */\n      tag_118\n        /* \"#utility.yul\":550:555   */\n      dup3\n        /* \"#utility.yul\":532:556   */\n      tag_93\n      jump\t// in\n    tag_118:\n        /* \"#utility.yul\":521:556   */\n      swap1\n      pop\n        /* \"#utility.yul\":466:562   */\n      swap2\n      swap1\n      pop\n      jump\t// out\n        /* \"#utility.yul\":568:690   */\n    tag_95:\n        /* \"#utility.yul\":641:665   */\n      tag_120\n        /* \"#utility.yul\":659:664   */\n      dup2\n        /* \"#utility.yul\":641:665   */\n      tag_94\n      jump\t// in\n    tag_120:\n        /* \"#utility.yul\":634:639   */\n      dup2\n        /* \"#utility.yul\":631:666   */\n      eq\n        /* \"#utility.yul\":621:684   */\n      tag_121\n      jumpi\n        /* \"#utility.yul\":680:681   */\n      0x00\n        /* \"#utility.yul\":677:678   */\n      0x00\n        /* \"#utility.yul\":670:682   */\n      revert\n        /* \"#utility.yul\":621:684   */\n    tag_121:\n        /* \"#utility.yul\":568:690   */\n      pop\n      jump\t// out\n        /* \"#utility.yul\":696:835   */\n    tag_96:\n        /* \"#utility.yul\":742:747   */\n      0x00\n        /* \"#utility.yul\":780:786   */\n      dup2\n        /* \"#utility.yul\":767:787   */\n      calldataload\n        /* \"#utility.yul\":758:787   */\n      swap1\n      pop\n        /* \"#utility.yul\":796:829   */\n      tag_123\n        /* \"#utility.yul\":823:828   */\n      dup2\n        /* \"#utility.yul\":796:829   */\n      tag_95\n      jump\t// in\n    tag_123:\n        /* \"#utility.yul\":696:835   */\n      swap3\n      swap2\n      pop\n      pop\n      jump\t// out\n        /* \"#utility.yul\":841:1170   */\n    tag_15:\n        /* \"#utility.yul\":900:906   */\n      0x00\n        /* \"#utility.yul\":949:951   */\n      0x20\n        /* \"#utility.yul\":937:946   */\n      dup3\n        /* \"#utility.yul\":928:935   */\n      dup5\n        /* \"#utility.yul\":924:947   */\n      sub\n        /* \"#utility.yul\":920:952   */\n      slt\n        /* \"#utility.yul\":917:1036   */\n      iszero\n      tag_125\n      jumpi\n        /* \"#utility.yul\":955:1034   */\n      tag_126\n      tag_91\n      jump\t// in\n    tag_126:\n        /* \"#utility.yul\":917:1036   */\n    tag_125:\n        /* \"#utility.yul\":1075:1076   */\n      0x00\n        /* \"#utility.yul\":1100:1153   */\n      tag_127\n        /* \"#utility.yul\":1145:1152   */\n      dup5\n        /* \"#utility.yul\":1136:1142   */\n      dup3\n        /* \"#utility.yul\":1125:1134   */\n      dup6\n        /* \"#utility.yul\":1121:1143   */\n      add\n        /* \"#utility.yul\":1100:1153   */\n      tag_96\n      jump\t// in\n    tag_127:\n        /* \"#utility.yul\":1090:1153   */\n      swap2\n      pop\n        /* \"#utility.yul\":1046:1163   */\n      pop\n        /* \"#utility.yul\":841:1170   */\n      swap3\n      swap2\n      pop\n      pop\n      jump\t// out\n        /* \"#utility.yul\":1176:1266   */\n    tag_97:\n        /* \"#utility.yul\":1210:1217   */\n      0x00\n        /* \"#utility.yul\":1253:1258   */\n      dup2\n        /* \"#utility.yul\":1246:1259   */\n      iszero\n        /* \"#utility.yul\":1239:1260   */\n      iszero\n        /* \"#utility.yul\":1228:1260   */\n      swap1\n      pop\n        /* \"#utility.yul\":1176:1266   */\n      swap2\n      swap1\n      pop\n      jump\t// out\n        /* \"#utility.yul\":1272:1381   */\n    tag_98:\n        /* \"#utility.yul\":1353:1374   */\n      tag_130\n        /* \"#utility.yul\":1368:1373   */\n      dup2\n        /* \"#utility.yul\":1353:1374   */\n      tag_97\n      jump\t// in\n    tag_130:\n        /* \"#utility.yul\":1348:1351   */\n      dup3\n        /* \"#utility.yul\":1341:1375   */\n      mstore\n        /* \"#utility.yul\":1272:1381   */\n      pop\n      pop\n      jump\t// out\n        /* \"#utility.yul\":1387:1597   */\n    tag_18:\n        /* \"#utility.yul\":1474:1478   */\n      0x00\n        /* \"#utility.yul\":1512:1514   */\n      0x20\n        /* \"#utility.yul\":1501:1510   */\n      dup3\n        /* \"#utility.yul\":1497:1515   */\n      add\n        /* \"#utility.yul\":1489:1515   */\n      swap1\n      pop\n        /* \"#utility.yul\":1525:1590   */\n      tag_132\n        /* \"#utility.yul\":1587:1588   */\n      0x00\n        /* \"#utility.yul\":1576:1585   */\n      dup4\n        /* \"#utility.yul\":1572:1589   */\n      add\n        /* \"#utility.yul\":1563:1569   */\n      dup5\n        /* \"#utility.yul\":1525:1590   */\n      tag_98\n      jump\t// in\n    tag_132:\n        /* \"#utility.yul\":1387:1597   */\n      swap3\n      swap2\n      pop\n      pop\n      jump\t// out\n        /* \"#utility.yul\":1603:1680   */\n    tag_99:\n        /* \"#utility.yul\":1640:1647   */\n      0x00\n        /* \"#utility.yul\":1669:1674   */\n      dup2\n        /* \"#utility.yul\":1658:1674   */\n      swap1\n      pop\n        /* \"#utility.yul\":1603:1680   */\n      swap2\n      swap1\n      pop\n      jump\t// out\n        /* \"#utility.yul\":1686:1804   */\n    tag_100:\n        /* \"#utility.yul\":1773:1797   */\n      tag_135\n        /* \"#utility.yul\":1791:1796   */\n      dup2\n        /* \"#utility.yul\":1773:1797   */\n      tag_99\n      jump\t// in\n    tag_135:\n        /* \"#utility.yul\":1768:1771   */\n      dup3\n        /* \"#utility.yul\":1761:1798   */\n      mstore\n        /* \"#utility.yul\":1686:1804   */\n      pop\n      pop\n      jump\t// out\n        /* \"#utility.yul\":1810:2032   */\n    tag_22:\n        /* \"#utility.yul\":1903:1907   */\n      0x00\n        /* \"#utility.yul\":1941:1943   */\n      0x20\n        /* \"#utility.yul\":1930:1939   */\n      dup3\n        /* \"#utility.yul\":1926:1944   */\n      add\n        /* \"#utility.yul\":1918:1944   */\n      swap1\n      pop\n        /* \"#utility.yul\":1954:2025   */\n      tag_137\n        /* \"#utility.yul\":2022:2023   */\n      0x00\n        /* \"#utility.yul\":2011:2020   */\n      dup4\n        /* \"#utility.yul\":2007:2024   */\n      add\n        /* \"#utility.yul\":1998:2004   */\n      dup5\n        /* \"#utility.yul\":1954:2025   */\n      tag_100\n      jump\t// in\n    tag_137:\n        /* \"#utility.yul\":1810:2032   */\n      swap3\n      swap2\n      pop\n      pop\n      jump\t// out\n        /* \"#utility.yul\":2038:2160   */\n    tag_101:\n        /* \"#utility.yul\":2111:2135   */\n      tag_139\n        /* \"#utility.yul\":2129:2134   */\n      dup2\n        /* \"#utility.yul\":2111:2135   */\n      tag_99\n      jump\t// in\n    tag_139:\n        /* \"#utility.yul\":2104:2109   */\n      dup2\n        /* \"#utility.yul\":2101:2136   */\n      eq\n        /* \"#utility.yul\":2091:2154   */\n      tag_140\n      jumpi\n        /* \"#utility.yul\":2150:2151   */\n      0x00\n        /* \"#utility.yul\":2147:2148   */\n      0x00\n        /* \"#utility.yul\":2140:2152   */\n      revert\n        /* \"#utility.yul\":2091:2154   */\n    tag_140:\n        /* \"#utility.yul\":2038:2160   */\n      pop\n      jump\t// out\n        /* \"#utility.yul\":2166:2305   */\n    tag_102:\n        /* \"#utility.yul\":2212:2217   */\n      0x00\n        /* \"#utility.yul\":2250:2256   */\n      dup2\n        /* \"#utility.yul\":2237:2257   */\n      calldataload\n        /* \"#utility.yul\":2228:2257   */\n      swap1\n      pop\n        /* \"#utility.yul\":2266:2299   */\n      tag_142\n        /* \"#utility.yul\":2293:2298   */\n      dup2\n        /* \"#utility.yul\":2266:2299   */\n      tag_101\n      jump\t// in\n    tag_142:\n        /* \"#utility.yul\":2166:2305   */\n      swap3\n      swap2\n      pop\n      pop\n      jump\t// out\n        /* \"#utility.yul\":2311:2640   */\n    tag_25:\n        /* \"#utility.yul\":2370:2376   */\n      0x00\n        /* \"#utility.yul\":2419:2421   */\n      0x20\n        /* \"#utility.yul\":2407:2416   */\n      dup3\n        /* \"#utility.yul\":2398:2405   */\n      dup5\n        /* \"#utility.yul\":2394:2417   */\n      sub\n        /* \"#utility.yul\":2390:2422   */\n      slt\n        /* \"#utility.yul\":2387:2506   */\n      iszero\n      tag_144\n      jumpi\n        /* \"#utility.yul\":2425:2504   */\n      tag_145\n      tag_91\n      jump\t// in\n    tag_145:\n        /* \"#utility.yul\":2387:2506   */\n    tag_144:\n        /* \"#utility.yul\":2545:2546   */\n      0x00\n        /* \"#utility.yul\":2570:2623   */\n      tag_146\n        /* \"#utility.yul\":2615:2622   */\n      dup5\n        /* \"#utility.yul\":2606:2612   */\n      dup3\n        /* \"#utility.yul\":2595:2604   */\n      dup6\n        /* \"#utility.yul\":2591:2613   */\n      add\n        /* \"#utility.yul\":2570:2623   */\n      tag_102\n      jump\t// in\n    tag_146:\n        /* \"#utility.yul\":2560:2623   */\n      swap2\n      pop\n        /* \"#utility.yul\":2516:2633   */\n      pop\n        /* \"#utility.yul\":2311:2640   */\n      swap3\n      swap2\n      pop\n      pop\n      jump\t// out\n        /* \"#utility.yul\":2646:2764   */\n    tag_103:\n        /* \"#utility.yul\":2733:2757   */\n      tag_148\n        /* \"#utility.yul\":2751:2756   */\n      dup2\n        /* \"#utility.yul\":2733:2757   */\n      tag_94\n      jump\t// in\n    tag_148:\n        /* \"#utility.yul\":2728:2731   */\n      dup3\n        /* \"#utility.yul\":2721:2758   */\n      mstore\n        /* \"#utility.yul\":2646:2764   */\n      pop\n      pop\n      jump\t// out\n        /* \"#utility.yul\":2770:2950   */\n    tag_51:\n        /* \"#utility.yul\":2818:2895   */\n      0x4e487b7100000000000000000000000000000000000000000000000000000000\n        /* \"#utility.yul\":2815:2816   */\n      0x00\n        /* \"#utility.yul\":2808:2896   */\n      mstore\n        /* \"#utility.yul\":2915:2919   */\n      0x21\n        /* \"#utility.yul\":2912:2913   */\n      0x04\n        /* \"#utility.yul\":2905:2920   */\n      mstore\n        /* \"#utility.yul\":2939:2943   */\n      0x24\n        /* \"#utility.yul\":2936:2937   */\n      0x00\n        /* \"#utility.yul\":2929:2944   */\n      revert\n        /* \"#utility.yul\":2956:3071   */\n    tag_104:\n        /* \"#utility.yul\":3039:3040   */\n      0x03\n        /* \"#utility.yul\":3032:3037   */\n      dup2\n        /* \"#utility.yul\":3029:3041   */\n      lt\n        /* \"#utility.yul\":3019:3065   */\n      tag_151\n      jumpi\n        /* \"#utility.yul\":3045:3063   */\n      tag_152\n      tag_51\n      jump\t// in\n    tag_152:\n        /* \"#utility.yul\":3019:3065   */\n    tag_151:\n        /* \"#utility.yul\":2956:3071   */\n      pop\n      jump\t// out\n        /* \"#utility.yul\":3077:3208   */\n    tag_105:\n        /* \"#utility.yul\":3124:3131   */\n      0x00\n        /* \"#utility.yul\":3153:3158   */\n      dup2\n        /* \"#utility.yul\":3142:3158   */\n      swap1\n      pop\n        /* \"#utility.yul\":3159:3202   */\n      tag_154\n        /* \"#utility.yul\":3196:3201   */\n      dup3\n        /* \"#utility.yul\":3159:3202   */\n      tag_104\n      jump\t// in\n    tag_154:\n        /* \"#utility.yul\":3077:3208   */\n      swap2\n      swap1\n      pop\n      jump\t// out\n        /* \"#utility.yul\":3214:3345   */\n    tag_106:\n        /* \"#utility.yul\":3272:3281   */\n      0x00\n        /* \"#utility.yul\":3305:3339   */\n      tag_156\n        /* \"#utility.yul\":3333:3338   */\n      dup3\n        /* \"#utility.yul\":3305:3339   */\n      tag_105\n      jump\t// in\n    tag_156:\n        /* \"#utility.yul\":3292:3339   */\n      swap1\n      pop\n        /* \"#utility.yul\":3214:3345   */\n      swap2\n      swap1\n      pop\n      jump\t// out\n        /* \"#utility.yul\":3351:3498   */\n    tag_107:\n        /* \"#utility.yul\":3446:3491   */\n      tag_158\n        /* \"#utility.yul\":3485:3490   */\n      dup2\n        /* \"#utility.yul\":3446:3491   */\n      tag_106\n      jump\t// in\n    tag_158:\n        /* \"#utility.yul\":3441:3444   */\n      dup3\n        /* \"#utility.yul\":3434:3492   */\n      mstore\n        /* \"#utility.yul\":3351:3498   */\n      pop\n      pop\n      jump\t// out\n        /* \"#utility.yul\":3504:3852   */\n    tag_40:\n        /* \"#utility.yul\":3633:3637   */\n      0x00\n        /* \"#utility.yul\":3671:3673   */\n      0x40\n        /* \"#utility.yul\":3660:3669   */\n      dup3\n        /* \"#utility.yul\":3656:3674   */\n      add\n        /* \"#utility.yul\":3648:3674   */\n      swap1\n      pop\n        /* \"#utility.yul\":3684:3755   */\n      tag_160\n        /* \"#utility.yul\":3752:3753   */\n      0x00\n        /* \"#utility.yul\":3741:3750   */\n      dup4\n        /* \"#utility.yul\":3737:3754   */\n      add\n        /* \"#utility.yul\":3728:3734   */\n      dup6\n        /* \"#utility.yul\":3684:3755   */\n      tag_103\n      jump\t// in\n    tag_160:\n        /* \"#utility.yul\":3765:3845   */\n      tag_161\n        /* \"#utility.yul\":3841:3843   */\n      0x20\n        /* \"#utility.yul\":3830:3839   */\n      dup4\n        /* \"#utility.yul\":3826:3844   */\n      add\n        /* \"#utility.yul\":3817:3823   */\n      dup5\n        /* \"#utility.yul\":3765:3845   */\n      tag_107\n      jump\t// in\n    tag_161:\n        /* \"#utility.yul\":3504:3852   */\n      swap4\n      swap3\n      pop\n      pop\n      pop\n      jump\t// out\n        /* \"#utility.yul\":3858:4411   */\n    tag_44:\n        /* \"#utility.yul\":4035:4039   */\n      0x00\n        /* \"#utility.yul\":4073:4076   */\n      0x80\n        /* \"#utility.yul\":4062:4071   */\n      dup3\n        /* \"#utility.yul\":4058:4077   */\n      add\n        /* \"#utility.yul\":4050:4077   */\n      swap1\n      pop\n        /* \"#utility.yul\":4087:4158   */\n      tag_163\n        /* \"#utility.yul\":4155:4156   */\n      0x00\n        /* \"#utility.yul\":4144:4153   */\n      dup4\n        /* \"#utility.yul\":4140:4157   */\n      add\n        /* \"#utility.yul\":4131:4137   */\n      dup8\n        /* \"#utility.yul\":4087:4158   */\n      tag_100\n      jump\t// in\n    tag_163:\n        /* \"#utility.yul\":4168:4240   */\n      tag_164\n        /* \"#utility.yul\":4236:4238   */\n      0x20\n        /* \"#utility.yul\":4225:4234   */\n      dup4\n        /* \"#utility.yul\":4221:4239   */\n      add\n        /* \"#utility.yul\":4212:4218   */\n      dup7\n        /* \"#utility.yul\":4168:4240   */\n      tag_100\n      jump\t// in\n    tag_164:\n        /* \"#utility.yul\":4250:4322   */\n      tag_165\n        /* \"#utility.yul\":4318:4320   */\n      0x40\n        /* \"#utility.yul\":4307:4316   */\n      dup4\n        /* \"#utility.yul\":4303:4321   */\n      add\n        /* \"#utility.yul\":4294:4300   */\n      dup6\n        /* \"#utility.yul\":4250:4322   */\n      tag_100\n      jump\t// in\n    tag_165:\n        /* \"#utility.yul\":4332:4404   */\n      tag_166\n        /* \"#utility.yul\":4400:4402   */\n      0x60\n        /* \"#utility.yul\":4389:4398   */\n      dup4\n        /* \"#utility.yul\":4385:4403   */\n      add\n        /* \"#utility.yul\":4376:4382   */\n      dup5\n        /* \"#utility.yul\":4332:4404   */\n      tag_100\n      jump\t// in\n    tag_166:\n        /* \"#utility.yul\":3858:4411   */\n      swap6\n      swap5\n      pop\n      pop\n      pop\n      pop\n      pop\n      jump\t// out\n        /* \"#utility.yul\":4417:4586   */\n    tag_108:\n        /* \"#utility.yul\":4501:4512   */\n      0x00\n        /* \"#utility.yul\":4535:4541   */\n      dup3\n        /* \"#utility.yul\":4530:4533   */\n      dup3\n        /* \"#utility.yul\":4523:4542   */\n      mstore\n        /* \"#utility.yul\":4575:4579   */\n      0x20\n        /* \"#utility.yul\":4570:4573   */\n      dup3\n        /* \"#utility.yul\":4566:4580   */\n      add\n        /* \"#utility.yul\":4551:4580   */\n      swap1\n      pop\n        /* \"#utility.yul\":4417:4586   */\n      swap3\n      swap2\n      pop\n      pop\n      jump\t// out\n        /* \"#utility.yul\":4592:4756   */\n    tag_109:\n        /* \"#utility.yul\":4732:4748   */\n      0x496e76616c6964206f7074696f6e000000000000000000000000000000000000\n        /* \"#utility.yul\":4728:4729   */\n      0x00\n        /* \"#utility.yul\":4720:4726   */\n      dup3\n        /* \"#utility.yul\":4716:4730   */\n      add\n        /* \"#utility.yul\":4709:4749   */\n      mstore\n        /* \"#utility.yul\":4592:4756   */\n      pop\n      jump\t// out\n        /* \"#utility.yul\":4762:5128   */\n    tag_110:\n        /* \"#utility.yul\":4904:4907   */\n      0x00\n        /* \"#utility.yul\":4925:4992   */\n      tag_170\n        /* \"#utility.yul\":4989:4991   */\n      0x0e\n        /* \"#utility.yul\":4984:4987   */\n      dup4\n        /* \"#utility.yul\":4925:4992   */\n      tag_108\n      jump\t// in\n    tag_170:\n        /* \"#utility.yul\":4918:4992   */\n      swap2\n      pop\n        /* \"#utility.yul\":5001:5094   */\n      tag_171\n        /* \"#utility.yul\":5090:5093   */\n      dup3\n        /* \"#utility.yul\":5001:5094   */\n      tag_109\n      jump\t// in\n    tag_171:\n        /* \"#utility.yul\":5119:5121   */\n      0x20\n        /* \"#utility.yul\":5114:5117   */\n      dup3\n        /* \"#utility.yul\":5110:5122   */\n      add\n        /* \"#utility.yul\":5103:5122   */\n      swap1\n      pop\n        /* \"#utility.yul\":4762:5128   */\n      swap2\n      swap1\n      pop\n      jump\t// out\n        /* \"#utility.yul\":5134:5553   */\n    tag_54:\n        /* \"#utility.yul\":5300:5304   */\n      0x00\n        /* \"#utility.yul\":5338:5340   */\n      0x20\n        /* \"#utility.yul\":5327:5336   */\n      dup3\n        /* \"#utility.yul\":5323:5341   */\n      add\n        /* \"#utility.yul\":5315:5341   */\n      swap1\n      pop\n        /* \"#utility.yul\":5387:5396   */\n      dup2\n        /* \"#utility.yul\":5381:5385   */\n      dup2\n        /* \"#utility.yul\":5377:5397   */\n      sub\n        /* \"#utility.yul\":5373:5374   */\n      0x00\n        /* \"#utility.yul\":5362:5371   */\n      dup4\n        /* \"#utility.yul\":5358:5375   */\n      add\n        /* \"#utility.yul\":5351:5398   */\n      mstore\n        /* \"#utility.yul\":5415:5546   */\n      tag_173\n        /* \"#utility.yul\":5541:5545   */\n      dup2\n        /* \"#utility.yul\":5415:5546   */\n      tag_110\n      jump\t// in\n    tag_173:\n        /* \"#utility.yul\":5407:5546   */\n      swap1\n      pop\n        /* \"#utility.yul\":5134:5553   */\n      swap2\n      swap1\n      pop\n      jump\t// out\n        /* \"#utility.yul\":5559:5739   */\n    tag_111:\n        /* \"#utility.yul\":5607:5684   */\n      0x4e487b7100000000000000000000000000000000000000000000000000000000\n        /* \"#utility.yul\":5604:5605   */\n      0x00\n        /* \"#utility.yul\":5597:5685   */\n      mstore\n        /* \"#utility.yul\":5704:5708   */\n      0x11\n        /* \"#utility.yul\":5701:5702   */\n      0x04\n        /* \"#utility.yul\":5694:5709   */\n      mstore\n        /* \"#utility.yul\":5728:5732   */\n      0x24\n        /* \"#utility.yul\":5725:5726   */\n      0x00\n        /* \"#utility.yul\":5718:5733   */\n      revert\n        /* \"#utility.yul\":5745:5936   */\n    tag_65:\n        /* \"#utility.yul\":5785:5788   */\n      0x00\n        /* \"#utility.yul\":5804:5824   */\n      tag_176\n        /* \"#utility.yul\":5822:5823   */\n      dup3\n        /* \"#utility.yul\":5804:5824   */\n      tag_99\n      jump\t// in\n    tag_176:\n        /* \"#utility.yul\":5799:5824   */\n      swap2\n      pop\n        /* \"#utility.yul\":5838:5858   */\n      tag_177\n        /* \"#utility.yul\":5856:5857   */\n      dup4\n        /* \"#utility.yul\":5838:5858   */\n      tag_99\n      jump\t// in\n    tag_177:\n        /* \"#utility.yul\":5833:5858   */\n      swap3\n      pop\n        /* \"#utility.yul\":5881:5882   */\n      dup3\n        /* \"#utility.yul\":5878:5879   */\n      dup3\n        /* \"#utility.yul\":5874:5883   */\n      add\n        /* \"#utility.yul\":5867:5883   */\n      swap1\n      pop\n        /* \"#utility.yul\":5902:5905   */\n      dup1\n        /* \"#utility.yul\":5899:5900   */\n      dup3\n        /* \"#utility.yul\":5896:5906   */\n      gt\n        /* \"#utility.yul\":5893:5929   */\n      iszero\n      tag_178\n      jumpi\n        /* \"#utility.yul\":5909:5927   */\n      tag_179\n      tag_111\n      jump\t// in\n    tag_179:\n        /* \"#utility.yul\":5893:5929   */\n    tag_178:\n        /* \"#utility.yul\":5745:5936   */\n      swap3\n      swap2\n      pop\n      pop\n      jump\t// out\n        /* \"#utility.yul\":5942:6175   */\n    tag_85:\n        /* \"#utility.yul\":5981:5984   */\n      0x00\n        /* \"#utility.yul\":6004:6028   */\n      tag_181\n        /* \"#utility.yul\":6022:6027   */\n      dup3\n        /* \"#utility.yul\":6004:6028   */\n      tag_99\n      jump\t// in\n    tag_181:\n        /* \"#utility.yul\":5995:6028   */\n      swap2\n      pop\n        /* \"#utility.yul\":6050:6116   */\n      0xffffffffffffffffffffffffffffffffffffffffffffffffffffffffffffffff\n        /* \"#utility.yul\":6043:6048   */\n      dup3\n        /* \"#utility.yul\":6040:6117   */\n      sub\n        /* \"#utility.yul\":6037:6140   */\n      tag_182\n      jumpi\n        /* \"#utility.yul\":6120:6138   */\n      tag_183\n      tag_111\n      jump\t// in\n    tag_183:\n        /* \"#utility.yul\":6037:6140   */\n    tag_182:\n        /* \"#utility.yul\":6167:6168   */\n      0x01\n        /* \"#utility.yul\":6160:6165   */\n      dup3\n        /* \"#utility.yul\":6156:6169   */\n      add\n        /* \"#utility.yul\":6149:6169   */\n      swap1\n      pop\n        /* \"#utility.yul\":5942:6175   */\n      swap2\n      swap1\n      pop\n      jump\t// out\n\n    auxdata: 0xa264697066735822122075de5db43eb86b85273a3c4ee540d65eacf76bdb71855309612d3a544259766864736f6c634300081e0033\n}\n",
				"bytecode": {
					"linkReferences": {},
					"object": "6080604052348015600e575f5ffd5b5061082c8061001c5f395ff3fe608060405234801561000f575f5ffd5b5060043610610091575f3560e01c8063a577cb2e11610064578063a577cb2e1461011d578063cc2fa6ea1461013b578063da58c7d914610159578063e7b3387c1461018a578063eb5993f3146101ab57610091565b806309eef43e146100955780632ddbd13a146100c5578063738198b4146100e3578063919840ad146100ff575b5f5ffd5b6100af60048036038101906100aa9190610507565b6101c9565b6040516100bc919061054c565b60405180910390f35b6100cd6101e6565b6040516100da919061057d565b60405180910390f35b6100fd60048036038101906100f891906105c0565b6101ec565b005b6101076103d5565b604051610114919061054c565b60405180910390f35b610125610425565b604051610132919061057d565b60405180910390f35b61014361042b565b604051610150919061057d565b60405180910390f35b610173600480360381019061016e91906105c0565b610430565b60405161018192919061066d565b60405180910390f35b610192610486565b6040516101a29493929190610694565b60405180910390f35b6101b36104a3565b6040516101c0919061057d565b60405180910390f35b6004602052805f5260405f205f915054906101000a900460ff1681565b60035481565b6002808111156101ff576101fe6105fa565b5b811115610241576040517f08c379a000000000000000000000000000000000000000000000000000000000815260040161023890610731565b60405180910390fd5b5f816002811115610255576102546105fa565b5b90505f600281111561026a576102696105fa565b5b600281111561027c5761027b6105fa565b5b81600281111561028f5761028e6105fa565b5b036102b15760015f5f8282546102a5919061077c565b92505081905550610365565b600160028111156102c5576102c46105fa565b5b60028111156102d7576102d66105fa565b5b8160028111156102ea576102e96105fa565b5b0361030c576001805f828254610300919061077c565b92505081905550610364565b60028081111561031f5761031e6105fa565b5b6002811115610331576103306105fa565b5b816002811115610344576103436105fa565b5b0361036357600160025f82825461035b919061077c565b925050819055505b5b5b600160045f3373ffffffffffffffffffffffffffffffffffffffff1673ffffffffffffffffffffffffffffffffffffffff1681526020019081526020015f205f6101000a81548160ff02191690831515021790555060035f8154809291906103cc906107af565b91905055505050565b5f60045f3373ffffffffffffffffffffffffffffffffffffffff1673ffffffffffffffffffffffffffffffffffffffff1681526020019081526020015f205f9054906101000a900460ff16905090565b60025481565b5f5481565b6005818154811061043f575f80fd5b905f5260205f20015f91509050805f015f9054906101000a900473ffffffffffffffffffffffffffffffffffffffff1690805f0160149054906101000a900460ff16905082565b5f5f5f5f5f54600154600254600354935093509350935090919293565b60015481565b5f5ffd5b5f73ffffffffffffffffffffffffffffffffffffffff82169050919050565b5f6104d6826104ad565b9050919050565b6104e6816104cc565b81146104f0575f5ffd5b50565b5f81359050610501816104dd565b92915050565b5f6020828403121561051c5761051b6104a9565b5b5f610529848285016104f3565b91505092915050565b5f8115159050919050565b61054681610532565b82525050565b5f60208201905061055f5f83018461053d565b92915050565b5f819050919050565b61057781610565565b82525050565b5f6020820190506105905f83018461056e565b92915050565b61059f81610565565b81146105a9575f5ffd5b50565b5f813590506105ba81610596565b92915050565b5f602082840312156105d5576105d46104a9565b5b5f6105e2848285016105ac565b91505092915050565b6105f4816104cc565b82525050565b7f4e487b71000000000000000000000000000000000000000000000000000000005f52602160045260245ffd5b60038110610638576106376105fa565b5b50565b5f81905061064882610627565b919050565b5f6106578261063b565b9050919050565b6106678161064d565b82525050565b5f6040820190506106805f8301856105eb565b61068d602083018461065e565b9392505050565b5f6080820190506106a75f83018761056e565b6106b4602083018661056e565b6106c1604083018561056e565b6106ce606083018461056e565b95945050505050565b5f82825260208201905092915050565b7f496e76616c6964206f7074696f6e0000000000000000000000000000000000005f82015250565b5f61071b600e836106d7565b9150610726826106e7565b602082019050919050565b5f6020820190508181035f8301526107488161070f565b9050919050565b7f4e487b71000000000000000000000000000000000000000000000000000000005f52601160045260245ffd5b5f61078682610565565b915061079183610565565b92508282019050808211156107a9576107a861074f565b5b92915050565b5f6107b982610565565b91507fffffffffffffffffffffffffffffffffffffffffffffffffffffffffffffffff82036107eb576107ea61074f565b5b60018201905091905056fea264697066735822122075de5db43eb86b85273a3c4ee540d65eacf76bdb71855309612d3a544259766864736f6c634300081e0033",
					"opcodes": "PUSH1 0x80 PUSH1 0x40 MSTORE CALLVALUE DUP1 ISZERO PUSH1 0xE JUMPI PUSH0 PUSH0 REVERT JUMPDEST POP PUSH2 0x82C DUP1 PUSH2 0x1C PUSH0 CODECOPY PUSH0 RETURN INVALID PUSH1 0x80 PUSH1 0x40 MSTORE CALLVALUE DUP1 ISZERO PUSH2 0xF JUMPI PUSH0 PUSH0 REVERT JUMPDEST POP PUSH1 0x4 CALLDATASIZE LT PUSH2 0x91 JUMPI PUSH0 CALLDATALOAD PUSH1 0xE0 SHR DUP1 PUSH4 0xA577CB2E GT PUSH2 0x64 JUMPI DUP1 PUSH4 0xA577CB2E EQ PUSH2 0x11D JUMPI DUP1 PUSH4 0xCC2FA6EA EQ PUSH2 0x13B JUMPI DUP1 PUSH4 0xDA58C7D9 EQ PUSH2 0x159 JUMPI DUP1 PUSH4 0xE7B3387C EQ PUSH2 0x18A JUMPI DUP1 PUSH4 0xEB5993F3 EQ PUSH2 0x1AB JUMPI PUSH2 0x91 JUMP JUMPDEST DUP1 PUSH4 0x9EEF43E EQ PUSH2 0x95 JUMPI DUP1 PUSH4 0x2DDBD13A EQ PUSH2 0xC5 JUMPI DUP1 PUSH4 0x738198B4 EQ PUSH2 0xE3 JUMPI DUP1 PUSH4 0x919840AD EQ PUSH2 0xFF JUMPI JUMPDEST PUSH0 PUSH0 REVERT JUMPDEST PUSH2 0xAF PUSH1 0x4 DUP1 CALLDATASIZE SUB DUP2 ADD SWAP1 PUSH2 0xAA SWAP2 SWAP1 PUSH2 0x507 JUMP JUMPDEST PUSH2 0x1C9 JUMP JUMPDEST PUSH1 0x40 MLOAD PUSH2 0xBC SWAP2 SWAP1 PUSH2 0x54C JUMP JUMPDEST PUSH1 0x40 MLOAD DUP1 SWAP2 SUB SWAP1 RETURN JUMPDEST PUSH2 0xCD PUSH2 0x1E6 JUMP JUMPDEST PUSH1 0x40 MLOAD PUSH2 0xDA SWAP2 SWAP1 PUSH2 0x57D JUMP JUMPDEST PUSH1 0x40 MLOAD DUP1 SWAP2 SUB SWAP1 RETURN JUMPDEST PUSH2 0xFD PUSH1 0x4 DUP1 CALLDATASIZE SUB DUP2 ADD SWAP1 PUSH2 0xF8 SWAP2 SWAP1 PUSH2 0x5C0 JUMP JUMPDEST PUSH2 0x1EC JUMP JUMPDEST STOP JUMPDEST PUSH2 0x107 PUSH2 0x3D5 JUMP JUMPDEST PUSH1 0x40 MLOAD PUSH2 0x114 SWAP2 SWAP1 PUSH2 0x54C JUMP JUMPDEST PUSH1 0x40 MLOAD DUP1 SWAP2 SUB SWAP1 RETURN JUMPDEST PUSH2 0x125 PUSH2 0x425 JUMP JUMPDEST PUSH1 0x40 MLOAD PUSH2 0x132 SWAP2 SWAP1 PUSH2 0x57D JUMP JUMPDEST PUSH1 0x40 MLOAD DUP1 SWAP2 SUB SWAP1 RETURN JUMPDEST PUSH2 0x143 PUSH2 0x42B JUMP JUMPDEST PUSH1 0x40 MLOAD PUSH2 0x150 SWAP2 SWAP1 PUSH2 0x57D JUMP JUMPDEST PUSH1 0x40 MLOAD DUP1 SWAP2 SUB SWAP1 RETURN JUMPDEST PUSH2 0x173 PUSH1 0x4 DUP1 CALLDATASIZE SUB DUP2 ADD SWAP1 PUSH2 0x16E SWAP2 SWAP1 PUSH2 0x5C0 JUMP JUMPDEST PUSH2 0x430 JUMP JUMPDEST PUSH1 0x40 MLOAD PUSH2 0x181 SWAP3 SWAP2 SWAP1 PUSH2 0x66D JUMP JUMPDEST PUSH1 0x40 MLOAD DUP1 SWAP2 SUB SWAP1 RETURN JUMPDEST PUSH2 0x192 PUSH2 0x486 JUMP JUMPDEST PUSH1 0x40 MLOAD PUSH2 0x1A2 SWAP5 SWAP4 SWAP3 SWAP2 SWAP1 PUSH2 0x694 JUMP JUMPDEST PUSH1 0x40 MLOAD DUP1 SWAP2 SUB SWAP1 RETURN JUMPDEST PUSH2 0x1B3 PUSH2 0x4A3 JUMP JUMPDEST PUSH1 0x40 MLOAD PUSH2 0x1C0 SWAP2 SWAP1 PUSH2 0x57D JUMP JUMPDEST PUSH1 0x40 MLOAD DUP1 SWAP2 SUB SWAP1 RETURN JUMPDEST PUSH1 0x4 PUSH1 0x20 MSTORE DUP1 PUSH0 MSTORE PUSH1 0x40 PUSH0 KECCAK256 PUSH0 SWAP2 POP SLOAD SWAP1 PUSH2 0x100 EXP SWAP1 DIV PUSH1 0xFF AND DUP2 JUMP JUMPDEST PUSH1 0x3 SLOAD DUP2 JUMP JUMPDEST PUSH1 0x2 DUP1 DUP2 GT ISZERO PUSH2 0x1FF JUMPI PUSH2 0x1FE PUSH2 0x5FA JUMP JUMPDEST JUMPDEST DUP2 GT ISZERO PUSH2 0x241 JUMPI PUSH1 0x40 MLOAD PUSH32 0x8C379A000000000000000000000000000000000000000000000000000000000 DUP2 MSTORE PUSH1 0x4 ADD PUSH2 0x238 SWAP1 PUSH2 0x731 JUMP JUMPDEST PUSH1 0x40 MLOAD DUP1 SWAP2 SUB SWAP1 REVERT JUMPDEST PUSH0 DUP2 PUSH1 0x2 DUP2 GT ISZERO PUSH2 0x255 JUMPI PUSH2 0x254 PUSH2 0x5FA JUMP JUMPDEST JUMPDEST SWAP1 POP PUSH0 PUSH1 0x2 DUP2 GT ISZERO PUSH2 0x26A JUMPI PUSH2 0x269 PUSH2 0x5FA JUMP JUMPDEST JUMPDEST PUSH1 0x2 DUP2 GT ISZERO PUSH2 0x27C JUMPI PUSH2 0x27B PUSH2 0x5FA JUMP JUMPDEST JUMPDEST DUP2 PUSH1 0x2 DUP2 GT ISZERO PUSH2 0x28F JUMPI PUSH2 0x28E PUSH2 0x5FA JUMP JUMPDEST JUMPDEST SUB PUSH2 0x2B1 JUMPI PUSH1 0x1 PUSH0 PUSH0 DUP3 DUP3 SLOAD PUSH2 0x2A5 SWAP2 SWAP1 PUSH2 0x77C JUMP JUMPDEST SWAP3 POP POP DUP2 SWAP1 SSTORE POP PUSH2 0x365 JUMP JUMPDEST PUSH1 0x1 PUSH1 0x2 DUP2 GT ISZERO PUSH2 0x2C5 JUMPI PUSH2 0x2C4 PUSH2 0x5FA JUMP JUMPDEST JUMPDEST PUSH1 0x2 DUP2 GT ISZERO PUSH2 0x2D7 JUMPI PUSH2 0x2D6 PUSH2 0x5FA JUMP JUMPDEST JUMPDEST DUP2 PUSH1 0x2 DUP2 GT ISZERO PUSH2 0x2EA JUMPI PUSH2 0x2E9 PUSH2 0x5FA JUMP JUMPDEST JUMPDEST SUB PUSH2 0x30C JUMPI PUSH1 0x1 DUP1 PUSH0 DUP3 DUP3 SLOAD PUSH2 0x300 SWAP2 SWAP1 PUSH2 0x77C JUMP JUMPDEST SWAP3 POP POP DUP2 SWAP1 SSTORE POP PUSH2 0x364 JUMP JUMPDEST PUSH1 0x2 DUP1 DUP2 GT ISZERO PUSH2 0x31F JUMPI PUSH2 0x31E PUSH2 0x5FA JUMP JUMPDEST JUMPDEST PUSH1 0x2 DUP2 GT ISZERO PUSH2 0x331 JUMPI PUSH2 0x330 PUSH2 0x5FA JUMP JUMPDEST JUMPDEST DUP2 PUSH1 0x2 DUP2 GT ISZERO PUSH2 0x344 JUMPI PUSH2 0x343 PUSH2 0x5FA JUMP JUMPDEST JUMPDEST SUB PUSH2 0x363 JUMPI PUSH1 0x1 PUSH1 0x2 PUSH0 DUP3 DUP3 SLOAD PUSH2 0x35B SWAP2 SWAP1 PUSH2 0x77C JUMP JUMPDEST SWAP3 POP POP DUP2 SWAP1 SSTORE POP JUMPDEST JUMPDEST JUMPDEST PUSH1 0x1 PUSH1 0x4 PUSH0 CALLER PUSH20 0xFFFFFFFFFFFFFFFFFFFFFFFFFFFFFFFFFFFFFFFF AND PUSH20 0xFFFFFFFFFFFFFFFFFFFFFFFFFFFFFFFFFFFFFFFF AND DUP2 MSTORE PUSH1 0x20 ADD SWAP1 DUP2 MSTORE PUSH1 0x20 ADD PUSH0 KECCAK256 PUSH0 PUSH2 0x100 EXP DUP2 SLOAD DUP2 PUSH1 0xFF MUL NOT AND SWAP1 DUP4 ISZERO ISZERO MUL OR SWAP1 SSTORE POP PUSH1 0x3 PUSH0 DUP2 SLOAD DUP1 SWAP3 SWAP2 SWAP1 PUSH2 0x3CC SWAP1 PUSH2 0x7AF JUMP JUMPDEST SWAP2 SWAP1 POP SSTORE POP POP POP JUMP JUMPDEST PUSH0 PUSH1 0x4 PUSH0 CALLER PUSH20 0xFFFFFFFFFFFFFFFFFFFFFFFFFFFFFFFFFFFFFFFF AND PUSH20 0xFFFFFFFFFFFFFFFFFFFFFFFFFFFFFFFFFFFFFFFF AND DUP2 MSTORE PUSH1 0x20 ADD SWAP1 DUP2 MSTORE PUSH1 0x20 ADD PUSH0 KECCAK256 PUSH0 SWAP1 SLOAD SWAP1 PUSH2 0x100 EXP SWAP1 DIV PUSH1 0xFF AND SWAP1 POP SWAP1 JUMP JUMPDEST PUSH1 0x2 SLOAD DUP2 JUMP JUMPDEST PUSH0 SLOAD DUP2 JUMP JUMPDEST PUSH1 0x5 DUP2 DUP2 SLOAD DUP2 LT PUSH2 0x43F JUMPI PUSH0 DUP1 REVERT JUMPDEST SWAP1 PUSH0 MSTORE PUSH1 0x20 PUSH0 KECCAK256 ADD PUSH0 SWAP2 POP SWAP1 POP DUP1 PUSH0 ADD PUSH0 SWAP1 SLOAD SWAP1 PUSH2 0x100 EXP SWAP1 DIV PUSH20 0xFFFFFFFFFFFFFFFFFFFFFFFFFFFFFFFFFFFFFFFF AND SWAP1 DUP1 PUSH0 ADD PUSH1 0x14 SWAP1 SLOAD SWAP1 PUSH2 0x100 EXP SWAP1 DIV PUSH1 0xFF AND SWAP1 POP DUP3 JUMP JUMPDEST PUSH0 PUSH0 PUSH0 PUSH0 PUSH0 SLOAD PUSH1 0x1 SLOAD PUSH1 0x2 SLOAD PUSH1 0x3 SLOAD SWAP4 POP SWAP4 POP SWAP4 POP SWAP4 POP SWAP1 SWAP2 SWAP3 SWAP4 JUMP JUMPDEST PUSH1 0x1 SLOAD DUP2 JUMP JUMPDEST PUSH0 PUSH0 REVERT JUMPDEST PUSH0 PUSH20 0xFFFFFFFFFFFFFFFFFFFFFFFFFFFFFFFFFFFFFFFF DUP3 AND SWAP1 POP SWAP2 SWAP1 POP JUMP JUMPDEST PUSH0 PUSH2 0x4D6 DUP3 PUSH2 0x4AD JUMP JUMPDEST SWAP1 POP SWAP2 SWAP1 POP JUMP JUMPDEST PUSH2 0x4E6 DUP2 PUSH2 0x4CC JUMP JUMPDEST DUP2 EQ PUSH2 0x4F0 JUMPI PUSH0 PUSH0 REVERT JUMPDEST POP JUMP JUMPDEST PUSH0 DUP2 CALLDATALOAD SWAP1 POP PUSH2 0x501 DUP2 PUSH2 0x4DD JUMP JUMPDEST SWAP3 SWAP2 POP POP JUMP JUMPDEST PUSH0 PUSH1 0x20 DUP3 DUP5 SUB SLT ISZERO PUSH2 0x51C JUMPI PUSH2 0x51B PUSH2 0x4A9 JUMP JUMPDEST JUMPDEST PUSH0 PUSH2 0x529 DUP5 DUP3 DUP6 ADD PUSH2 0x4F3 JUMP JUMPDEST SWAP2 POP POP SWAP3 SWAP2 POP POP JUMP JUMPDEST PUSH0 DUP2 ISZERO ISZERO SWAP1 POP SWAP2 SWAP1 POP JUMP JUMPDEST PUSH2 0x546 DUP2 PUSH2 0x532 JUMP JUMPDEST DUP3 MSTORE POP POP JUMP JUMPDEST PUSH0 PUSH1 0x20 DUP3 ADD SWAP1 POP PUSH2 0x55F PUSH0 DUP4 ADD DUP5 PUSH2 0x53D JUMP JUMPDEST SWAP3 SWAP2 POP POP JUMP JUMPDEST PUSH0 DUP2 SWAP1 POP SWAP2 SWAP1 POP JUMP JUMPDEST PUSH2 0x577 DUP2 PUSH2 0x565 JUMP JUMPDEST DUP3 MSTORE POP POP JUMP JUMPDEST PUSH0 PUSH1 0x20 DUP3 ADD SWAP1 POP PUSH2 0x590 PUSH0 DUP4 ADD DUP5 PUSH2 0x56E JUMP JUMPDEST SWAP3 SWAP2 POP POP JUMP JUMPDEST PUSH2 0x59F DUP2 PUSH2 0x565 JUMP JUMPDEST DUP2 EQ PUSH2 0x5A9 JUMPI PUSH0 PUSH0 REVERT JUMPDEST POP JUMP JUMPDEST PUSH0 DUP2 CALLDATALOAD SWAP1 POP PUSH2 0x5BA DUP2 PUSH2 0x596 JUMP JUMPDEST SWAP3 SWAP2 POP POP JUMP JUMPDEST PUSH0 PUSH1 0x20 DUP3 DUP5 SUB SLT ISZERO PUSH2 0x5D5 JUMPI PUSH2 0x5D4 PUSH2 0x4A9 JUMP JUMPDEST JUMPDEST PUSH0 PUSH2 0x5E2 DUP5 DUP3 DUP6 ADD PUSH2 0x5AC JUMP JUMPDEST SWAP2 POP POP SWAP3 SWAP2 POP POP JUMP JUMPDEST PUSH2 0x5F4 DUP2 PUSH2 0x4CC JUMP JUMPDEST DUP3 MSTORE POP POP JUMP JUMPDEST PUSH32 0x4E487B7100000000000000000000000000000000000000000000000000000000 PUSH0 MSTORE PUSH1 0x21 PUSH1 0x4 MSTORE PUSH1 0x24 PUSH0 REVERT JUMPDEST PUSH1 0x3 DUP2 LT PUSH2 0x638 JUMPI PUSH2 0x637 PUSH2 0x5FA JUMP JUMPDEST JUMPDEST POP JUMP JUMPDEST PUSH0 DUP2 SWAP1 POP PUSH2 0x648 DUP3 PUSH2 0x627 JUMP JUMPDEST SWAP2 SWAP1 POP JUMP JUMPDEST PUSH0 PUSH2 0x657 DUP3 PUSH2 0x63B JUMP JUMPDEST SWAP1 POP SWAP2 SWAP1 POP JUMP JUMPDEST PUSH2 0x667 DUP2 PUSH2 0x64D JUMP JUMPDEST DUP3 MSTORE POP POP JUMP JUMPDEST PUSH0 PUSH1 0x40 DUP3 ADD SWAP1 POP PUSH2 0x680 PUSH0 DUP4 ADD DUP6 PUSH2 0x5EB JUMP JUMPDEST PUSH2 0x68D PUSH1 0x20 DUP4 ADD DUP5 PUSH2 0x65E JUMP JUMPDEST SWAP4 SWAP3 POP POP POP JUMP JUMPDEST PUSH0 PUSH1 0x80 DUP3 ADD SWAP1 POP PUSH2 0x6A7 PUSH0 DUP4 ADD DUP8 PUSH2 0x56E JUMP JUMPDEST PUSH2 0x6B4 PUSH1 0x20 DUP4 ADD DUP7 PUSH2 0x56E JUMP JUMPDEST PUSH2 0x6C1 PUSH1 0x40 DUP4 ADD DUP6 PUSH2 0x56E JUMP JUMPDEST PUSH2 0x6CE PUSH1 0x60 DUP4 ADD DUP5 PUSH2 0x56E JUMP JUMPDEST SWAP6 SWAP5 POP POP POP POP POP JUMP JUMPDEST PUSH0 DUP3 DUP3 MSTORE PUSH1 0x20 DUP3 ADD SWAP1 POP SWAP3 SWAP2 POP POP JUMP JUMPDEST PUSH32 0x496E76616C6964206F7074696F6E000000000000000000000000000000000000 PUSH0 DUP3 ADD MSTORE POP JUMP JUMPDEST PUSH0 PUSH2 0x71B PUSH1 0xE DUP4 PUSH2 0x6D7 JUMP JUMPDEST SWAP2 POP PUSH2 0x726 DUP3 PUSH2 0x6E7 JUMP JUMPDEST PUSH1 0x20 DUP3 ADD SWAP1 POP SWAP2 SWAP1 POP JUMP JUMPDEST PUSH0 PUSH1 0x20 DUP3 ADD SWAP1 POP DUP2 DUP2 SUB PUSH0 DUP4 ADD MSTORE PUSH2 0x748 DUP2 PUSH2 0x70F JUMP JUMPDEST SWAP1 POP SWAP2 SWAP1 POP JUMP JUMPDEST PUSH32 0x4E487B7100000000000000000000000000000000000000000000000000000000 PUSH0 MSTORE PUSH1 0x11 PUSH1 0x4 MSTORE PUSH1 0x24 PUSH0 REVERT JUMPDEST PUSH0 PUSH2 0x786 DUP3 PUSH2 0x565 JUMP JUMPDEST SWAP2 POP PUSH2 0x791 DUP4 PUSH2 0x565 JUMP JUMPDEST SWAP3 POP DUP3 DUP3 ADD SWAP1 POP DUP1 DUP3 GT ISZERO PUSH2 0x7A9 JUMPI PUSH2 0x7A8 PUSH2 0x74F JUMP JUMPDEST JUMPDEST SWAP3 SWAP2 POP POP JUMP JUMPDEST PUSH0 PUSH2 0x7B9 DUP3 PUSH2 0x565 JUMP JUMPDEST SWAP2 POP PUSH32 0xFFFFFFFFFFFFFFFFFFFFFFFFFFFFFFFFFFFFFFFFFFFFFFFFFFFFFFFFFFFFFFFF DUP3 SUB PUSH2 0x7EB JUMPI PUSH2 0x7EA PUSH2 0x74F JUMP JUMPDEST JUMPDEST PUSH1 0x1 DUP3 ADD SWAP1 POP SWAP2 SWAP1 POP JUMP INVALID LOG2 PUSH5 0x6970667358 0x22 SLT KECCAK256 PUSH22 0xDE5DB43EB86B85273A3C4EE540D65EACF76BDB718553 MULMOD PUSH2 0x2D3A SLOAD TIMESTAMP MSIZE PUSH23 0x6864736F6C634300081E00330000000000000000000000 "
				},
				"gasEstimates": {
					"creation": {
						"codeDepositCost": "418400",
						"executionCost": "453",
						"totalCost": "418853"
					},
					"external": {
						"cast(uint256)": "infinite",
						"check()": "2627",
						"getVoteCount()": "infinite",
						"hasVoted(address)": "2834",
						"optA()": "2446",
						"optB()": "2513",
						"optC()": "2425",
						"total()": "2448",
						"voters(uint256)": "7401"
					}
				},
				"methodIdentifiers": {
					"cast(uint256)": "738198b4",
					"check()": "919840ad",
					"getVoteCount()": "e7b3387c",
					"hasVoted(address)": "09eef43e",
					"optA()": "cc2fa6ea",
					"optB()": "eb5993f3",
					"optC()": "a577cb2e",
					"total()": "2ddbd13a",
					"voters(uint256)": "da58c7d9"
				}
			},
			"storageLayout": {
				"storage": [
					{
						"astId": 3,
						"contract": "DeVoting/vote.sol:Voting",
						"label": "optA",
						"offset": 0,
						"slot": "0",
						"type": "t_uint256"
					},
					{
						"astId": 5,
						"contract": "DeVoting/vote.sol:Voting",
						"label": "optB",
						"offset": 0,
						"slot": "1",
						"type": "t_uint256"
					},
					{
						"astId": 7,
						"contract": "DeVoting/vote.sol:Voting",
						"label": "optC",
						"offset": 0,
						"slot": "2",
						"type": "t_uint256"
					},
					{
						"astId": 9,
						"contract": "DeVoting/vote.sol:Voting",
						"label": "total",
						"offset": 0,
						"slot": "3",
						"type": "t_uint256"
					},
					{
						"astId": 17,
						"contract": "DeVoting/vote.sol:Voting",
						"label": "hasVoted",
						"offset": 0,
						"slot": "4",
						"type": "t_mapping(t_address,t_bool)"
					},
					{
						"astId": 27,
						"contract": "DeVoting/vote.sol:Voting",
						"label": "voters",
						"offset": 0,
						"slot": "5",
						"type": "t_array(t_struct(Voters)23_storage)dyn_storage"
					}
				],
				"types": {
					"t_address": {
						"encoding": "inplace",
						"label": "address",
						"numberOfBytes": "20"
					},
					"t_array(t_struct(Voters)23_storage)dyn_storage": {
						"base": "t_struct(Voters)23_storage",
						"encoding": "dynamic_array",
						"label": "struct Voting.Voters[]",
						"numberOfBytes": "32"
					},
					"t_bool": {
						"encoding": "inplace",
						"label": "bool",
						"numberOfBytes": "1"
					},
					"t_enum(Options)13": {
						"encoding": "inplace",
						"label": "enum Voting.Options",
						"numberOfBytes": "1"
					},
					"t_mapping(t_address,t_bool)": {
						"encoding": "mapping",
						"key": "t_address",
						"label": "mapping(address => bool)",
						"numberOfBytes": "32",
						"value": "t_bool"
					},
					"t_struct(Voters)23_storage": {
						"encoding": "inplace",
						"label": "struct Voting.Voters",
						"members": [
							{
								"astId": 19,
								"contract": "DeVoting/vote.sol:Voting",
								"label": "voter",
								"offset": 0,
								"slot": "0",
								"type": "t_address"
							},
							{
								"astId": 22,
								"contract": "DeVoting/vote.sol:Voting",
								"label": "choice",
								"offset": 20,
								"slot": "0",
								"type": "t_enum(Options)13"
							}
						],
						"numberOfBytes": "32"
					},
					"t_uint256": {
						"encoding": "inplace",
						"label": "uint256",
						"numberOfBytes": "32"
					}
				}
			},
			"userdoc": {
				"kind": "user",
				"methods": {},
				"version": 1
			}
		}
	}
}