{
	"Build on Base/game.sol": {
		"GuessGame": {
			"abi": [
				{
					"anonymous": false,
					"inputs": [
						{
							"indexed": false,
							"internalType": "uint256",
							"name": "guess",
							"type": "uint256"
						},
						{
							"indexed": false,
							"internalType": "uint256",
							"name": "answer",
							"type": "uint256"
						}
					],
					"name": "GuessFailed",
					"type": "event"
				},
				{
					"inputs": [
						{
							"internalType": "uint256",
							"name": "",
							"type": "uint256"
						}
					],
					"name": "allPlayers",
					"outputs": [
						{
							"internalType": "address",
							"name": "",
							"type": "address"
						}
					],
					"stateMutability": "view",
					"type": "function"
				},
				{
					"inputs": [],
					"name": "generateNum",
					"outputs": [],
					"stateMutability": "nonpayable",
					"type": "function"
				},
				{
					"inputs": [],
					"name": "generatedNum",
					"outputs": [
						{
							"internalType": "uint256",
							"name": "",
							"type": "uint256"
						}
					],
					"stateMutability": "view",
					"type": "function"
				},
				{
					"inputs": [
						{
							"internalType": "uint256",
							"name": "num",
							"type": "uint256"
						}
					],
					"name": "play",
					"outputs": [],
					"stateMutability": "nonpayable",
					"type": "function"
				},
				{
					"inputs": [
						{
							"internalType": "address",
							"name": "",
							"type": "address"
						}
					],
					"name": "usersInfo",
					"outputs": [
						{
							"internalType": "address",
							"name": "user",
							"type": "address"
						},
						{
							"internalType": "bool",
							"name": "isRegistered",
							"type": "bool"
						},
						{
							"internalType": "uint256",
							"name": "guessCount",
							"type": "uint256"
						},
						{
							"internalType": "uint256",
							"name": "amountWon",
							"type": "uint256"
						}
					],
					"stateMutability": "view",
					"type": "function"
				}
			],
			"devdoc": {
				"kind": "dev",
				"methods": {},
				"version": 1
			},
			"evm": {
				"assembly": "    /* \"Build on Base/game.sol\":233:1458  contract GuessGame {... */\n  mstore(0x40, 0x80)\n  callvalue\n  dup1\n  iszero\n  tag_1\n  jumpi\n  revert(0x00, 0x00)\ntag_1:\n  pop\n  dataSize(sub_0)\n  dup1\n  dataOffset(sub_0)\n  0x00\n  codecopy\n  0x00\n  return\nstop\n\nsub_0: assembly {\n        /* \"Build on Base/game.sol\":233:1458  contract GuessGame {... */\n      mstore(0x40, 0x80)\n      callvalue\n      dup1\n      iszero\n      tag_1\n      jumpi\n      revert(0x00, 0x00)\n    tag_1:\n      pop\n      jumpi(tag_2, lt(calldatasize, 0x04))\n      shr(0xe0, calldataload(0x00))\n      dup1\n      0x0544ce5e\n      eq\n      tag_3\n      jumpi\n      dup1\n      0x5d0eaaaf\n      eq\n      tag_4\n      jumpi\n      dup1\n      0x6898f82b\n      eq\n      tag_5\n      jumpi\n      dup1\n      0x85b7df02\n      eq\n      tag_6\n      jumpi\n      dup1\n      0xeea760b3\n      eq\n      tag_7\n      jumpi\n    tag_2:\n      revert(0x00, 0x00)\n        /* \"Build on Base/game.sol\":582:609  address[] public allPlayers */\n    tag_3:\n      tag_8\n      0x04\n      dup1\n      calldatasize\n      sub\n      dup2\n      add\n      swap1\n      tag_9\n      swap2\n      swap1\n      tag_10\n      jump\t// in\n    tag_9:\n      tag_11\n      jump\t// in\n    tag_8:\n      mload(0x40)\n      tag_12\n      swap2\n      swap1\n      tag_13\n      jump\t// in\n    tag_12:\n      mload(0x40)\n      dup1\n      swap2\n      sub\n      swap1\n      return\n        /* \"Build on Base/game.sol\":504:545  mapping(address => User) public usersInfo */\n    tag_4:\n      tag_14\n      0x04\n      dup1\n      calldatasize\n      sub\n      dup2\n      add\n      swap1\n      tag_15\n      swap2\n      swap1\n      tag_16\n      jump\t// in\n    tag_15:\n      tag_17\n      jump\t// in\n    tag_14:\n      mload(0x40)\n      tag_18\n      swap5\n      swap4\n      swap3\n      swap2\n      swap1\n      tag_19\n      jump\t// in\n    tag_18:\n      mload(0x40)\n      dup1\n      swap2\n      sub\n      swap1\n      return\n        /* \"Build on Base/game.sol\":944:1456  function play(uint num) public {... */\n    tag_5:\n      tag_20\n      0x04\n      dup1\n      calldatasize\n      sub\n      dup2\n      add\n      swap1\n      tag_21\n      swap2\n      swap1\n      tag_10\n      jump\t// in\n    tag_21:\n      tag_22\n      jump\t// in\n    tag_20:\n      stop\n        /* \"Build on Base/game.sol\":280:304  uint public generatedNum */\n    tag_6:\n      tag_23\n      tag_24\n      jump\t// in\n    tag_23:\n      mload(0x40)\n      tag_25\n      swap2\n      swap1\n      tag_26\n      jump\t// in\n    tag_25:\n      mload(0x40)\n      dup1\n      swap2\n      sub\n      swap1\n      return\n        /* \"Build on Base/game.sol\":700:938  function generateNum() public {... */\n    tag_7:\n      tag_27\n      tag_28\n      jump\t// in\n    tag_27:\n      stop\n        /* \"Build on Base/game.sol\":582:609  address[] public allPlayers */\n    tag_11:\n      0x02\n      dup2\n      dup2\n      sload\n      dup2\n      lt\n      tag_29\n      jumpi\n      0x00\n      dup1\n      revert\n    tag_29:\n      swap1\n      0x00\n      mstore\n      keccak256(0x00, 0x20)\n      add\n      0x00\n      swap2\n      pop\n      sload\n      swap1\n      0x0100\n      exp\n      swap1\n      div\n      0xffffffffffffffffffffffffffffffffffffffff\n      and\n      dup2\n      jump\t// out\n        /* \"Build on Base/game.sol\":504:545  mapping(address => User) public usersInfo */\n    tag_17:\n      mstore(0x20, 0x01)\n      dup1\n      0x00\n      mstore\n      keccak256(0x00, 0x40)\n      0x00\n      swap2\n      pop\n      swap1\n      pop\n      dup1\n      0x00\n      add\n      0x00\n      swap1\n      sload\n      swap1\n      0x0100\n      exp\n      swap1\n      div\n      0xffffffffffffffffffffffffffffffffffffffff\n      and\n      swap1\n      dup1\n      0x00\n      add\n      0x14\n      swap1\n      sload\n      swap1\n      0x0100\n      exp\n      swap1\n      div\n      0xff\n      and\n      swap1\n      dup1\n      0x01\n      add\n      sload\n      swap1\n      dup1\n      0x02\n      add\n      sload\n      swap1\n      pop\n      dup5\n      jump\t// out\n        /* \"Build on Base/game.sol\":944:1456  function play(uint num) public {... */\n    tag_22:\n        /* \"Build on Base/game.sol\":1046:1055  usersInfo */\n      0x01\n        /* \"Build on Base/game.sol\":1046:1067  usersInfo[msg.sender] */\n      0x00\n        /* \"Build on Base/game.sol\":1056:1066  msg.sender */\n      caller\n        /* \"Build on Base/game.sol\":1046:1067  usersInfo[msg.sender] */\n      0xffffffffffffffffffffffffffffffffffffffff\n      and\n      0xffffffffffffffffffffffffffffffffffffffff\n      and\n      dup2\n      mstore\n      0x20\n      add\n      swap1\n      dup2\n      mstore\n      0x20\n      add\n      0x00\n      keccak256\n        /* \"Build on Base/game.sol\":1046:1080  usersInfo[msg.sender].isRegistered */\n      0x00\n      add\n      0x14\n      swap1\n      sload\n      swap1\n      0x0100\n      exp\n      swap1\n      div\n      0xff\n      and\n        /* \"Build on Base/game.sol\":1041:1242  if (!usersInfo[msg.sender].isRegistered) {... */\n      tag_32\n      jumpi\n        /* \"Build on Base/game.sol\":1125:1135  msg.sender */\n      caller\n        /* \"Build on Base/game.sol\":1096:1105  usersInfo */\n      0x01\n        /* \"Build on Base/game.sol\":1096:1117  usersInfo[msg.sender] */\n      0x00\n        /* \"Build on Base/game.sol\":1106:1116  msg.sender */\n      caller\n        /* \"Build on Base/game.sol\":1096:1117  usersInfo[msg.sender] */\n      0xffffffffffffffffffffffffffffffffffffffff\n      and\n      0xffffffffffffffffffffffffffffffffffffffff\n      and\n      dup2\n      mstore\n      0x20\n      add\n      swap1\n      dup2\n      mstore\n      0x20\n      add\n      0x00\n      keccak256\n        /* \"Build on Base/game.sol\":1096:1122  usersInfo[msg.sender].user */\n      0x00\n      add\n      0x00\n        /* \"Build on Base/game.sol\":1096:1135  usersInfo[msg.sender].user = msg.sender */\n      0x0100\n      exp\n      dup2\n      sload\n      dup2\n      0xffffffffffffffffffffffffffffffffffffffff\n      mul\n      not\n      and\n      swap1\n      dup4\n      0xffffffffffffffffffffffffffffffffffffffff\n      and\n      mul\n      or\n      swap1\n      sstore\n      pop\n        /* \"Build on Base/game.sol\":1186:1190  true */\n      0x01\n        /* \"Build on Base/game.sol\":1149:1158  usersInfo */\n      dup1\n        /* \"Build on Base/game.sol\":1149:1170  usersInfo[msg.sender] */\n      0x00\n        /* \"Build on Base/game.sol\":1159:1169  msg.sender */\n      caller\n        /* \"Build on Base/game.sol\":1149:1170  usersInfo[msg.sender] */\n      0xffffffffffffffffffffffffffffffffffffffff\n      and\n      0xffffffffffffffffffffffffffffffffffffffff\n      and\n      dup2\n      mstore\n      0x20\n      add\n      swap1\n      dup2\n      mstore\n      0x20\n      add\n      0x00\n      keccak256\n        /* \"Build on Base/game.sol\":1149:1183  usersInfo[msg.sender].isRegistered */\n      0x00\n      add\n      0x14\n        /* \"Build on Base/game.sol\":1149:1190  usersInfo[msg.sender].isRegistered = true */\n      0x0100\n      exp\n      dup2\n      sload\n      dup2\n      0xff\n      mul\n      not\n      and\n      swap1\n      dup4\n      iszero\n      iszero\n      mul\n      or\n      swap1\n      sstore\n      pop\n        /* \"Build on Base/game.sol\":1204:1214  allPlayers */\n      0x02\n        /* \"Build on Base/game.sol\":1220:1230  msg.sender */\n      caller\n        /* \"Build on Base/game.sol\":1204:1231  allPlayers.push(msg.sender) */\n      swap1\n      dup1\n      0x01\n      dup2\n      sload\n      add\n      dup1\n      dup3\n      sstore\n      dup1\n      swap2\n      pop\n      pop\n      0x01\n      swap1\n      sub\n      swap1\n      0x00\n      mstore\n      keccak256(0x00, 0x20)\n      add\n      0x00\n      swap1\n      swap2\n      swap1\n      swap2\n      swap1\n      swap2\n      0x0100\n      exp\n      dup2\n      sload\n      dup2\n      0xffffffffffffffffffffffffffffffffffffffff\n      mul\n      not\n      and\n      swap1\n      dup4\n      0xffffffffffffffffffffffffffffffffffffffff\n      and\n      mul\n      or\n      swap1\n      sstore\n      pop\n        /* \"Build on Base/game.sol\":1041:1242  if (!usersInfo[msg.sender].isRegistered) {... */\n    tag_32:\n        /* \"Build on Base/game.sol\":1288:1289  1 */\n      0x01\n        /* \"Build on Base/game.sol\":1252:1261  usersInfo */\n      dup1\n        /* \"Build on Base/game.sol\":1252:1273  usersInfo[msg.sender] */\n      0x00\n        /* \"Build on Base/game.sol\":1262:1272  msg.sender */\n      caller\n        /* \"Build on Base/game.sol\":1252:1273  usersInfo[msg.sender] */\n      0xffffffffffffffffffffffffffffffffffffffff\n      and\n      0xffffffffffffffffffffffffffffffffffffffff\n      and\n      dup2\n      mstore\n      0x20\n      add\n      swap1\n      dup2\n      mstore\n      0x20\n      add\n      0x00\n      keccak256\n        /* \"Build on Base/game.sol\":1252:1284  usersInfo[msg.sender].guessCount */\n      0x01\n      add\n      0x00\n        /* \"Build on Base/game.sol\":1252:1289  usersInfo[msg.sender].guessCount += 1 */\n      dup3\n      dup3\n      sload\n      tag_34\n      swap2\n      swap1\n      tag_35\n      jump\t// in\n    tag_34:\n      swap3\n      pop\n      pop\n      dup2\n      swap1\n      sstore\n      pop\n        /* \"Build on Base/game.sol\":1311:1323  generatedNum */\n      sload(0x00)\n        /* \"Build on Base/game.sol\":1304:1307  num */\n      dup2\n        /* \"Build on Base/game.sol\":1304:1323  num == generatedNum */\n      sub\n        /* \"Build on Base/game.sol\":1300:1450  if (num == generatedNum) {... */\n      tag_36\n      jumpi\n        /* \"Build on Base/game.sol\":1374:1375  1 */\n      0x01\n        /* \"Build on Base/game.sol\":1339:1348  usersInfo */\n      dup1\n        /* \"Build on Base/game.sol\":1339:1360  usersInfo[msg.sender] */\n      0x00\n        /* \"Build on Base/game.sol\":1349:1359  msg.sender */\n      caller\n        /* \"Build on Base/game.sol\":1339:1360  usersInfo[msg.sender] */\n      0xffffffffffffffffffffffffffffffffffffffff\n      and\n      0xffffffffffffffffffffffffffffffffffffffff\n      and\n      dup2\n      mstore\n      0x20\n      add\n      swap1\n      dup2\n      mstore\n      0x20\n      add\n      0x00\n      keccak256\n        /* \"Build on Base/game.sol\":1339:1370  usersInfo[msg.sender].amountWon */\n      0x02\n      add\n      0x00\n        /* \"Build on Base/game.sol\":1339:1375  usersInfo[msg.sender].amountWon += 1 */\n      dup3\n      dup3\n      sload\n      tag_37\n      swap2\n      swap1\n      tag_35\n      jump\t// in\n    tag_37:\n      swap3\n      pop\n      pop\n      dup2\n      swap1\n      sstore\n      pop\n        /* \"Build on Base/game.sol\":1300:1450  if (num == generatedNum) {... */\n      jump(tag_38)\n    tag_36:\n        /* \"Build on Base/game.sol\":1409:1439  GuessFailed(num, generatedNum) */\n      0x11054b391290bd0462e0600d8bb0e55a53a33121443b53e344f640a970ad5492\n        /* \"Build on Base/game.sol\":1421:1424  num */\n      dup2\n        /* \"Build on Base/game.sol\":1426:1438  generatedNum */\n      sload(0x00)\n        /* \"Build on Base/game.sol\":1409:1439  GuessFailed(num, generatedNum) */\n      mload(0x40)\n      tag_39\n      swap3\n      swap2\n      swap1\n      tag_40\n      jump\t// in\n    tag_39:\n      mload(0x40)\n      dup1\n      swap2\n      sub\n      swap1\n      log1\n        /* \"Build on Base/game.sol\":1300:1450  if (num == generatedNum) {... */\n    tag_38:\n        /* \"Build on Base/game.sol\":944:1456  function play(uint num) public {... */\n      pop\n      jump\t// out\n        /* \"Build on Base/game.sol\":280:304  uint public generatedNum */\n    tag_24:\n      sload(0x00)\n      dup2\n      jump\t// out\n        /* \"Build on Base/game.sol\":700:938  function generateNum() public {... */\n    tag_28:\n        /* \"Build on Base/game.sol\":740:754  uint randomNum */\n      0x00\n        /* \"Build on Base/game.sol\":819:834  block.timestamp */\n      timestamp\n        /* \"Build on Base/game.sol\":836:852  block.prevrandao */\n      prevrandao\n        /* \"Build on Base/game.sol\":854:864  msg.sender */\n      caller\n        /* \"Build on Base/game.sol\":802:865  abi.encodePacked(block.timestamp, block.prevrandao, msg.sender) */\n      add(0x20, mload(0x40))\n      tag_42\n      swap4\n      swap3\n      swap2\n      swap1\n      tag_43\n      jump\t// in\n    tag_42:\n      mload(0x40)\n      0x20\n      dup2\n      dup4\n      sub\n      sub\n      dup2\n      mstore\n      swap1\n      0x40\n      mstore\n        /* \"Build on Base/game.sol\":775:879  keccak256(... */\n      dup1\n      mload\n      swap1\n      0x20\n      add\n      keccak256\n        /* \"Build on Base/game.sol\":757:889  uint(... */\n      0x00\n      shr\n        /* \"Build on Base/game.sol\":740:889  uint randomNum = uint(... */\n      swap1\n      pop\n        /* \"Build on Base/game.sol\":927:930  100 */\n      0x64\n        /* \"Build on Base/game.sol\":915:924  randomNum */\n      dup2\n        /* \"Build on Base/game.sol\":915:930  randomNum % 100 */\n      tag_44\n      swap2\n      swap1\n      tag_45\n      jump\t// in\n    tag_44:\n        /* \"Build on Base/game.sol\":899:911  generatedNum */\n      0x00\n        /* \"Build on Base/game.sol\":899:931  generatedNum = (randomNum % 100) */\n      dup2\n      swap1\n      sstore\n      pop\n        /* \"Build on Base/game.sol\":730:938  {... */\n      pop\n        /* \"Build on Base/game.sol\":700:938  function generateNum() public {... */\n      jump\t// out\n        /* \"#utility.yul\":88:205   */\n    tag_47:\n        /* \"#utility.yul\":197:198   */\n      0x00\n        /* \"#utility.yul\":194:195   */\n      0x00\n        /* \"#utility.yul\":187:199   */\n      revert\n        /* \"#utility.yul\":334:411   */\n    tag_49:\n        /* \"#utility.yul\":371:378   */\n      0x00\n        /* \"#utility.yul\":400:405   */\n      dup2\n        /* \"#utility.yul\":389:405   */\n      swap1\n      pop\n        /* \"#utility.yul\":334:411   */\n      swap2\n      swap1\n      pop\n      jump\t// out\n        /* \"#utility.yul\":417:539   */\n    tag_50:\n        /* \"#utility.yul\":490:514   */\n      tag_74\n        /* \"#utility.yul\":508:513   */\n      dup2\n        /* \"#utility.yul\":490:514   */\n      tag_49\n      jump\t// in\n    tag_74:\n        /* \"#utility.yul\":483:488   */\n      dup2\n        /* \"#utility.yul\":480:515   */\n      eq\n        /* \"#utility.yul\":470:533   */\n      tag_75\n      jumpi\n        /* \"#utility.yul\":529:530   */\n      0x00\n        /* \"#utility.yul\":526:527   */\n      0x00\n        /* \"#utility.yul\":519:531   */\n      revert\n        /* \"#utility.yul\":470:533   */\n    tag_75:\n        /* \"#utility.yul\":417:539   */\n      pop\n      jump\t// out\n        /* \"#utility.yul\":545:684   */\n    tag_51:\n        /* \"#utility.yul\":591:596   */\n      0x00\n        /* \"#utility.yul\":629:635   */\n      dup2\n        /* \"#utility.yul\":616:636   */\n      calldataload\n        /* \"#utility.yul\":607:636   */\n      swap1\n      pop\n        /* \"#utility.yul\":645:678   */\n      tag_77\n        /* \"#utility.yul\":672:677   */\n      dup2\n        /* \"#utility.yul\":645:678   */\n      tag_50\n      jump\t// in\n    tag_77:\n        /* \"#utility.yul\":545:684   */\n      swap3\n      swap2\n      pop\n      pop\n      jump\t// out\n        /* \"#utility.yul\":690:1019   */\n    tag_10:\n        /* \"#utility.yul\":749:755   */\n      0x00\n        /* \"#utility.yul\":798:800   */\n      0x20\n        /* \"#utility.yul\":786:795   */\n      dup3\n        /* \"#utility.yul\":777:784   */\n      dup5\n        /* \"#utility.yul\":773:796   */\n      sub\n        /* \"#utility.yul\":769:801   */\n      slt\n        /* \"#utility.yul\":766:885   */\n      iszero\n      tag_79\n      jumpi\n        /* \"#utility.yul\":804:883   */\n      tag_80\n      tag_47\n      jump\t// in\n    tag_80:\n        /* \"#utility.yul\":766:885   */\n    tag_79:\n        /* \"#utility.yul\":924:925   */\n      0x00\n        /* \"#utility.yul\":949:1002   */\n      tag_81\n        /* \"#utility.yul\":994:1001   */\n      dup5\n        /* \"#utility.yul\":985:991   */\n      dup3\n        /* \"#utility.yul\":974:983   */\n      dup6\n        /* \"#utility.yul\":970:992   */\n      add\n        /* \"#utility.yul\":949:1002   */\n      tag_51\n      jump\t// in\n    tag_81:\n        /* \"#utility.yul\":939:1002   */\n      swap2\n      pop\n        /* \"#utility.yul\":895:1012   */\n      pop\n        /* \"#utility.yul\":690:1019   */\n      swap3\n      swap2\n      pop\n      pop\n      jump\t// out\n        /* \"#utility.yul\":1025:1151   */\n    tag_52:\n        /* \"#utility.yul\":1062:1069   */\n      0x00\n        /* \"#utility.yul\":1102:1144   */\n      0xffffffffffffffffffffffffffffffffffffffff\n        /* \"#utility.yul\":1095:1100   */\n      dup3\n        /* \"#utility.yul\":1091:1145   */\n      and\n        /* \"#utility.yul\":1080:1145   */\n      swap1\n      pop\n        /* \"#utility.yul\":1025:1151   */\n      swap2\n      swap1\n      pop\n      jump\t// out\n        /* \"#utility.yul\":1157:1253   */\n    tag_53:\n        /* \"#utility.yul\":1194:1201   */\n      0x00\n        /* \"#utility.yul\":1223:1247   */\n      tag_84\n        /* \"#utility.yul\":1241:1246   */\n      dup3\n        /* \"#utility.yul\":1223:1247   */\n      tag_52\n      jump\t// in\n    tag_84:\n        /* \"#utility.yul\":1212:1247   */\n      swap1\n      pop\n        /* \"#utility.yul\":1157:1253   */\n      swap2\n      swap1\n      pop\n      jump\t// out\n        /* \"#utility.yul\":1259:1377   */\n    tag_54:\n        /* \"#utility.yul\":1346:1370   */\n      tag_86\n        /* \"#utility.yul\":1364:1369   */\n      dup2\n        /* \"#utility.yul\":1346:1370   */\n      tag_53\n      jump\t// in\n    tag_86:\n        /* \"#utility.yul\":1341:1344   */\n      dup3\n        /* \"#utility.yul\":1334:1371   */\n      mstore\n        /* \"#utility.yul\":1259:1377   */\n      pop\n      pop\n      jump\t// out\n        /* \"#utility.yul\":1383:1605   */\n    tag_13:\n        /* \"#utility.yul\":1476:1480   */\n      0x00\n        /* \"#utility.yul\":1514:1516   */\n      0x20\n        /* \"#utility.yul\":1503:1512   */\n      dup3\n        /* \"#utility.yul\":1499:1517   */\n      add\n        /* \"#utility.yul\":1491:1517   */\n      swap1\n      pop\n        /* \"#utility.yul\":1527:1598   */\n      tag_88\n        /* \"#utility.yul\":1595:1596   */\n      0x00\n        /* \"#utility.yul\":1584:1593   */\n      dup4\n        /* \"#utility.yul\":1580:1597   */\n      add\n        /* \"#utility.yul\":1571:1577   */\n      dup5\n        /* \"#utility.yul\":1527:1598   */\n      tag_54\n      jump\t// in\n    tag_88:\n        /* \"#utility.yul\":1383:1605   */\n      swap3\n      swap2\n      pop\n      pop\n      jump\t// out\n        /* \"#utility.yul\":1611:1733   */\n    tag_55:\n        /* \"#utility.yul\":1684:1708   */\n      tag_90\n        /* \"#utility.yul\":1702:1707   */\n      dup2\n        /* \"#utility.yul\":1684:1708   */\n      tag_53\n      jump\t// in\n    tag_90:\n        /* \"#utility.yul\":1677:1682   */\n      dup2\n        /* \"#utility.yul\":1674:1709   */\n      eq\n        /* \"#utility.yul\":1664:1727   */\n      tag_91\n      jumpi\n        /* \"#utility.yul\":1723:1724   */\n      0x00\n        /* \"#utility.yul\":1720:1721   */\n      0x00\n        /* \"#utility.yul\":1713:1725   */\n      revert\n        /* \"#utility.yul\":1664:1727   */\n    tag_91:\n        /* \"#utility.yul\":1611:1733   */\n      pop\n      jump\t// out\n        /* \"#utility.yul\":1739:1878   */\n    tag_56:\n        /* \"#utility.yul\":1785:1790   */\n      0x00\n        /* \"#utility.yul\":1823:1829   */\n      dup2\n        /* \"#utility.yul\":1810:1830   */\n      calldataload\n        /* \"#utility.yul\":1801:1830   */\n      swap1\n      pop\n        /* \"#utility.yul\":1839:1872   */\n      tag_93\n        /* \"#utility.yul\":1866:1871   */\n      dup2\n        /* \"#utility.yul\":1839:1872   */\n      tag_55\n      jump\t// in\n    tag_93:\n        /* \"#utility.yul\":1739:1878   */\n      swap3\n      swap2\n      pop\n      pop\n      jump\t// out\n        /* \"#utility.yul\":1884:2213   */\n    tag_16:\n        /* \"#utility.yul\":1943:1949   */\n      0x00\n        /* \"#utility.yul\":1992:1994   */\n      0x20\n        /* \"#utility.yul\":1980:1989   */\n      dup3\n        /* \"#utility.yul\":1971:1978   */\n      dup5\n        /* \"#utility.yul\":1967:1990   */\n      sub\n        /* \"#utility.yul\":1963:1995   */\n      slt\n        /* \"#utility.yul\":1960:2079   */\n      iszero\n      tag_95\n      jumpi\n        /* \"#utility.yul\":1998:2077   */\n      tag_96\n      tag_47\n      jump\t// in\n    tag_96:\n        /* \"#utility.yul\":1960:2079   */\n    tag_95:\n        /* \"#utility.yul\":2118:2119   */\n      0x00\n        /* \"#utility.yul\":2143:2196   */\n      tag_97\n        /* \"#utility.yul\":2188:2195   */\n      dup5\n        /* \"#utility.yul\":2179:2185   */\n      dup3\n        /* \"#utility.yul\":2168:2177   */\n      dup6\n        /* \"#utility.yul\":2164:2186   */\n      add\n        /* \"#utility.yul\":2143:2196   */\n      tag_56\n      jump\t// in\n    tag_97:\n        /* \"#utility.yul\":2133:2196   */\n      swap2\n      pop\n        /* \"#utility.yul\":2089:2206   */\n      pop\n        /* \"#utility.yul\":1884:2213   */\n      swap3\n      swap2\n      pop\n      pop\n      jump\t// out\n        /* \"#utility.yul\":2219:2309   */\n    tag_57:\n        /* \"#utility.yul\":2253:2260   */\n      0x00\n        /* \"#utility.yul\":2296:2301   */\n      dup2\n        /* \"#utility.yul\":2289:2302   */\n      iszero\n        /* \"#utility.yul\":2282:2303   */\n      iszero\n        /* \"#utility.yul\":2271:2303   */\n      swap1\n      pop\n        /* \"#utility.yul\":2219:2309   */\n      swap2\n      swap1\n      pop\n      jump\t// out\n        /* \"#utility.yul\":2315:2424   */\n    tag_58:\n        /* \"#utility.yul\":2396:2417   */\n      tag_100\n        /* \"#utility.yul\":2411:2416   */\n      dup2\n        /* \"#utility.yul\":2396:2417   */\n      tag_57\n      jump\t// in\n    tag_100:\n        /* \"#utility.yul\":2391:2394   */\n      dup3\n        /* \"#utility.yul\":2384:2418   */\n      mstore\n        /* \"#utility.yul\":2315:2424   */\n      pop\n      pop\n      jump\t// out\n        /* \"#utility.yul\":2430:2548   */\n    tag_59:\n        /* \"#utility.yul\":2517:2541   */\n      tag_102\n        /* \"#utility.yul\":2535:2540   */\n      dup2\n        /* \"#utility.yul\":2517:2541   */\n      tag_49\n      jump\t// in\n    tag_102:\n        /* \"#utility.yul\":2512:2515   */\n      dup3\n        /* \"#utility.yul\":2505:2542   */\n      mstore\n        /* \"#utility.yul\":2430:2548   */\n      pop\n      pop\n      jump\t// out\n        /* \"#utility.yul\":2554:3095   */\n    tag_19:\n        /* \"#utility.yul\":2725:2729   */\n      0x00\n        /* \"#utility.yul\":2763:2766   */\n      0x80\n        /* \"#utility.yul\":2752:2761   */\n      dup3\n        /* \"#utility.yul\":2748:2767   */\n      add\n        /* \"#utility.yul\":2740:2767   */\n      swap1\n      pop\n        /* \"#utility.yul\":2777:2848   */\n      tag_104\n        /* \"#utility.yul\":2845:2846   */\n      0x00\n        /* \"#utility.yul\":2834:2843   */\n      dup4\n        /* \"#utility.yul\":2830:2847   */\n      add\n        /* \"#utility.yul\":2821:2827   */\n      dup8\n        /* \"#utility.yul\":2777:2848   */\n      tag_54\n      jump\t// in\n    tag_104:\n        /* \"#utility.yul\":2858:2924   */\n      tag_105\n        /* \"#utility.yul\":2920:2922   */\n      0x20\n        /* \"#utility.yul\":2909:2918   */\n      dup4\n        /* \"#utility.yul\":2905:2923   */\n      add\n        /* \"#utility.yul\":2896:2902   */\n      dup7\n        /* \"#utility.yul\":2858:2924   */\n      tag_58\n      jump\t// in\n    tag_105:\n        /* \"#utility.yul\":2934:3006   */\n      tag_106\n        /* \"#utility.yul\":3002:3004   */\n      0x40\n        /* \"#utility.yul\":2991:3000   */\n      dup4\n        /* \"#utility.yul\":2987:3005   */\n      add\n        /* \"#utility.yul\":2978:2984   */\n      dup6\n        /* \"#utility.yul\":2934:3006   */\n      tag_59\n      jump\t// in\n    tag_106:\n        /* \"#utility.yul\":3016:3088   */\n      tag_107\n        /* \"#utility.yul\":3084:3086   */\n      0x60\n        /* \"#utility.yul\":3073:3082   */\n      dup4\n        /* \"#utility.yul\":3069:3087   */\n      add\n        /* \"#utility.yul\":3060:3066   */\n      dup5\n        /* \"#utility.yul\":3016:3088   */\n      tag_59\n      jump\t// in\n    tag_107:\n        /* \"#utility.yul\":2554:3095   */\n      swap6\n      swap5\n      pop\n      pop\n      pop\n      pop\n      pop\n      jump\t// out\n        /* \"#utility.yul\":3101:3323   */\n    tag_26:\n        /* \"#utility.yul\":3194:3198   */\n      0x00\n        /* \"#utility.yul\":3232:3234   */\n      0x20\n        /* \"#utility.yul\":3221:3230   */\n      dup3\n        /* \"#utility.yul\":3217:3235   */\n      add\n        /* \"#utility.yul\":3209:3235   */\n      swap1\n      pop\n        /* \"#utility.yul\":3245:3316   */\n      tag_109\n        /* \"#utility.yul\":3313:3314   */\n      0x00\n        /* \"#utility.yul\":3302:3311   */\n      dup4\n        /* \"#utility.yul\":3298:3315   */\n      add\n        /* \"#utility.yul\":3289:3295   */\n      dup5\n        /* \"#utility.yul\":3245:3316   */\n      tag_59\n      jump\t// in\n    tag_109:\n        /* \"#utility.yul\":3101:3323   */\n      swap3\n      swap2\n      pop\n      pop\n      jump\t// out\n        /* \"#utility.yul\":3329:3509   */\n    tag_60:\n        /* \"#utility.yul\":3377:3454   */\n      0x4e487b7100000000000000000000000000000000000000000000000000000000\n        /* \"#utility.yul\":3374:3375   */\n      0x00\n        /* \"#utility.yul\":3367:3455   */\n      mstore\n        /* \"#utility.yul\":3474:3478   */\n      0x11\n        /* \"#utility.yul\":3471:3472   */\n      0x04\n        /* \"#utility.yul\":3464:3479   */\n      mstore\n        /* \"#utility.yul\":3498:3502   */\n      0x24\n        /* \"#utility.yul\":3495:3496   */\n      0x00\n        /* \"#utility.yul\":3488:3503   */\n      revert\n        /* \"#utility.yul\":3515:3706   */\n    tag_35:\n        /* \"#utility.yul\":3555:3558   */\n      0x00\n        /* \"#utility.yul\":3574:3594   */\n      tag_112\n        /* \"#utility.yul\":3592:3593   */\n      dup3\n        /* \"#utility.yul\":3574:3594   */\n      tag_49\n      jump\t// in\n    tag_112:\n        /* \"#utility.yul\":3569:3594   */\n      swap2\n      pop\n        /* \"#utility.yul\":3608:3628   */\n      tag_113\n        /* \"#utility.yul\":3626:3627   */\n      dup4\n        /* \"#utility.yul\":3608:3628   */\n      tag_49\n      jump\t// in\n    tag_113:\n        /* \"#utility.yul\":3603:3628   */\n      swap3\n      pop\n        /* \"#utility.yul\":3651:3652   */\n      dup3\n        /* \"#utility.yul\":3648:3649   */\n      dup3\n        /* \"#utility.yul\":3644:3653   */\n      add\n        /* \"#utility.yul\":3637:3653   */\n      swap1\n      pop\n        /* \"#utility.yul\":3672:3675   */\n      dup1\n        /* \"#utility.yul\":3669:3670   */\n      dup3\n        /* \"#utility.yul\":3666:3676   */\n      gt\n        /* \"#utility.yul\":3663:3699   */\n      iszero\n      tag_114\n      jumpi\n        /* \"#utility.yul\":3679:3697   */\n      tag_115\n      tag_60\n      jump\t// in\n    tag_115:\n        /* \"#utility.yul\":3663:3699   */\n    tag_114:\n        /* \"#utility.yul\":3515:3706   */\n      swap3\n      swap2\n      pop\n      pop\n      jump\t// out\n        /* \"#utility.yul\":3712:4044   */\n    tag_40:\n        /* \"#utility.yul\":3833:3837   */\n      0x00\n        /* \"#utility.yul\":3871:3873   */\n      0x40\n        /* \"#utility.yul\":3860:3869   */\n      dup3\n        /* \"#utility.yul\":3856:3874   */\n      add\n        /* \"#utility.yul\":3848:3874   */\n      swap1\n      pop\n        /* \"#utility.yul\":3884:3955   */\n      tag_117\n        /* \"#utility.yul\":3952:3953   */\n      0x00\n        /* \"#utility.yul\":3941:3950   */\n      dup4\n        /* \"#utility.yul\":3937:3954   */\n      add\n        /* \"#utility.yul\":3928:3934   */\n      dup6\n        /* \"#utility.yul\":3884:3955   */\n      tag_59\n      jump\t// in\n    tag_117:\n        /* \"#utility.yul\":3965:4037   */\n      tag_118\n        /* \"#utility.yul\":4033:4035   */\n      0x20\n        /* \"#utility.yul\":4022:4031   */\n      dup4\n        /* \"#utility.yul\":4018:4036   */\n      add\n        /* \"#utility.yul\":4009:4015   */\n      dup5\n        /* \"#utility.yul\":3965:4037   */\n      tag_59\n      jump\t// in\n    tag_118:\n        /* \"#utility.yul\":3712:4044   */\n      swap4\n      swap3\n      pop\n      pop\n      pop\n      jump\t// out\n        /* \"#utility.yul\":4050:4129   */\n    tag_61:\n        /* \"#utility.yul\":4089:4096   */\n      0x00\n        /* \"#utility.yul\":4118:4123   */\n      dup2\n        /* \"#utility.yul\":4107:4123   */\n      swap1\n      pop\n        /* \"#utility.yul\":4050:4129   */\n      swap2\n      swap1\n      pop\n      jump\t// out\n        /* \"#utility.yul\":4135:4292   */\n    tag_62:\n        /* \"#utility.yul\":4240:4285   */\n      tag_121\n        /* \"#utility.yul\":4260:4284   */\n      tag_122\n        /* \"#utility.yul\":4278:4283   */\n      dup3\n        /* \"#utility.yul\":4260:4284   */\n      tag_49\n      jump\t// in\n    tag_122:\n        /* \"#utility.yul\":4240:4285   */\n      tag_61\n      jump\t// in\n    tag_121:\n        /* \"#utility.yul\":4235:4238   */\n      dup3\n        /* \"#utility.yul\":4228:4286   */\n      mstore\n        /* \"#utility.yul\":4135:4292   */\n      pop\n      pop\n      jump\t// out\n        /* \"#utility.yul\":4298:4392   */\n    tag_63:\n        /* \"#utility.yul\":4331:4339   */\n      0x00\n        /* \"#utility.yul\":4379:4384   */\n      dup2\n        /* \"#utility.yul\":4375:4377   */\n      0x60\n        /* \"#utility.yul\":4371:4385   */\n      shl\n        /* \"#utility.yul\":4350:4385   */\n      swap1\n      pop\n        /* \"#utility.yul\":4298:4392   */\n      swap2\n      swap1\n      pop\n      jump\t// out\n        /* \"#utility.yul\":4398:4492   */\n    tag_64:\n        /* \"#utility.yul\":4437:4444   */\n      0x00\n        /* \"#utility.yul\":4466:4486   */\n      tag_125\n        /* \"#utility.yul\":4480:4485   */\n      dup3\n        /* \"#utility.yul\":4466:4486   */\n      tag_63\n      jump\t// in\n    tag_125:\n        /* \"#utility.yul\":4455:4486   */\n      swap1\n      pop\n        /* \"#utility.yul\":4398:4492   */\n      swap2\n      swap1\n      pop\n      jump\t// out\n        /* \"#utility.yul\":4498:4598   */\n    tag_65:\n        /* \"#utility.yul\":4537:4544   */\n      0x00\n        /* \"#utility.yul\":4566:4592   */\n      tag_127\n        /* \"#utility.yul\":4586:4591   */\n      dup3\n        /* \"#utility.yul\":4566:4592   */\n      tag_64\n      jump\t// in\n    tag_127:\n        /* \"#utility.yul\":4555:4592   */\n      swap1\n      pop\n        /* \"#utility.yul\":4498:4598   */\n      swap2\n      swap1\n      pop\n      jump\t// out\n        /* \"#utility.yul\":4604:4761   */\n    tag_66:\n        /* \"#utility.yul\":4709:4754   */\n      tag_129\n        /* \"#utility.yul\":4729:4753   */\n      tag_130\n        /* \"#utility.yul\":4747:4752   */\n      dup3\n        /* \"#utility.yul\":4729:4753   */\n      tag_53\n      jump\t// in\n    tag_130:\n        /* \"#utility.yul\":4709:4754   */\n      tag_65\n      jump\t// in\n    tag_129:\n        /* \"#utility.yul\":4704:4707   */\n      dup3\n        /* \"#utility.yul\":4697:4755   */\n      mstore\n        /* \"#utility.yul\":4604:4761   */\n      pop\n      pop\n      jump\t// out\n        /* \"#utility.yul\":4767:5305   */\n    tag_43:\n        /* \"#utility.yul\":4935:4938   */\n      0x00\n        /* \"#utility.yul\":4950:5025   */\n      tag_132\n        /* \"#utility.yul\":5021:5024   */\n      dup3\n        /* \"#utility.yul\":5012:5018   */\n      dup7\n        /* \"#utility.yul\":4950:5025   */\n      tag_62\n      jump\t// in\n    tag_132:\n        /* \"#utility.yul\":5050:5052   */\n      0x20\n        /* \"#utility.yul\":5045:5048   */\n      dup3\n        /* \"#utility.yul\":5041:5053   */\n      add\n        /* \"#utility.yul\":5034:5053   */\n      swap2\n      pop\n        /* \"#utility.yul\":5063:5138   */\n      tag_133\n        /* \"#utility.yul\":5134:5137   */\n      dup3\n        /* \"#utility.yul\":5125:5131   */\n      dup6\n        /* \"#utility.yul\":5063:5138   */\n      tag_62\n      jump\t// in\n    tag_133:\n        /* \"#utility.yul\":5163:5165   */\n      0x20\n        /* \"#utility.yul\":5158:5161   */\n      dup3\n        /* \"#utility.yul\":5154:5166   */\n      add\n        /* \"#utility.yul\":5147:5166   */\n      swap2\n      pop\n        /* \"#utility.yul\":5176:5251   */\n      tag_134\n        /* \"#utility.yul\":5247:5250   */\n      dup3\n        /* \"#utility.yul\":5238:5244   */\n      dup5\n        /* \"#utility.yul\":5176:5251   */\n      tag_66\n      jump\t// in\n    tag_134:\n        /* \"#utility.yul\":5276:5278   */\n      0x14\n        /* \"#utility.yul\":5271:5274   */\n      dup3\n        /* \"#utility.yul\":5267:5279   */\n      add\n        /* \"#utility.yul\":5260:5279   */\n      swap2\n      pop\n        /* \"#utility.yul\":5296:5299   */\n      dup2\n        /* \"#utility.yul\":5289:5299   */\n      swap1\n      pop\n        /* \"#utility.yul\":4767:5305   */\n      swap5\n      swap4\n      pop\n      pop\n      pop\n      pop\n      jump\t// out\n        /* \"#utility.yul\":5311:5491   */\n    tag_67:\n        /* \"#utility.yul\":5359:5436   */\n      0x4e487b7100000000000000000000000000000000000000000000000000000000\n        /* \"#utility.yul\":5356:5357   */\n      0x00\n        /* \"#utility.yul\":5349:5437   */\n      mstore\n        /* \"#utility.yul\":5456:5460   */\n      0x12\n        /* \"#utility.yul\":5453:5454   */\n      0x04\n        /* \"#utility.yul\":5446:5461   */\n      mstore\n        /* \"#utility.yul\":5480:5484   */\n      0x24\n        /* \"#utility.yul\":5477:5478   */\n      0x00\n        /* \"#utility.yul\":5470:5485   */\n      revert\n        /* \"#utility.yul\":5497:5673   */\n    tag_45:\n        /* \"#utility.yul\":5529:5530   */\n      0x00\n        /* \"#utility.yul\":5546:5566   */\n      tag_137\n        /* \"#utility.yul\":5564:5565   */\n      dup3\n        /* \"#utility.yul\":5546:5566   */\n      tag_49\n      jump\t// in\n    tag_137:\n        /* \"#utility.yul\":5541:5566   */\n      swap2\n      pop\n        /* \"#utility.yul\":5580:5600   */\n      tag_138\n        /* \"#utility.yul\":5598:5599   */\n      dup4\n        /* \"#utility.yul\":5580:5600   */\n      tag_49\n      jump\t// in\n    tag_138:\n        /* \"#utility.yul\":5575:5600   */\n      swap3\n      pop\n        /* \"#utility.yul\":5619:5620   */\n      dup3\n        /* \"#utility.yul\":5609:5644   */\n      tag_139\n      jumpi\n        /* \"#utility.yul\":5624:5642   */\n      tag_140\n      tag_67\n      jump\t// in\n    tag_140:\n        /* \"#utility.yul\":5609:5644   */\n    tag_139:\n        /* \"#utility.yul\":5665:5666   */\n      dup3\n        /* \"#utility.yul\":5662:5663   */\n      dup3\n        /* \"#utility.yul\":5658:5667   */\n      mod\n        /* \"#utility.yul\":5653:5667   */\n      swap1\n      pop\n        /* \"#utility.yul\":5497:5673   */\n      swap3\n      swap2\n      pop\n      pop\n      jump\t// out\n\n    auxdata: 0xa264697066735822122033252fb569711ef1553bc06cbb41f4879d33f439a1745873004b3c7b8fbc64b164736f6c634300081e0033\n}\n",
				"bytecode": {
					"linkReferences": {},
					"object": "6080604052348015600e575f5ffd5b506107a88061001c5f395ff3fe608060405234801561000f575f5ffd5b5060043610610055575f3560e01c80630544ce5e146100595780635d0eaaaf146100895780636898f82b146100bc57806385b7df02146100d8578063eea760b3146100f6575b5f5ffd5b610073600480360381019061006e9190610490565b610100565b60405161008091906104fa565b60405180910390f35b6100a3600480360381019061009e919061053d565b61013b565b6040516100b39493929190610591565b60405180910390f35b6100d660048036038101906100d19190610490565b610192565b005b6100e061040f565b6040516100ed91906105d4565b60405180910390f35b6100fe610414565b005b6002818154811061010f575f80fd5b905f5260205f20015f915054906101000a900473ffffffffffffffffffffffffffffffffffffffff1681565b6001602052805f5260405f205f91509050805f015f9054906101000a900473ffffffffffffffffffffffffffffffffffffffff1690805f0160149054906101000a900460ff16908060010154908060020154905084565b60015f3373ffffffffffffffffffffffffffffffffffffffff1673ffffffffffffffffffffffffffffffffffffffff1681526020019081526020015f205f0160149054906101000a900460ff16610318573360015f3373ffffffffffffffffffffffffffffffffffffffff1673ffffffffffffffffffffffffffffffffffffffff1681526020019081526020015f205f015f6101000a81548173ffffffffffffffffffffffffffffffffffffffff021916908373ffffffffffffffffffffffffffffffffffffffff1602179055506001805f3373ffffffffffffffffffffffffffffffffffffffff1673ffffffffffffffffffffffffffffffffffffffff1681526020019081526020015f205f0160146101000a81548160ff021916908315150217905550600233908060018154018082558091505060019003905f5260205f20015f9091909190916101000a81548173ffffffffffffffffffffffffffffffffffffffff021916908373ffffffffffffffffffffffffffffffffffffffff1602179055505b6001805f3373ffffffffffffffffffffffffffffffffffffffff1673ffffffffffffffffffffffffffffffffffffffff1681526020019081526020015f206001015f828254610367919061061a565b925050819055505f5481036103d1576001805f3373ffffffffffffffffffffffffffffffffffffffff1673ffffffffffffffffffffffffffffffffffffffff1681526020019081526020015f206002015f8282546103c5919061061a565b9250508190555061040c565b7f11054b391290bd0462e0600d8bb0e55a53a33121443b53e344f640a970ad5492815f5460405161040392919061064d565b60405180910390a15b50565b5f5481565b5f42443360405160200161042a939291906106d9565b604051602081830303815290604052805190602001205f1c90506064816104519190610742565b5f8190555050565b5f5ffd5b5f819050919050565b61046f8161045d565b8114610479575f5ffd5b50565b5f8135905061048a81610466565b92915050565b5f602082840312156104a5576104a4610459565b5b5f6104b28482850161047c565b91505092915050565b5f73ffffffffffffffffffffffffffffffffffffffff82169050919050565b5f6104e4826104bb565b9050919050565b6104f4816104da565b82525050565b5f60208201905061050d5f8301846104eb565b92915050565b61051c816104da565b8114610526575f5ffd5b50565b5f8135905061053781610513565b92915050565b5f6020828403121561055257610551610459565b5b5f61055f84828501610529565b91505092915050565b5f8115159050919050565b61057c81610568565b82525050565b61058b8161045d565b82525050565b5f6080820190506105a45f8301876104eb565b6105b16020830186610573565b6105be6040830185610582565b6105cb6060830184610582565b95945050505050565b5f6020820190506105e75f830184610582565b92915050565b7f4e487b71000000000000000000000000000000000000000000000000000000005f52601160045260245ffd5b5f6106248261045d565b915061062f8361045d565b9250828201905080821115610647576106466105ed565b5b92915050565b5f6040820190506106605f830185610582565b61066d6020830184610582565b9392505050565b5f819050919050565b61068e6106898261045d565b610674565b82525050565b5f8160601b9050919050565b5f6106aa82610694565b9050919050565b5f6106bb826106a0565b9050919050565b6106d36106ce826104da565b6106b1565b82525050565b5f6106e4828661067d565b6020820191506106f4828561067d565b60208201915061070482846106c2565b601482019150819050949350505050565b7f4e487b71000000000000000000000000000000000000000000000000000000005f52601260045260245ffd5b5f61074c8261045d565b91506107578361045d565b92508261076757610766610715565b5b82820690509291505056fea264697066735822122033252fb569711ef1553bc06cbb41f4879d33f439a1745873004b3c7b8fbc64b164736f6c634300081e0033",
					"opcodes": "PUSH1 0x80 PUSH1 0x40 MSTORE CALLVALUE DUP1 ISZERO PUSH1 0xE JUMPI PUSH0 PUSH0 REVERT JUMPDEST POP PUSH2 0x7A8 DUP1 PUSH2 0x1C PUSH0 CODECOPY PUSH0 RETURN INVALID PUSH1 0x80 PUSH1 0x40 MSTORE CALLVALUE DUP1 ISZERO PUSH2 0xF JUMPI PUSH0 PUSH0 REVERT JUMPDEST POP PUSH1 0x4 CALLDATASIZE LT PUSH2 0x55 JUMPI PUSH0 CALLDATALOAD PUSH1 0xE0 SHR DUP1 PUSH4 0x544CE5E EQ PUSH2 0x59 JUMPI DUP1 PUSH4 0x5D0EAAAF EQ PUSH2 0x89 JUMPI DUP1 PUSH4 0x6898F82B EQ PUSH2 0xBC JUMPI DUP1 PUSH4 0x85B7DF02 EQ PUSH2 0xD8 JUMPI DUP1 PUSH4 0xEEA760B3 EQ PUSH2 0xF6 JUMPI JUMPDEST PUSH0 PUSH0 REVERT JUMPDEST PUSH2 0x73 PUSH1 0x4 DUP1 CALLDATASIZE SUB DUP2 ADD SWAP1 PUSH2 0x6E SWAP2 SWAP1 PUSH2 0x490 JUMP JUMPDEST PUSH2 0x100 JUMP JUMPDEST PUSH1 0x40 MLOAD PUSH2 0x80 SWAP2 SWAP1 PUSH2 0x4FA JUMP JUMPDEST PUSH1 0x40 MLOAD DUP1 SWAP2 SUB SWAP1 RETURN JUMPDEST PUSH2 0xA3 PUSH1 0x4 DUP1 CALLDATASIZE SUB DUP2 ADD SWAP1 PUSH2 0x9E SWAP2 SWAP1 PUSH2 0x53D JUMP JUMPDEST PUSH2 0x13B JUMP JUMPDEST PUSH1 0x40 MLOAD PUSH2 0xB3 SWAP5 SWAP4 SWAP3 SWAP2 SWAP1 PUSH2 0x591 JUMP JUMPDEST PUSH1 0x40 MLOAD DUP1 SWAP2 SUB SWAP1 RETURN JUMPDEST PUSH2 0xD6 PUSH1 0x4 DUP1 CALLDATASIZE SUB DUP2 ADD SWAP1 PUSH2 0xD1 SWAP2 SWAP1 PUSH2 0x490 JUMP JUMPDEST PUSH2 0x192 JUMP JUMPDEST STOP JUMPDEST PUSH2 0xE0 PUSH2 0x40F JUMP JUMPDEST PUSH1 0x40 MLOAD PUSH2 0xED SWAP2 SWAP1 PUSH2 0x5D4 JUMP JUMPDEST PUSH1 0x40 MLOAD DUP1 SWAP2 SUB SWAP1 RETURN JUMPDEST PUSH2 0xFE PUSH2 0x414 JUMP JUMPDEST STOP JUMPDEST PUSH1 0x2 DUP2 DUP2 SLOAD DUP2 LT PUSH2 0x10F JUMPI PUSH0 DUP1 REVERT JUMPDEST SWAP1 PUSH0 MSTORE PUSH1 0x20 PUSH0 KECCAK256 ADD PUSH0 SWAP2 POP SLOAD SWAP1 PUSH2 0x100 EXP SWAP1 DIV PUSH20 0xFFFFFFFFFFFFFFFFFFFFFFFFFFFFFFFFFFFFFFFF AND DUP2 JUMP JUMPDEST PUSH1 0x1 PUSH1 0x20 MSTORE DUP1 PUSH0 MSTORE PUSH1 0x40 PUSH0 KECCAK256 PUSH0 SWAP2 POP SWAP1 POP DUP1 PUSH0 ADD PUSH0 SWAP1 SLOAD SWAP1 PUSH2 0x100 EXP SWAP1 DIV PUSH20 0xFFFFFFFFFFFFFFFFFFFFFFFFFFFFFFFFFFFFFFFF AND SWAP1 DUP1 PUSH0 ADD PUSH1 0x14 SWAP1 SLOAD SWAP1 PUSH2 0x100 EXP SWAP1 DIV PUSH1 0xFF AND SWAP1 DUP1 PUSH1 0x1 ADD SLOAD SWAP1 DUP1 PUSH1 0x2 ADD SLOAD SWAP1 POP DUP5 JUMP JUMPDEST PUSH1 0x1 PUSH0 CALLER PUSH20 0xFFFFFFFFFFFFFFFFFFFFFFFFFFFFFFFFFFFFFFFF AND PUSH20 0xFFFFFFFFFFFFFFFFFFFFFFFFFFFFFFFFFFFFFFFF AND DUP2 MSTORE PUSH1 0x20 ADD SWAP1 DUP2 MSTORE PUSH1 0x20 ADD PUSH0 KECCAK256 PUSH0 ADD PUSH1 0x14 SWAP1 SLOAD SWAP1 PUSH2 0x100 EXP SWAP1 DIV PUSH1 0xFF AND PUSH2 0x318 JUMPI CALLER PUSH1 0x1 PUSH0 CALLER PUSH20 0xFFFFFFFFFFFFFFFFFFFFFFFFFFFFFFFFFFFFFFFF AND PUSH20 0xFFFFFFFFFFFFFFFFFFFFFFFFFFFFFFFFFFFFFFFF AND DUP2 MSTORE PUSH1 0x20 ADD SWAP1 DUP2 MSTORE PUSH1 0x20 ADD PUSH0 KECCAK256 PUSH0 ADD PUSH0 PUSH2 0x100 EXP DUP2 SLOAD DUP2 PUSH20 0xFFFFFFFFFFFFFFFFFFFFFFFFFFFFFFFFFFFFFFFF MUL NOT AND SWAP1 DUP4 PUSH20 0xFFFFFFFFFFFFFFFFFFFFFFFFFFFFFFFFFFFFFFFF AND MUL OR SWAP1 SSTORE POP PUSH1 0x1 DUP1 PUSH0 CALLER PUSH20 0xFFFFFFFFFFFFFFFFFFFFFFFFFFFFFFFFFFFFFFFF AND PUSH20 0xFFFFFFFFFFFFFFFFFFFFFFFFFFFFFFFFFFFFFFFF AND DUP2 MSTORE PUSH1 0x20 ADD SWAP1 DUP2 MSTORE PUSH1 0x20 ADD PUSH0 KECCAK256 PUSH0 ADD PUSH1 0x14 PUSH2 0x100 EXP DUP2 SLOAD DUP2 PUSH1 0xFF MUL NOT AND SWAP1 DUP4 ISZERO ISZERO MUL OR SWAP1 SSTORE POP PUSH1 0x2 CALLER SWAP1 DUP1 PUSH1 0x1 DUP2 SLOAD ADD DUP1 DUP3 SSTORE DUP1 SWAP2 POP POP PUSH1 0x1 SWAP1 SUB SWAP1 PUSH0 MSTORE PUSH1 0x20 PUSH0 KECCAK256 ADD PUSH0 SWAP1 SWAP2 SWAP1 SWAP2 SWAP1 SWAP2 PUSH2 0x100 EXP DUP2 SLOAD DUP2 PUSH20 0xFFFFFFFFFFFFFFFFFFFFFFFFFFFFFFFFFFFFFFFF MUL NOT AND SWAP1 DUP4 PUSH20 0xFFFFFFFFFFFFFFFFFFFFFFFFFFFFFFFFFFFFFFFF AND MUL OR SWAP1 SSTORE POP JUMPDEST PUSH1 0x1 DUP1 PUSH0 CALLER PUSH20 0xFFFFFFFFFFFFFFFFFFFFFFFFFFFFFFFFFFFFFFFF AND PUSH20 0xFFFFFFFFFFFFFFFFFFFFFFFFFFFFFFFFFFFFFFFF AND DUP2 MSTORE PUSH1 0x20 ADD SWAP1 DUP2 MSTORE PUSH1 0x20 ADD PUSH0 KECCAK256 PUSH1 0x1 ADD PUSH0 DUP3 DUP3 SLOAD PUSH2 0x367 SWAP2 SWAP1 PUSH2 0x61A JUMP JUMPDEST SWAP3 POP POP DUP2 SWAP1 SSTORE POP PUSH0 SLOAD DUP2 SUB PUSH2 0x3D1 JUMPI PUSH1 0x1 DUP1 PUSH0 CALLER PUSH20 0xFFFFFFFFFFFFFFFFFFFFFFFFFFFFFFFFFFFFFFFF AND PUSH20 0xFFFFFFFFFFFFFFFFFFFFFFFFFFFFFFFFFFFFFFFF AND DUP2 MSTORE PUSH1 0x20 ADD SWAP1 DUP2 MSTORE PUSH1 0x20 ADD PUSH0 KECCAK256 PUSH1 0x2 ADD PUSH0 DUP3 DUP3 SLOAD PUSH2 0x3C5 SWAP2 SWAP1 PUSH2 0x61A JUMP JUMPDEST SWAP3 POP POP DUP2 SWAP1 SSTORE POP PUSH2 0x40C JUMP JUMPDEST PUSH32 0x11054B391290BD0462E0600D8BB0E55A53A33121443B53E344F640A970AD5492 DUP2 PUSH0 SLOAD PUSH1 0x40 MLOAD PUSH2 0x403 SWAP3 SWAP2 SWAP1 PUSH2 0x64D JUMP JUMPDEST PUSH1 0x40 MLOAD DUP1 SWAP2 SUB SWAP1 LOG1 JUMPDEST POP JUMP JUMPDEST PUSH0 SLOAD DUP2 JUMP JUMPDEST PUSH0 TIMESTAMP PREVRANDAO CALLER PUSH1 0x40 MLOAD PUSH1 0x20 ADD PUSH2 0x42A SWAP4 SWAP3 SWAP2 SWAP1 PUSH2 0x6D9 JUMP JUMPDEST PUSH1 0x40 MLOAD PUSH1 0x20 DUP2 DUP4 SUB SUB DUP2 MSTORE SWAP1 PUSH1 0x40 MSTORE DUP1 MLOAD SWAP1 PUSH1 0x20 ADD KECCAK256 PUSH0 SHR SWAP1 POP PUSH1 0x64 DUP2 PUSH2 0x451 SWAP2 SWAP1 PUSH2 0x742 JUMP JUMPDEST PUSH0 DUP2 SWAP1 SSTORE POP POP JUMP JUMPDEST PUSH0 PUSH0 REVERT JUMPDEST PUSH0 DUP2 SWAP1 POP SWAP2 SWAP1 POP JUMP JUMPDEST PUSH2 0x46F DUP2 PUSH2 0x45D JUMP JUMPDEST DUP2 EQ PUSH2 0x479 JUMPI PUSH0 PUSH0 REVERT JUMPDEST POP JUMP JUMPDEST PUSH0 DUP2 CALLDATALOAD SWAP1 POP PUSH2 0x48A DUP2 PUSH2 0x466 JUMP JUMPDEST SWAP3 SWAP2 POP POP JUMP JUMPDEST PUSH0 PUSH1 0x20 DUP3 DUP5 SUB SLT ISZERO PUSH2 0x4A5 JUMPI PUSH2 0x4A4 PUSH2 0x459 JUMP JUMPDEST JUMPDEST PUSH0 PUSH2 0x4B2 DUP5 DUP3 DUP6 ADD PUSH2 0x47C JUMP JUMPDEST SWAP2 POP POP SWAP3 SWAP2 POP POP JUMP JUMPDEST PUSH0 PUSH20 0xFFFFFFFFFFFFFFFFFFFFFFFFFFFFFFFFFFFFFFFF DUP3 AND SWAP1 POP SWAP2 SWAP1 POP JUMP JUMPDEST PUSH0 PUSH2 0x4E4 DUP3 PUSH2 0x4BB JUMP JUMPDEST SWAP1 POP SWAP2 SWAP1 POP JUMP JUMPDEST PUSH2 0x4F4 DUP2 PUSH2 0x4DA JUMP JUMPDEST DUP3 MSTORE POP POP JUMP JUMPDEST PUSH0 PUSH1 0x20 DUP3 ADD SWAP1 POP PUSH2 0x50D PUSH0 DUP4 ADD DUP5 PUSH2 0x4EB JUMP JUMPDEST SWAP3 SWAP2 POP POP JUMP JUMPDEST PUSH2 0x51C DUP2 PUSH2 0x4DA JUMP JUMPDEST DUP2 EQ PUSH2 0x526 JUMPI PUSH0 PUSH0 REVERT JUMPDEST POP JUMP JUMPDEST PUSH0 DUP2 CALLDATALOAD SWAP1 POP PUSH2 0x537 DUP2 PUSH2 0x513 JUMP JUMPDEST SWAP3 SWAP2 POP POP JUMP JUMPDEST PUSH0 PUSH1 0x20 DUP3 DUP5 SUB SLT ISZERO PUSH2 0x552 JUMPI PUSH2 0x551 PUSH2 0x459 JUMP JUMPDEST JUMPDEST PUSH0 PUSH2 0x55F DUP5 DUP3 DUP6 ADD PUSH2 0x529 JUMP JUMPDEST SWAP2 POP POP SWAP3 SWAP2 POP POP JUMP JUMPDEST PUSH0 DUP2 ISZERO ISZERO SWAP1 POP SWAP2 SWAP1 POP JUMP JUMPDEST PUSH2 0x57C DUP2 PUSH2 0x568 JUMP JUMPDEST DUP3 MSTORE POP POP JUMP JUMPDEST PUSH2 0x58B DUP2 PUSH2 0x45D JUMP JUMPDEST DUP3 MSTORE POP POP JUMP JUMPDEST PUSH0 PUSH1 0x80 DUP3 ADD SWAP1 POP PUSH2 0x5A4 PUSH0 DUP4 ADD DUP8 PUSH2 0x4EB JUMP JUMPDEST PUSH2 0x5B1 PUSH1 0x20 DUP4 ADD DUP7 PUSH2 0x573 JUMP JUMPDEST PUSH2 0x5BE PUSH1 0x40 DUP4 ADD DUP6 PUSH2 0x582 JUMP JUMPDEST PUSH2 0x5CB PUSH1 0x60 DUP4 ADD DUP5 PUSH2 0x582 JUMP JUMPDEST SWAP6 SWAP5 POP POP POP POP POP JUMP JUMPDEST PUSH0 PUSH1 0x20 DUP3 ADD SWAP1 POP PUSH2 0x5E7 PUSH0 DUP4 ADD DUP5 PUSH2 0x582 JUMP JUMPDEST SWAP3 SWAP2 POP POP JUMP JUMPDEST PUSH32 0x4E487B7100000000000000000000000000000000000000000000000000000000 PUSH0 MSTORE PUSH1 0x11 PUSH1 0x4 MSTORE PUSH1 0x24 PUSH0 REVERT JUMPDEST PUSH0 PUSH2 0x624 DUP3 PUSH2 0x45D JUMP JUMPDEST SWAP2 POP PUSH2 0x62F DUP4 PUSH2 0x45D JUMP JUMPDEST SWAP3 POP DUP3 DUP3 ADD SWAP1 POP DUP1 DUP3 GT ISZERO PUSH2 0x647 JUMPI PUSH2 0x646 PUSH2 0x5ED JUMP JUMPDEST JUMPDEST SWAP3 SWAP2 POP POP JUMP JUMPDEST PUSH0 PUSH1 0x40 DUP3 ADD SWAP1 POP PUSH2 0x660 PUSH0 DUP4 ADD DUP6 PUSH2 0x582 JUMP JUMPDEST PUSH2 0x66D PUSH1 0x20 DUP4 ADD DUP5 PUSH2 0x582 JUMP JUMPDEST SWAP4 SWAP3 POP POP POP JUMP JUMPDEST PUSH0 DUP2 SWAP1 POP SWAP2 SWAP1 POP JUMP JUMPDEST PUSH2 0x68E PUSH2 0x689 DUP3 PUSH2 0x45D JUMP JUMPDEST PUSH2 0x674 JUMP JUMPDEST DUP3 MSTORE POP POP JUMP JUMPDEST PUSH0 DUP2 PUSH1 0x60 SHL SWAP1 POP SWAP2 SWAP1 POP JUMP JUMPDEST PUSH0 PUSH2 0x6AA DUP3 PUSH2 0x694 JUMP JUMPDEST SWAP1 POP SWAP2 SWAP1 POP JUMP JUMPDEST PUSH0 PUSH2 0x6BB DUP3 PUSH2 0x6A0 JUMP JUMPDEST SWAP1 POP SWAP2 SWAP1 POP JUMP JUMPDEST PUSH2 0x6D3 PUSH2 0x6CE DUP3 PUSH2 0x4DA JUMP JUMPDEST PUSH2 0x6B1 JUMP JUMPDEST DUP3 MSTORE POP POP JUMP JUMPDEST PUSH0 PUSH2 0x6E4 DUP3 DUP7 PUSH2 0x67D JUMP JUMPDEST PUSH1 0x20 DUP3 ADD SWAP2 POP PUSH2 0x6F4 DUP3 DUP6 PUSH2 0x67D JUMP JUMPDEST PUSH1 0x20 DUP3 ADD SWAP2 POP PUSH2 0x704 DUP3 DUP5 PUSH2 0x6C2 JUMP JUMPDEST PUSH1 0x14 DUP3 ADD SWAP2 POP DUP2 SWAP1 POP SWAP5 SWAP4 POP POP POP POP JUMP JUMPDEST PUSH32 0x4E487B7100000000000000000000000000000000000000000000000000000000 PUSH0 MSTORE PUSH1 0x12 PUSH1 0x4 MSTORE PUSH1 0x24 PUSH0 REVERT JUMPDEST PUSH0 PUSH2 0x74C DUP3 PUSH2 0x45D JUMP JUMPDEST SWAP2 POP PUSH2 0x757 DUP4 PUSH2 0x45D JUMP JUMPDEST SWAP3 POP DUP3 PUSH2 0x767 JUMPI PUSH2 0x766 PUSH2 0x715 JUMP JUMPDEST JUMPDEST DUP3 DUP3 MOD SWAP1 POP SWAP3 SWAP2 POP POP JUMP INVALID LOG2 PUSH5 0x6970667358 0x22 SLT KECCAK256 CALLER 0x25 0x2F 0xB5 PUSH10 0x711EF1553BC06CBB41F4 DUP8 SWAP14 CALLER DELEGATECALL CODECOPY LOG1 PUSH21 0x5873004B3C7B8FBC64B164736F6C634300081E0033 "
				},
				"gasEstimates": {
					"creation": {
						"codeDepositCost": "392000",
						"executionCost": "428",
						"totalCost": "392428"
					},
					"external": {
						"allPlayers(uint256)": "4922",
						"generateNum()": "infinite",
						"generatedNum()": "2468",
						"play(uint256)": "infinite",
						"usersInfo(address)": "infinite"
					}
				},
				"methodIdentifiers": {
					"allPlayers(uint256)": "0544ce5e",
					"generateNum()": "eea760b3",
					"generatedNum()": "85b7df02",
					"play(uint256)": "6898f82b",
					"usersInfo(address)": "5d0eaaaf"
				}
			},
			"storageLayout": {
				"storage": [
					{
						"astId": 3,
						"contract": "Build on Base/game.sol:GuessGame",
						"label": "generatedNum",
						"offset": 0,
						"slot": "0",
						"type": "t_uint256"
					},
					{
						"astId": 17,
						"contract": "Build on Base/game.sol:GuessGame",
						"label": "usersInfo",
						"offset": 0,
						"slot": "1",
						"type": "t_mapping(t_address,t_struct(User)12_storage)"
					},
					{
						"astId": 20,
						"contract": "Build on Base/game.sol:GuessGame",
						"label": "allPlayers",
						"offset": 0,
						"slot": "2",
						"type": "t_array(t_address)dyn_storage"
					}
				],
				"types": {
					"t_address": {
						"encoding": "inplace",
						"label": "address",
						"numberOfBytes": "20"
					},
					"t_array(t_address)dyn_storage": {
						"base": "t_address",
						"encoding": "dynamic_array",
						"label": "address[]",
						"numberOfBytes": "32"
					},
					"t_bool": {
						"encoding": "inplace",
						"label": "bool",
						"numberOfBytes": "1"
					},
					"t_mapping(t_address,t_struct(User)12_storage)": {
						"encoding": "mapping",
						"key": "t_address",
						"label": "mapping(address => struct GuessGame.User)",
						"numberOfBytes": "32",
						"value": "t_struct(User)12_storage"
					},
					"t_struct(User)12_storage": {
						"encoding": "inplace",
						"label": "struct GuessGame.User",
						"members": [
							{
								"astId": 5,
								"contract": "Build on Base/game.sol:GuessGame",
								"label": "user",
								"offset": 0,
								"slot": "0",
								"type": "t_address"
							},
							{
								"astId": 7,
								"contract": "Build on Base/game.sol:GuessGame",
								"label": "isRegistered",
								"offset": 20,
								"slot": "0",
								"type": "t_bool"
							},
							{
								"astId": 9,
								"contract": "Build on Base/game.sol:GuessGame",
								"label": "guessCount",
								"offset": 0,
								"slot": "1",
								"type": "t_uint256"
							},
							{
								"astId": 11,
								"contract": "Build on Base/game.sol:GuessGame",
								"label": "amountWon",
								"offset": 0,
								"slot": "2",
								"type": "t_uint256"
							}
						],
						"numberOfBytes": "96"
					},
					"t_uint256": {
						"encoding": "inplace",
						"label": "uint256",
						"numberOfBytes": "32"
					}
				}
			},
			"userdoc": {
				"kind": "user",
				"methods": {},
				"version": 1
			}
		}
	}
}